
freemaster_stm32.elf:     file format elf32-littlearm

Sections:
Idx Name          Size      VMA       LMA       File off  Algn
  0 .isr_vector   0000010c  08000000  08000000  00010000  2**0
                  CONTENTS, ALLOC, LOAD, READONLY, DATA
  1 .text         000022ac  0800010c  0800010c  0001010c  2**2
                  CONTENTS, ALLOC, LOAD, READONLY, CODE
  2 .rodata       00000034  080023b8  080023b8  000123b8  2**2
                  CONTENTS, ALLOC, LOAD, READONLY, DATA
  3 .ARM.extab    00000000  080023ec  080023ec  0002000c  2**0
                  CONTENTS
  4 .ARM          00000000  080023ec  080023ec  0002000c  2**0
                  CONTENTS
  5 .preinit_array 00000000  080023ec  080023ec  0002000c  2**0
                  CONTENTS, ALLOC, LOAD, DATA
  6 .init_array   00000004  080023ec  080023ec  000123ec  2**2
                  CONTENTS, ALLOC, LOAD, DATA
  7 .fini_array   00000004  080023f0  080023f0  000123f0  2**2
                  CONTENTS, ALLOC, LOAD, DATA
  8 .data         0000000c  20000000  080023f4  00020000  2**2
                  CONTENTS, ALLOC, LOAD, DATA
  9 .bss          00000150  2000000c  08002400  0002000c  2**2
                  ALLOC
 10 ._user_heap_stack 00000604  2000015c  08002400  0002015c  2**0
                  ALLOC
 11 .ARM.attributes 00000029  00000000  00000000  0002000c  2**0
                  CONTENTS, READONLY
 12 .debug_info   000061b9  00000000  00000000  00020035  2**0
                  CONTENTS, READONLY, DEBUGGING
 13 .debug_abbrev 00001402  00000000  00000000  000261ee  2**0
                  CONTENTS, READONLY, DEBUGGING
 14 .debug_aranges 00000678  00000000  00000000  000275f0  2**3
                  CONTENTS, READONLY, DEBUGGING
 15 .debug_ranges 000005c0  00000000  00000000  00027c68  2**3
                  CONTENTS, READONLY, DEBUGGING
 16 .debug_macro  00013747  00000000  00000000  00028228  2**0
                  CONTENTS, READONLY, DEBUGGING
 17 .debug_line   00005754  00000000  00000000  0003b96f  2**0
                  CONTENTS, READONLY, DEBUGGING
 18 .debug_str    0006b93f  00000000  00000000  000410c3  2**0
                  CONTENTS, READONLY, DEBUGGING
 19 .comment      0000007b  00000000  00000000  000aca02  2**0
                  CONTENTS, READONLY
 20 .debug_frame  0000188c  00000000  00000000  000aca80  2**2
                  CONTENTS, READONLY, DEBUGGING

Disassembly of section .text:

0800010c <__do_global_dtors_aux>:
 800010c:	b510      	push	{r4, lr}
 800010e:	4c05      	ldr	r4, [pc, #20]	; (8000124 <__do_global_dtors_aux+0x18>)
 8000110:	7823      	ldrb	r3, [r4, #0]
 8000112:	b933      	cbnz	r3, 8000122 <__do_global_dtors_aux+0x16>
 8000114:	4b04      	ldr	r3, [pc, #16]	; (8000128 <__do_global_dtors_aux+0x1c>)
 8000116:	b113      	cbz	r3, 800011e <__do_global_dtors_aux+0x12>
 8000118:	4804      	ldr	r0, [pc, #16]	; (800012c <__do_global_dtors_aux+0x20>)
 800011a:	f3af 8000 	nop.w
 800011e:	2301      	movs	r3, #1
 8000120:	7023      	strb	r3, [r4, #0]
 8000122:	bd10      	pop	{r4, pc}
 8000124:	2000000c 	.word	0x2000000c
 8000128:	00000000 	.word	0x00000000
 800012c:	080023a0 	.word	0x080023a0

08000130 <frame_dummy>:
 8000130:	b508      	push	{r3, lr}
 8000132:	4b03      	ldr	r3, [pc, #12]	; (8000140 <frame_dummy+0x10>)
 8000134:	b11b      	cbz	r3, 800013e <frame_dummy+0xe>
 8000136:	4903      	ldr	r1, [pc, #12]	; (8000144 <frame_dummy+0x14>)
 8000138:	4803      	ldr	r0, [pc, #12]	; (8000148 <frame_dummy+0x18>)
 800013a:	f3af 8000 	nop.w
 800013e:	bd08      	pop	{r3, pc}
 8000140:	00000000 	.word	0x00000000
 8000144:	20000010 	.word	0x20000010
 8000148:	080023a0 	.word	0x080023a0

0800014c <main>:
/**
  * @brief  The application entry point.
  * @retval int
  */
int main(void)
{
 800014c:	b580      	push	{r7, lr}
 800014e:	af00      	add	r7, sp, #0
  

  /* MCU Configuration--------------------------------------------------------*/

  /* Reset of all peripherals, Initializes the Flash interface and the Systick. */
  HAL_Init();
 8000150:	f000 fa7c 	bl	800064c <HAL_Init>
  /* USER CODE BEGIN Init */

  /* USER CODE END Init */

  /* Configure the system clock */
  SystemClock_Config();
 8000154:	f000 f824 	bl	80001a0 <SystemClock_Config>
  /* USER CODE BEGIN SysInit */

  /* USER CODE END SysInit */

  /* Initialize all configured peripherals */
  MX_GPIO_Init();
 8000158:	f000 f8b8 	bl	80002cc <MX_GPIO_Init>
  MX_DMA_Init();
 800015c:	f000 f890 	bl	8000280 <MX_DMA_Init>
  MX_USART1_UART_Init();
 8000160:	f000 f864 	bl	800022c <MX_USART1_UART_Init>
  /* USER CODE BEGIN 2 */
 // FMSTR_Example_Init();
  test();
 8000164:	f000 fa46 	bl	80005f4 <test>
  HAL_UART_Transmit_DMA(&huart1, (uint8_t*)"\n\rsoong", 7);
 8000168:	2207      	movs	r2, #7
 800016a:	4909      	ldr	r1, [pc, #36]	; (8000190 <main+0x44>)
 800016c:	4809      	ldr	r0, [pc, #36]	; (8000194 <main+0x48>)
 800016e:	f001 fc05 	bl	800197c <HAL_UART_Transmit_DMA>
  HAL_UART_Receive_DMA(&huart1, (uint8_t *)strbuff, 20);
 8000172:	2214      	movs	r2, #20
 8000174:	4908      	ldr	r1, [pc, #32]	; (8000198 <main+0x4c>)
 8000176:	4807      	ldr	r0, [pc, #28]	; (8000194 <main+0x48>)
 8000178:	f001 fc6c 	bl	8001a54 <HAL_UART_Receive_DMA>
  while (1)
  {
    /* USER CODE END WHILE */

    /* USER CODE BEGIN 3 */
	  if(count1MS > RPODROUND)     //1S once
 800017c:	4b07      	ldr	r3, [pc, #28]	; (800019c <main+0x50>)
 800017e:	881b      	ldrh	r3, [r3, #0]
 8000180:	f5b3 7f7a 	cmp.w	r3, #1000	; 0x3e8
 8000184:	d9fa      	bls.n	800017c <main+0x30>
	  {
		  count1MS = 1;
 8000186:	4b05      	ldr	r3, [pc, #20]	; (800019c <main+0x50>)
 8000188:	2201      	movs	r2, #1
 800018a:	801a      	strh	r2, [r3, #0]
	  if(count1MS > RPODROUND)     //1S once
 800018c:	e7f6      	b.n	800017c <main+0x30>
 800018e:	bf00      	nop
 8000190:	080023b8 	.word	0x080023b8
 8000194:	20000118 	.word	0x20000118
 8000198:	2000002c 	.word	0x2000002c
 800019c:	20000028 	.word	0x20000028

080001a0 <SystemClock_Config>:
/**
  * @brief System Clock Configuration
  * @retval None
  */
void SystemClock_Config(void)
{
 80001a0:	b580      	push	{r7, lr}
 80001a2:	b090      	sub	sp, #64	; 0x40
 80001a4:	af00      	add	r7, sp, #0
  RCC_OscInitTypeDef RCC_OscInitStruct = {0};
 80001a6:	f107 0318 	add.w	r3, r7, #24
 80001aa:	2228      	movs	r2, #40	; 0x28
 80001ac:	2100      	movs	r1, #0
 80001ae:	4618      	mov	r0, r3
 80001b0:	f002 f8ee 	bl	8002390 <memset>
  RCC_ClkInitTypeDef RCC_ClkInitStruct = {0};
 80001b4:	1d3b      	adds	r3, r7, #4
 80001b6:	2200      	movs	r2, #0
 80001b8:	601a      	str	r2, [r3, #0]
 80001ba:	605a      	str	r2, [r3, #4]
 80001bc:	609a      	str	r2, [r3, #8]
 80001be:	60da      	str	r2, [r3, #12]
 80001c0:	611a      	str	r2, [r3, #16]

  /** Initializes the CPU, AHB and APB busses clocks 
  */
  RCC_OscInitStruct.OscillatorType = RCC_OSCILLATORTYPE_HSE;
 80001c2:	2301      	movs	r3, #1
 80001c4:	61bb      	str	r3, [r7, #24]
  RCC_OscInitStruct.HSEState = RCC_HSE_ON;
 80001c6:	f44f 3380 	mov.w	r3, #65536	; 0x10000
 80001ca:	61fb      	str	r3, [r7, #28]
  RCC_OscInitStruct.HSEPredivValue = RCC_HSE_PREDIV_DIV1;
 80001cc:	2300      	movs	r3, #0
 80001ce:	623b      	str	r3, [r7, #32]
  RCC_OscInitStruct.HSIState = RCC_HSI_ON;
 80001d0:	2301      	movs	r3, #1
 80001d2:	62bb      	str	r3, [r7, #40]	; 0x28
  RCC_OscInitStruct.PLL.PLLState = RCC_PLL_ON;
 80001d4:	2302      	movs	r3, #2
 80001d6:	637b      	str	r3, [r7, #52]	; 0x34
  RCC_OscInitStruct.PLL.PLLSource = RCC_PLLSOURCE_HSE;
 80001d8:	f44f 3380 	mov.w	r3, #65536	; 0x10000
 80001dc:	63bb      	str	r3, [r7, #56]	; 0x38
  RCC_OscInitStruct.PLL.PLLMUL = RCC_PLL_MUL9;
 80001de:	f44f 13e0 	mov.w	r3, #1835008	; 0x1c0000
 80001e2:	63fb      	str	r3, [r7, #60]	; 0x3c
  if (HAL_RCC_OscConfig(&RCC_OscInitStruct) != HAL_OK)
 80001e4:	f107 0318 	add.w	r3, r7, #24
 80001e8:	4618      	mov	r0, r3
 80001ea:	f000 ff5d 	bl	80010a8 <HAL_RCC_OscConfig>
 80001ee:	4603      	mov	r3, r0
 80001f0:	2b00      	cmp	r3, #0
 80001f2:	d001      	beq.n	80001f8 <SystemClock_Config+0x58>
  {
    Error_Handler();
 80001f4:	f000 f898 	bl	8000328 <Error_Handler>
  }
  /** Initializes the CPU, AHB and APB busses clocks 
  */
  RCC_ClkInitStruct.ClockType = RCC_CLOCKTYPE_HCLK|RCC_CLOCKTYPE_SYSCLK
 80001f8:	230f      	movs	r3, #15
 80001fa:	607b      	str	r3, [r7, #4]
                              |RCC_CLOCKTYPE_PCLK1|RCC_CLOCKTYPE_PCLK2;
  RCC_ClkInitStruct.SYSCLKSource = RCC_SYSCLKSOURCE_PLLCLK;
 80001fc:	2302      	movs	r3, #2
 80001fe:	60bb      	str	r3, [r7, #8]
  RCC_ClkInitStruct.AHBCLKDivider = RCC_SYSCLK_DIV1;
 8000200:	2300      	movs	r3, #0
 8000202:	60fb      	str	r3, [r7, #12]
  RCC_ClkInitStruct.APB1CLKDivider = RCC_HCLK_DIV2;
 8000204:	f44f 6380 	mov.w	r3, #1024	; 0x400
 8000208:	613b      	str	r3, [r7, #16]
  RCC_ClkInitStruct.APB2CLKDivider = RCC_HCLK_DIV1;
 800020a:	2300      	movs	r3, #0
 800020c:	617b      	str	r3, [r7, #20]

  if (HAL_RCC_ClockConfig(&RCC_ClkInitStruct, FLASH_LATENCY_2) != HAL_OK)
 800020e:	1d3b      	adds	r3, r7, #4
 8000210:	2102      	movs	r1, #2
 8000212:	4618      	mov	r0, r3
 8000214:	f001 f9c8 	bl	80015a8 <HAL_RCC_ClockConfig>
 8000218:	4603      	mov	r3, r0
 800021a:	2b00      	cmp	r3, #0
 800021c:	d001      	beq.n	8000222 <SystemClock_Config+0x82>
  {
    Error_Handler();
 800021e:	f000 f883 	bl	8000328 <Error_Handler>
  }
}
 8000222:	bf00      	nop
 8000224:	3740      	adds	r7, #64	; 0x40
 8000226:	46bd      	mov	sp, r7
 8000228:	bd80      	pop	{r7, pc}
	...

0800022c <MX_USART1_UART_Init>:
  * @brief USART1 Initialization Function
  * @param None
  * @retval None
  */
static void MX_USART1_UART_Init(void)
{
 800022c:	b580      	push	{r7, lr}
 800022e:	af00      	add	r7, sp, #0
  /* USER CODE END USART1_Init 0 */

  /* USER CODE BEGIN USART1_Init 1 */

  /* USER CODE END USART1_Init 1 */
  huart1.Instance = USART1;
 8000230:	4b11      	ldr	r3, [pc, #68]	; (8000278 <MX_USART1_UART_Init+0x4c>)
 8000232:	4a12      	ldr	r2, [pc, #72]	; (800027c <MX_USART1_UART_Init+0x50>)
 8000234:	601a      	str	r2, [r3, #0]
  huart1.Init.BaudRate = 115200;
 8000236:	4b10      	ldr	r3, [pc, #64]	; (8000278 <MX_USART1_UART_Init+0x4c>)
 8000238:	f44f 32e1 	mov.w	r2, #115200	; 0x1c200
 800023c:	605a      	str	r2, [r3, #4]
  huart1.Init.WordLength = UART_WORDLENGTH_8B;
 800023e:	4b0e      	ldr	r3, [pc, #56]	; (8000278 <MX_USART1_UART_Init+0x4c>)
 8000240:	2200      	movs	r2, #0
 8000242:	609a      	str	r2, [r3, #8]
  huart1.Init.StopBits = UART_STOPBITS_1;
 8000244:	4b0c      	ldr	r3, [pc, #48]	; (8000278 <MX_USART1_UART_Init+0x4c>)
 8000246:	2200      	movs	r2, #0
 8000248:	60da      	str	r2, [r3, #12]
  huart1.Init.Parity = UART_PARITY_NONE;
 800024a:	4b0b      	ldr	r3, [pc, #44]	; (8000278 <MX_USART1_UART_Init+0x4c>)
 800024c:	2200      	movs	r2, #0
 800024e:	611a      	str	r2, [r3, #16]
  huart1.Init.Mode = UART_MODE_TX_RX;
 8000250:	4b09      	ldr	r3, [pc, #36]	; (8000278 <MX_USART1_UART_Init+0x4c>)
 8000252:	220c      	movs	r2, #12
 8000254:	615a      	str	r2, [r3, #20]
  huart1.Init.HwFlowCtl = UART_HWCONTROL_NONE;
 8000256:	4b08      	ldr	r3, [pc, #32]	; (8000278 <MX_USART1_UART_Init+0x4c>)
 8000258:	2200      	movs	r2, #0
 800025a:	619a      	str	r2, [r3, #24]
  huart1.Init.OverSampling = UART_OVERSAMPLING_16;
 800025c:	4b06      	ldr	r3, [pc, #24]	; (8000278 <MX_USART1_UART_Init+0x4c>)
 800025e:	2200      	movs	r2, #0
 8000260:	61da      	str	r2, [r3, #28]
  if (HAL_UART_Init(&huart1) != HAL_OK)
 8000262:	4805      	ldr	r0, [pc, #20]	; (8000278 <MX_USART1_UART_Init+0x4c>)
 8000264:	f001 fb3c 	bl	80018e0 <HAL_UART_Init>
 8000268:	4603      	mov	r3, r0
 800026a:	2b00      	cmp	r3, #0
 800026c:	d001      	beq.n	8000272 <MX_USART1_UART_Init+0x46>
  {
    Error_Handler();
 800026e:	f000 f85b 	bl	8000328 <Error_Handler>
  }
  /* USER CODE BEGIN USART1_Init 2 */

  /* USER CODE END USART1_Init 2 */

}
 8000272:	bf00      	nop
 8000274:	bd80      	pop	{r7, pc}
 8000276:	bf00      	nop
 8000278:	20000118 	.word	0x20000118
 800027c:	40013800 	.word	0x40013800

08000280 <MX_DMA_Init>:

/** 
  * Enable DMA controller clock
  */
static void MX_DMA_Init(void) 
{
 8000280:	b580      	push	{r7, lr}
 8000282:	b082      	sub	sp, #8
 8000284:	af00      	add	r7, sp, #0

  /* DMA controller clock enable */
  __HAL_RCC_DMA1_CLK_ENABLE();
 8000286:	4b10      	ldr	r3, [pc, #64]	; (80002c8 <MX_DMA_Init+0x48>)
 8000288:	695b      	ldr	r3, [r3, #20]
 800028a:	4a0f      	ldr	r2, [pc, #60]	; (80002c8 <MX_DMA_Init+0x48>)
 800028c:	f043 0301 	orr.w	r3, r3, #1
 8000290:	6153      	str	r3, [r2, #20]
 8000292:	4b0d      	ldr	r3, [pc, #52]	; (80002c8 <MX_DMA_Init+0x48>)
 8000294:	695b      	ldr	r3, [r3, #20]
 8000296:	f003 0301 	and.w	r3, r3, #1
 800029a:	607b      	str	r3, [r7, #4]
 800029c:	687b      	ldr	r3, [r7, #4]

  /* DMA interrupt init */
  /* DMA1_Channel4_IRQn interrupt configuration */
  HAL_NVIC_SetPriority(DMA1_Channel4_IRQn, 0, 0);
 800029e:	2200      	movs	r2, #0
 80002a0:	2100      	movs	r1, #0
 80002a2:	200e      	movs	r0, #14
 80002a4:	f000 fb0b 	bl	80008be <HAL_NVIC_SetPriority>
  HAL_NVIC_EnableIRQ(DMA1_Channel4_IRQn);
 80002a8:	200e      	movs	r0, #14
 80002aa:	f000 fb24 	bl	80008f6 <HAL_NVIC_EnableIRQ>
  /* DMA1_Channel5_IRQn interrupt configuration */
  HAL_NVIC_SetPriority(DMA1_Channel5_IRQn, 0, 0);
 80002ae:	2200      	movs	r2, #0
 80002b0:	2100      	movs	r1, #0
 80002b2:	200f      	movs	r0, #15
 80002b4:	f000 fb03 	bl	80008be <HAL_NVIC_SetPriority>
  HAL_NVIC_EnableIRQ(DMA1_Channel5_IRQn);
 80002b8:	200f      	movs	r0, #15
 80002ba:	f000 fb1c 	bl	80008f6 <HAL_NVIC_EnableIRQ>

}
 80002be:	bf00      	nop
 80002c0:	3708      	adds	r7, #8
 80002c2:	46bd      	mov	sp, r7
 80002c4:	bd80      	pop	{r7, pc}
 80002c6:	bf00      	nop
 80002c8:	40021000 	.word	0x40021000

080002cc <MX_GPIO_Init>:
  * @brief GPIO Initialization Function
  * @param None
  * @retval None
  */
static void MX_GPIO_Init(void)
{
 80002cc:	b480      	push	{r7}
 80002ce:	b085      	sub	sp, #20
 80002d0:	af00      	add	r7, sp, #0

  /* GPIO Ports Clock Enable */
  __HAL_RCC_GPIOC_CLK_ENABLE();
 80002d2:	4b14      	ldr	r3, [pc, #80]	; (8000324 <MX_GPIO_Init+0x58>)
 80002d4:	699b      	ldr	r3, [r3, #24]
 80002d6:	4a13      	ldr	r2, [pc, #76]	; (8000324 <MX_GPIO_Init+0x58>)
 80002d8:	f043 0310 	orr.w	r3, r3, #16
 80002dc:	6193      	str	r3, [r2, #24]
 80002de:	4b11      	ldr	r3, [pc, #68]	; (8000324 <MX_GPIO_Init+0x58>)
 80002e0:	699b      	ldr	r3, [r3, #24]
 80002e2:	f003 0310 	and.w	r3, r3, #16
 80002e6:	60fb      	str	r3, [r7, #12]
 80002e8:	68fb      	ldr	r3, [r7, #12]
  __HAL_RCC_GPIOD_CLK_ENABLE();
 80002ea:	4b0e      	ldr	r3, [pc, #56]	; (8000324 <MX_GPIO_Init+0x58>)
 80002ec:	699b      	ldr	r3, [r3, #24]
 80002ee:	4a0d      	ldr	r2, [pc, #52]	; (8000324 <MX_GPIO_Init+0x58>)
 80002f0:	f043 0320 	orr.w	r3, r3, #32
 80002f4:	6193      	str	r3, [r2, #24]
 80002f6:	4b0b      	ldr	r3, [pc, #44]	; (8000324 <MX_GPIO_Init+0x58>)
 80002f8:	699b      	ldr	r3, [r3, #24]
 80002fa:	f003 0320 	and.w	r3, r3, #32
 80002fe:	60bb      	str	r3, [r7, #8]
 8000300:	68bb      	ldr	r3, [r7, #8]
  __HAL_RCC_GPIOA_CLK_ENABLE();
 8000302:	4b08      	ldr	r3, [pc, #32]	; (8000324 <MX_GPIO_Init+0x58>)
 8000304:	699b      	ldr	r3, [r3, #24]
 8000306:	4a07      	ldr	r2, [pc, #28]	; (8000324 <MX_GPIO_Init+0x58>)
 8000308:	f043 0304 	orr.w	r3, r3, #4
 800030c:	6193      	str	r3, [r2, #24]
 800030e:	4b05      	ldr	r3, [pc, #20]	; (8000324 <MX_GPIO_Init+0x58>)
 8000310:	699b      	ldr	r3, [r3, #24]
 8000312:	f003 0304 	and.w	r3, r3, #4
 8000316:	607b      	str	r3, [r7, #4]
 8000318:	687b      	ldr	r3, [r7, #4]

}
 800031a:	bf00      	nop
 800031c:	3714      	adds	r7, #20
 800031e:	46bd      	mov	sp, r7
 8000320:	bc80      	pop	{r7}
 8000322:	4770      	bx	lr
 8000324:	40021000 	.word	0x40021000

08000328 <Error_Handler>:
/**
  * @brief  This function is executed in case of error occurrence.
  * @retval None
  */
void Error_Handler(void)
{
 8000328:	b480      	push	{r7}
 800032a:	af00      	add	r7, sp, #0
  /* USER CODE BEGIN Error_Handler_Debug */
  /* User can add his own implementation to report the HAL error return state */

  /* USER CODE END Error_Handler_Debug */
}
 800032c:	bf00      	nop
 800032e:	46bd      	mov	sp, r7
 8000330:	bc80      	pop	{r7}
 8000332:	4770      	bx	lr

08000334 <HAL_MspInit>:
/* USER CODE END 0 */
/**
  * Initializes the Global MSP.
  */
void HAL_MspInit(void)
{
 8000334:	b480      	push	{r7}
 8000336:	b085      	sub	sp, #20
 8000338:	af00      	add	r7, sp, #0
  /* USER CODE BEGIN MspInit 0 */

  /* USER CODE END MspInit 0 */

  __HAL_RCC_AFIO_CLK_ENABLE();
 800033a:	4b15      	ldr	r3, [pc, #84]	; (8000390 <HAL_MspInit+0x5c>)
 800033c:	699b      	ldr	r3, [r3, #24]
 800033e:	4a14      	ldr	r2, [pc, #80]	; (8000390 <HAL_MspInit+0x5c>)
 8000340:	f043 0301 	orr.w	r3, r3, #1
 8000344:	6193      	str	r3, [r2, #24]
 8000346:	4b12      	ldr	r3, [pc, #72]	; (8000390 <HAL_MspInit+0x5c>)
 8000348:	699b      	ldr	r3, [r3, #24]
 800034a:	f003 0301 	and.w	r3, r3, #1
 800034e:	60bb      	str	r3, [r7, #8]
 8000350:	68bb      	ldr	r3, [r7, #8]
  __HAL_RCC_PWR_CLK_ENABLE();
 8000352:	4b0f      	ldr	r3, [pc, #60]	; (8000390 <HAL_MspInit+0x5c>)
 8000354:	69db      	ldr	r3, [r3, #28]
 8000356:	4a0e      	ldr	r2, [pc, #56]	; (8000390 <HAL_MspInit+0x5c>)
 8000358:	f043 5380 	orr.w	r3, r3, #268435456	; 0x10000000
 800035c:	61d3      	str	r3, [r2, #28]
 800035e:	4b0c      	ldr	r3, [pc, #48]	; (8000390 <HAL_MspInit+0x5c>)
 8000360:	69db      	ldr	r3, [r3, #28]
 8000362:	f003 5380 	and.w	r3, r3, #268435456	; 0x10000000
 8000366:	607b      	str	r3, [r7, #4]
 8000368:	687b      	ldr	r3, [r7, #4]

  /* System interrupt init*/

  /** NOJTAG: JTAG-DP Disabled and SW-DP Enabled 
  */
  __HAL_AFIO_REMAP_SWJ_NOJTAG();
 800036a:	4b0a      	ldr	r3, [pc, #40]	; (8000394 <HAL_MspInit+0x60>)
 800036c:	685b      	ldr	r3, [r3, #4]
 800036e:	60fb      	str	r3, [r7, #12]
 8000370:	68fb      	ldr	r3, [r7, #12]
 8000372:	f023 63e0 	bic.w	r3, r3, #117440512	; 0x7000000
 8000376:	60fb      	str	r3, [r7, #12]
 8000378:	68fb      	ldr	r3, [r7, #12]
 800037a:	f043 7300 	orr.w	r3, r3, #33554432	; 0x2000000
 800037e:	60fb      	str	r3, [r7, #12]
 8000380:	4a04      	ldr	r2, [pc, #16]	; (8000394 <HAL_MspInit+0x60>)
 8000382:	68fb      	ldr	r3, [r7, #12]
 8000384:	6053      	str	r3, [r2, #4]

  /* USER CODE BEGIN MspInit 1 */

  /* USER CODE END MspInit 1 */
}
 8000386:	bf00      	nop
 8000388:	3714      	adds	r7, #20
 800038a:	46bd      	mov	sp, r7
 800038c:	bc80      	pop	{r7}
 800038e:	4770      	bx	lr
 8000390:	40021000 	.word	0x40021000
 8000394:	40010000 	.word	0x40010000

08000398 <HAL_UART_MspInit>:
* This function configures the hardware resources used in this example
* @param huart: UART handle pointer
* @retval None
*/
void HAL_UART_MspInit(UART_HandleTypeDef* huart)
{
 8000398:	b580      	push	{r7, lr}
 800039a:	b088      	sub	sp, #32
 800039c:	af00      	add	r7, sp, #0
 800039e:	6078      	str	r0, [r7, #4]
  GPIO_InitTypeDef GPIO_InitStruct = {0};
 80003a0:	f107 0310 	add.w	r3, r7, #16
 80003a4:	2200      	movs	r2, #0
 80003a6:	601a      	str	r2, [r3, #0]
 80003a8:	605a      	str	r2, [r3, #4]
 80003aa:	609a      	str	r2, [r3, #8]
 80003ac:	60da      	str	r2, [r3, #12]
  if(huart->Instance==USART1)
 80003ae:	687b      	ldr	r3, [r7, #4]
 80003b0:	681b      	ldr	r3, [r3, #0]
 80003b2:	4a47      	ldr	r2, [pc, #284]	; (80004d0 <HAL_UART_MspInit+0x138>)
 80003b4:	4293      	cmp	r3, r2
 80003b6:	f040 8086 	bne.w	80004c6 <HAL_UART_MspInit+0x12e>
  {
  /* USER CODE BEGIN USART1_MspInit 0 */

  /* USER CODE END USART1_MspInit 0 */
    /* Peripheral clock enable */
    __HAL_RCC_USART1_CLK_ENABLE();
 80003ba:	4b46      	ldr	r3, [pc, #280]	; (80004d4 <HAL_UART_MspInit+0x13c>)
 80003bc:	699b      	ldr	r3, [r3, #24]
 80003be:	4a45      	ldr	r2, [pc, #276]	; (80004d4 <HAL_UART_MspInit+0x13c>)
 80003c0:	f443 4380 	orr.w	r3, r3, #16384	; 0x4000
 80003c4:	6193      	str	r3, [r2, #24]
 80003c6:	4b43      	ldr	r3, [pc, #268]	; (80004d4 <HAL_UART_MspInit+0x13c>)
 80003c8:	699b      	ldr	r3, [r3, #24]
 80003ca:	f403 4380 	and.w	r3, r3, #16384	; 0x4000
 80003ce:	60fb      	str	r3, [r7, #12]
 80003d0:	68fb      	ldr	r3, [r7, #12]
  
    __HAL_RCC_GPIOA_CLK_ENABLE();
 80003d2:	4b40      	ldr	r3, [pc, #256]	; (80004d4 <HAL_UART_MspInit+0x13c>)
 80003d4:	699b      	ldr	r3, [r3, #24]
 80003d6:	4a3f      	ldr	r2, [pc, #252]	; (80004d4 <HAL_UART_MspInit+0x13c>)
 80003d8:	f043 0304 	orr.w	r3, r3, #4
 80003dc:	6193      	str	r3, [r2, #24]
 80003de:	4b3d      	ldr	r3, [pc, #244]	; (80004d4 <HAL_UART_MspInit+0x13c>)
 80003e0:	699b      	ldr	r3, [r3, #24]
 80003e2:	f003 0304 	and.w	r3, r3, #4
 80003e6:	60bb      	str	r3, [r7, #8]
 80003e8:	68bb      	ldr	r3, [r7, #8]
    /**USART1 GPIO Configuration    
    PA9     ------> USART1_TX
    PA10     ------> USART1_RX 
    */
    GPIO_InitStruct.Pin = GPIO_PIN_9;
 80003ea:	f44f 7300 	mov.w	r3, #512	; 0x200
 80003ee:	613b      	str	r3, [r7, #16]
    GPIO_InitStruct.Mode = GPIO_MODE_AF_PP;
 80003f0:	2302      	movs	r3, #2
 80003f2:	617b      	str	r3, [r7, #20]
    GPIO_InitStruct.Speed = GPIO_SPEED_FREQ_HIGH;
 80003f4:	2303      	movs	r3, #3
 80003f6:	61fb      	str	r3, [r7, #28]
    HAL_GPIO_Init(GPIOA, &GPIO_InitStruct);
 80003f8:	f107 0310 	add.w	r3, r7, #16
 80003fc:	4619      	mov	r1, r3
 80003fe:	4836      	ldr	r0, [pc, #216]	; (80004d8 <HAL_UART_MspInit+0x140>)
 8000400:	f000 fcf8 	bl	8000df4 <HAL_GPIO_Init>

    GPIO_InitStruct.Pin = GPIO_PIN_10;
 8000404:	f44f 6380 	mov.w	r3, #1024	; 0x400
 8000408:	613b      	str	r3, [r7, #16]
    GPIO_InitStruct.Mode = GPIO_MODE_INPUT;
 800040a:	2300      	movs	r3, #0
 800040c:	617b      	str	r3, [r7, #20]
    GPIO_InitStruct.Pull = GPIO_NOPULL;
 800040e:	2300      	movs	r3, #0
 8000410:	61bb      	str	r3, [r7, #24]
    HAL_GPIO_Init(GPIOA, &GPIO_InitStruct);
 8000412:	f107 0310 	add.w	r3, r7, #16
 8000416:	4619      	mov	r1, r3
 8000418:	482f      	ldr	r0, [pc, #188]	; (80004d8 <HAL_UART_MspInit+0x140>)
 800041a:	f000 fceb 	bl	8000df4 <HAL_GPIO_Init>

    /* USART1 DMA Init */
    /* USART1_TX Init */
    hdma_usart1_tx.Instance = DMA1_Channel4;
 800041e:	4b2f      	ldr	r3, [pc, #188]	; (80004dc <HAL_UART_MspInit+0x144>)
 8000420:	4a2f      	ldr	r2, [pc, #188]	; (80004e0 <HAL_UART_MspInit+0x148>)
 8000422:	601a      	str	r2, [r3, #0]
    hdma_usart1_tx.Init.Direction = DMA_MEMORY_TO_PERIPH;
 8000424:	4b2d      	ldr	r3, [pc, #180]	; (80004dc <HAL_UART_MspInit+0x144>)
 8000426:	2210      	movs	r2, #16
 8000428:	605a      	str	r2, [r3, #4]
    hdma_usart1_tx.Init.PeriphInc = DMA_PINC_DISABLE;
 800042a:	4b2c      	ldr	r3, [pc, #176]	; (80004dc <HAL_UART_MspInit+0x144>)
 800042c:	2200      	movs	r2, #0
 800042e:	609a      	str	r2, [r3, #8]
    hdma_usart1_tx.Init.MemInc = DMA_MINC_ENABLE;
 8000430:	4b2a      	ldr	r3, [pc, #168]	; (80004dc <HAL_UART_MspInit+0x144>)
 8000432:	2280      	movs	r2, #128	; 0x80
 8000434:	60da      	str	r2, [r3, #12]
    hdma_usart1_tx.Init.PeriphDataAlignment = DMA_PDATAALIGN_BYTE;
 8000436:	4b29      	ldr	r3, [pc, #164]	; (80004dc <HAL_UART_MspInit+0x144>)
 8000438:	2200      	movs	r2, #0
 800043a:	611a      	str	r2, [r3, #16]
    hdma_usart1_tx.Init.MemDataAlignment = DMA_MDATAALIGN_BYTE;
 800043c:	4b27      	ldr	r3, [pc, #156]	; (80004dc <HAL_UART_MspInit+0x144>)
 800043e:	2200      	movs	r2, #0
 8000440:	615a      	str	r2, [r3, #20]
    hdma_usart1_tx.Init.Mode = DMA_NORMAL;
 8000442:	4b26      	ldr	r3, [pc, #152]	; (80004dc <HAL_UART_MspInit+0x144>)
 8000444:	2200      	movs	r2, #0
 8000446:	619a      	str	r2, [r3, #24]
    hdma_usart1_tx.Init.Priority = DMA_PRIORITY_LOW;
 8000448:	4b24      	ldr	r3, [pc, #144]	; (80004dc <HAL_UART_MspInit+0x144>)
 800044a:	2200      	movs	r2, #0
 800044c:	61da      	str	r2, [r3, #28]
    if (HAL_DMA_Init(&hdma_usart1_tx) != HAL_OK)
 800044e:	4823      	ldr	r0, [pc, #140]	; (80004dc <HAL_UART_MspInit+0x144>)
 8000450:	f000 fa6c 	bl	800092c <HAL_DMA_Init>
 8000454:	4603      	mov	r3, r0
 8000456:	2b00      	cmp	r3, #0
 8000458:	d001      	beq.n	800045e <HAL_UART_MspInit+0xc6>
    {
      Error_Handler();
 800045a:	f7ff ff65 	bl	8000328 <Error_Handler>
    }

    __HAL_LINKDMA(huart,hdmatx,hdma_usart1_tx);
 800045e:	687b      	ldr	r3, [r7, #4]
 8000460:	4a1e      	ldr	r2, [pc, #120]	; (80004dc <HAL_UART_MspInit+0x144>)
 8000462:	631a      	str	r2, [r3, #48]	; 0x30
 8000464:	4a1d      	ldr	r2, [pc, #116]	; (80004dc <HAL_UART_MspInit+0x144>)
 8000466:	687b      	ldr	r3, [r7, #4]
 8000468:	6253      	str	r3, [r2, #36]	; 0x24

    /* USART1_RX Init */
    hdma_usart1_rx.Instance = DMA1_Channel5;
 800046a:	4b1e      	ldr	r3, [pc, #120]	; (80004e4 <HAL_UART_MspInit+0x14c>)
 800046c:	4a1e      	ldr	r2, [pc, #120]	; (80004e8 <HAL_UART_MspInit+0x150>)
 800046e:	601a      	str	r2, [r3, #0]
    hdma_usart1_rx.Init.Direction = DMA_PERIPH_TO_MEMORY;
 8000470:	4b1c      	ldr	r3, [pc, #112]	; (80004e4 <HAL_UART_MspInit+0x14c>)
 8000472:	2200      	movs	r2, #0
 8000474:	605a      	str	r2, [r3, #4]
    hdma_usart1_rx.Init.PeriphInc = DMA_PINC_DISABLE;
 8000476:	4b1b      	ldr	r3, [pc, #108]	; (80004e4 <HAL_UART_MspInit+0x14c>)
 8000478:	2200      	movs	r2, #0
 800047a:	609a      	str	r2, [r3, #8]
    hdma_usart1_rx.Init.MemInc = DMA_MINC_ENABLE;
 800047c:	4b19      	ldr	r3, [pc, #100]	; (80004e4 <HAL_UART_MspInit+0x14c>)
 800047e:	2280      	movs	r2, #128	; 0x80
 8000480:	60da      	str	r2, [r3, #12]
    hdma_usart1_rx.Init.PeriphDataAlignment = DMA_PDATAALIGN_BYTE;
 8000482:	4b18      	ldr	r3, [pc, #96]	; (80004e4 <HAL_UART_MspInit+0x14c>)
 8000484:	2200      	movs	r2, #0
 8000486:	611a      	str	r2, [r3, #16]
    hdma_usart1_rx.Init.MemDataAlignment = DMA_MDATAALIGN_BYTE;
 8000488:	4b16      	ldr	r3, [pc, #88]	; (80004e4 <HAL_UART_MspInit+0x14c>)
 800048a:	2200      	movs	r2, #0
 800048c:	615a      	str	r2, [r3, #20]
    hdma_usart1_rx.Init.Mode = DMA_NORMAL;
 800048e:	4b15      	ldr	r3, [pc, #84]	; (80004e4 <HAL_UART_MspInit+0x14c>)
 8000490:	2200      	movs	r2, #0
 8000492:	619a      	str	r2, [r3, #24]
    hdma_usart1_rx.Init.Priority = DMA_PRIORITY_LOW;
 8000494:	4b13      	ldr	r3, [pc, #76]	; (80004e4 <HAL_UART_MspInit+0x14c>)
 8000496:	2200      	movs	r2, #0
 8000498:	61da      	str	r2, [r3, #28]
    if (HAL_DMA_Init(&hdma_usart1_rx) != HAL_OK)
 800049a:	4812      	ldr	r0, [pc, #72]	; (80004e4 <HAL_UART_MspInit+0x14c>)
 800049c:	f000 fa46 	bl	800092c <HAL_DMA_Init>
 80004a0:	4603      	mov	r3, r0
 80004a2:	2b00      	cmp	r3, #0
 80004a4:	d001      	beq.n	80004aa <HAL_UART_MspInit+0x112>
    {
      Error_Handler();
 80004a6:	f7ff ff3f 	bl	8000328 <Error_Handler>
    }

    __HAL_LINKDMA(huart,hdmarx,hdma_usart1_rx);
 80004aa:	687b      	ldr	r3, [r7, #4]
 80004ac:	4a0d      	ldr	r2, [pc, #52]	; (80004e4 <HAL_UART_MspInit+0x14c>)
 80004ae:	635a      	str	r2, [r3, #52]	; 0x34
 80004b0:	4a0c      	ldr	r2, [pc, #48]	; (80004e4 <HAL_UART_MspInit+0x14c>)
 80004b2:	687b      	ldr	r3, [r7, #4]
 80004b4:	6253      	str	r3, [r2, #36]	; 0x24

    /* USART1 interrupt Init */
    HAL_NVIC_SetPriority(USART1_IRQn, 0, 0);
 80004b6:	2200      	movs	r2, #0
 80004b8:	2100      	movs	r1, #0
 80004ba:	2025      	movs	r0, #37	; 0x25
 80004bc:	f000 f9ff 	bl	80008be <HAL_NVIC_SetPriority>
    HAL_NVIC_EnableIRQ(USART1_IRQn);
 80004c0:	2025      	movs	r0, #37	; 0x25
 80004c2:	f000 fa18 	bl	80008f6 <HAL_NVIC_EnableIRQ>
  /* USER CODE BEGIN USART1_MspInit 1 */

  /* USER CODE END USART1_MspInit 1 */
  }

}
 80004c6:	bf00      	nop
 80004c8:	3720      	adds	r7, #32
 80004ca:	46bd      	mov	sp, r7
 80004cc:	bd80      	pop	{r7, pc}
 80004ce:	bf00      	nop
 80004d0:	40013800 	.word	0x40013800
 80004d4:	40021000 	.word	0x40021000
 80004d8:	40010800 	.word	0x40010800
 80004dc:	20000090 	.word	0x20000090
 80004e0:	40020044 	.word	0x40020044
 80004e4:	200000d4 	.word	0x200000d4
 80004e8:	40020058 	.word	0x40020058

080004ec <NMI_Handler>:
/******************************************************************************/
/**
  * @brief This function handles Non maskable interrupt.
  */
void NMI_Handler(void)
{
 80004ec:	b480      	push	{r7}
 80004ee:	af00      	add	r7, sp, #0

  /* USER CODE END NonMaskableInt_IRQn 0 */
  /* USER CODE BEGIN NonMaskableInt_IRQn 1 */

  /* USER CODE END NonMaskableInt_IRQn 1 */
}
 80004f0:	bf00      	nop
 80004f2:	46bd      	mov	sp, r7
 80004f4:	bc80      	pop	{r7}
 80004f6:	4770      	bx	lr

080004f8 <HardFault_Handler>:

/**
  * @brief This function handles Hard fault interrupt.
  */
void HardFault_Handler(void)
{
 80004f8:	b480      	push	{r7}
 80004fa:	af00      	add	r7, sp, #0
  /* USER CODE BEGIN HardFault_IRQn 0 */

  /* USER CODE END HardFault_IRQn 0 */
  while (1)
 80004fc:	e7fe      	b.n	80004fc <HardFault_Handler+0x4>

080004fe <MemManage_Handler>:

/**
  * @brief This function handles Memory management fault.
  */
void MemManage_Handler(void)
{
 80004fe:	b480      	push	{r7}
 8000500:	af00      	add	r7, sp, #0
  /* USER CODE BEGIN MemoryManagement_IRQn 0 */

  /* USER CODE END MemoryManagement_IRQn 0 */
  while (1)
 8000502:	e7fe      	b.n	8000502 <MemManage_Handler+0x4>

08000504 <BusFault_Handler>:

/**
  * @brief This function handles Prefetch fault, memory access fault.
  */
void BusFault_Handler(void)
{
 8000504:	b480      	push	{r7}
 8000506:	af00      	add	r7, sp, #0
  /* USER CODE BEGIN BusFault_IRQn 0 */

  /* USER CODE END BusFault_IRQn 0 */
  while (1)
 8000508:	e7fe      	b.n	8000508 <BusFault_Handler+0x4>

0800050a <UsageFault_Handler>:

/**
  * @brief This function handles Undefined instruction or illegal state.
  */
void UsageFault_Handler(void)
{
 800050a:	b480      	push	{r7}
 800050c:	af00      	add	r7, sp, #0
  /* USER CODE BEGIN UsageFault_IRQn 0 */

  /* USER CODE END UsageFault_IRQn 0 */
  while (1)
 800050e:	e7fe      	b.n	800050e <UsageFault_Handler+0x4>

08000510 <SVC_Handler>:

/**
  * @brief This function handles System service call via SWI instruction.
  */
void SVC_Handler(void)
{
 8000510:	b480      	push	{r7}
 8000512:	af00      	add	r7, sp, #0

  /* USER CODE END SVCall_IRQn 0 */
  /* USER CODE BEGIN SVCall_IRQn 1 */

  /* USER CODE END SVCall_IRQn 1 */
}
 8000514:	bf00      	nop
 8000516:	46bd      	mov	sp, r7
 8000518:	bc80      	pop	{r7}
 800051a:	4770      	bx	lr

0800051c <DebugMon_Handler>:

/**
  * @brief This function handles Debug monitor.
  */
void DebugMon_Handler(void)
{
 800051c:	b480      	push	{r7}
 800051e:	af00      	add	r7, sp, #0

  /* USER CODE END DebugMonitor_IRQn 0 */
  /* USER CODE BEGIN DebugMonitor_IRQn 1 */

  /* USER CODE END DebugMonitor_IRQn 1 */
}
 8000520:	bf00      	nop
 8000522:	46bd      	mov	sp, r7
 8000524:	bc80      	pop	{r7}
 8000526:	4770      	bx	lr

08000528 <PendSV_Handler>:

/**
  * @brief This function handles Pendable request for system service.
  */
void PendSV_Handler(void)
{
 8000528:	b480      	push	{r7}
 800052a:	af00      	add	r7, sp, #0

  /* USER CODE END PendSV_IRQn 0 */
  /* USER CODE BEGIN PendSV_IRQn 1 */

  /* USER CODE END PendSV_IRQn 1 */
}
 800052c:	bf00      	nop
 800052e:	46bd      	mov	sp, r7
 8000530:	bc80      	pop	{r7}
 8000532:	4770      	bx	lr

08000534 <SysTick_Handler>:

/**
  * @brief This function handles System tick timer.
  */
void SysTick_Handler(void)
{
 8000534:	b580      	push	{r7, lr}
 8000536:	af00      	add	r7, sp, #0
  /* USER CODE BEGIN SysTick_IRQn 0 */
extern uint16_t count1MS;
  /* USER CODE END SysTick_IRQn 0 */
  HAL_IncTick();
 8000538:	f000 f8ce 	bl	80006d8 <HAL_IncTick>
  /* USER CODE BEGIN SysTick_IRQn 1 */
  count1MS++;
 800053c:	4b03      	ldr	r3, [pc, #12]	; (800054c <SysTick_Handler+0x18>)
 800053e:	881b      	ldrh	r3, [r3, #0]
 8000540:	3301      	adds	r3, #1
 8000542:	b29a      	uxth	r2, r3
 8000544:	4b01      	ldr	r3, [pc, #4]	; (800054c <SysTick_Handler+0x18>)
 8000546:	801a      	strh	r2, [r3, #0]
  /* USER CODE END SysTick_IRQn 1 */
}
 8000548:	bf00      	nop
 800054a:	bd80      	pop	{r7, pc}
 800054c:	20000028 	.word	0x20000028

08000550 <DMA1_Channel4_IRQHandler>:

/**
  * @brief This function handles DMA1 channel4 global interrupt.
  */
void DMA1_Channel4_IRQHandler(void)
{
 8000550:	b580      	push	{r7, lr}
 8000552:	af00      	add	r7, sp, #0
  /* USER CODE BEGIN DMA1_Channel4_IRQn 0 */

  /* USER CODE END DMA1_Channel4_IRQn 0 */
  HAL_DMA_IRQHandler(&hdma_usart1_tx);
 8000554:	4802      	ldr	r0, [pc, #8]	; (8000560 <DMA1_Channel4_IRQHandler+0x10>)
 8000556:	f000 fb19 	bl	8000b8c <HAL_DMA_IRQHandler>
  /* USER CODE BEGIN DMA1_Channel4_IRQn 1 */

  /* USER CODE END DMA1_Channel4_IRQn 1 */
}
 800055a:	bf00      	nop
 800055c:	bd80      	pop	{r7, pc}
 800055e:	bf00      	nop
 8000560:	20000090 	.word	0x20000090

08000564 <DMA1_Channel5_IRQHandler>:

/**
  * @brief This function handles DMA1 channel5 global interrupt.
  */
void DMA1_Channel5_IRQHandler(void)
{
 8000564:	b580      	push	{r7, lr}
 8000566:	af00      	add	r7, sp, #0
  /* USER CODE BEGIN DMA1_Channel5_IRQn 0 */

  /* USER CODE END DMA1_Channel5_IRQn 0 */
  HAL_DMA_IRQHandler(&hdma_usart1_rx);
 8000568:	4802      	ldr	r0, [pc, #8]	; (8000574 <DMA1_Channel5_IRQHandler+0x10>)
 800056a:	f000 fb0f 	bl	8000b8c <HAL_DMA_IRQHandler>
  /* USER CODE BEGIN DMA1_Channel5_IRQn 1 */

  /* USER CODE END DMA1_Channel5_IRQn 1 */
}
 800056e:	bf00      	nop
 8000570:	bd80      	pop	{r7, pc}
 8000572:	bf00      	nop
 8000574:	200000d4 	.word	0x200000d4

08000578 <USART1_IRQHandler>:

/**
  * @brief This function handles USART1 global interrupt.
  */
void USART1_IRQHandler(void)
{
 8000578:	b580      	push	{r7, lr}
 800057a:	af00      	add	r7, sp, #0
  /* USER CODE BEGIN USART1_IRQn 0 */

  /* USER CODE END USART1_IRQn 0 */
  HAL_UART_IRQHandler(&huart1);
 800057c:	4802      	ldr	r0, [pc, #8]	; (8000588 <USART1_IRQHandler+0x10>)
 800057e:	f001 fae9 	bl	8001b54 <HAL_UART_IRQHandler>
  /* USER CODE BEGIN USART1_IRQn 1 */

  /* USER CODE END USART1_IRQn 1 */
}
 8000582:	bf00      	nop
 8000584:	bd80      	pop	{r7, pc}
 8000586:	bf00      	nop
 8000588:	20000118 	.word	0x20000118

0800058c <SystemInit>:
  * @note   This function should be used only after reset.
  * @param  None
  * @retval None
  */
void SystemInit (void)
{
 800058c:	b480      	push	{r7}
 800058e:	af00      	add	r7, sp, #0
  /* Reset the RCC clock configuration to the default reset state(for debug purpose) */
  /* Set HSION bit */
  RCC->CR |= 0x00000001U;
 8000590:	4b15      	ldr	r3, [pc, #84]	; (80005e8 <SystemInit+0x5c>)
 8000592:	681b      	ldr	r3, [r3, #0]
 8000594:	4a14      	ldr	r2, [pc, #80]	; (80005e8 <SystemInit+0x5c>)
 8000596:	f043 0301 	orr.w	r3, r3, #1
 800059a:	6013      	str	r3, [r2, #0]

  /* Reset SW, HPRE, PPRE1, PPRE2, ADCPRE and MCO bits */
#if !defined(STM32F105xC) && !defined(STM32F107xC)
  RCC->CFGR &= 0xF8FF0000U;
 800059c:	4b12      	ldr	r3, [pc, #72]	; (80005e8 <SystemInit+0x5c>)
 800059e:	685a      	ldr	r2, [r3, #4]
 80005a0:	4911      	ldr	r1, [pc, #68]	; (80005e8 <SystemInit+0x5c>)
 80005a2:	4b12      	ldr	r3, [pc, #72]	; (80005ec <SystemInit+0x60>)
 80005a4:	4013      	ands	r3, r2
 80005a6:	604b      	str	r3, [r1, #4]
#else
  RCC->CFGR &= 0xF0FF0000U;
#endif /* STM32F105xC */   
  
  /* Reset HSEON, CSSON and PLLON bits */
  RCC->CR &= 0xFEF6FFFFU;
 80005a8:	4b0f      	ldr	r3, [pc, #60]	; (80005e8 <SystemInit+0x5c>)
 80005aa:	681b      	ldr	r3, [r3, #0]
 80005ac:	4a0e      	ldr	r2, [pc, #56]	; (80005e8 <SystemInit+0x5c>)
 80005ae:	f023 7384 	bic.w	r3, r3, #17301504	; 0x1080000
 80005b2:	f423 3380 	bic.w	r3, r3, #65536	; 0x10000
 80005b6:	6013      	str	r3, [r2, #0]

  /* Reset HSEBYP bit */
  RCC->CR &= 0xFFFBFFFFU;
 80005b8:	4b0b      	ldr	r3, [pc, #44]	; (80005e8 <SystemInit+0x5c>)
 80005ba:	681b      	ldr	r3, [r3, #0]
 80005bc:	4a0a      	ldr	r2, [pc, #40]	; (80005e8 <SystemInit+0x5c>)
 80005be:	f423 2380 	bic.w	r3, r3, #262144	; 0x40000
 80005c2:	6013      	str	r3, [r2, #0]

  /* Reset PLLSRC, PLLXTPRE, PLLMUL and USBPRE/OTGFSPRE bits */
  RCC->CFGR &= 0xFF80FFFFU;
 80005c4:	4b08      	ldr	r3, [pc, #32]	; (80005e8 <SystemInit+0x5c>)
 80005c6:	685b      	ldr	r3, [r3, #4]
 80005c8:	4a07      	ldr	r2, [pc, #28]	; (80005e8 <SystemInit+0x5c>)
 80005ca:	f423 03fe 	bic.w	r3, r3, #8323072	; 0x7f0000
 80005ce:	6053      	str	r3, [r2, #4]

  /* Reset CFGR2 register */
  RCC->CFGR2 = 0x00000000U;      
#else
  /* Disable all interrupts and clear pending bits  */
  RCC->CIR = 0x009F0000U;
 80005d0:	4b05      	ldr	r3, [pc, #20]	; (80005e8 <SystemInit+0x5c>)
 80005d2:	f44f 021f 	mov.w	r2, #10420224	; 0x9f0000
 80005d6:	609a      	str	r2, [r3, #8]
#endif 

#ifdef VECT_TAB_SRAM
  SCB->VTOR = SRAM_BASE | VECT_TAB_OFFSET; /* Vector Table Relocation in Internal SRAM. */
#else
  SCB->VTOR = FLASH_BASE | VECT_TAB_OFFSET; /* Vector Table Relocation in Internal FLASH. */
 80005d8:	4b05      	ldr	r3, [pc, #20]	; (80005f0 <SystemInit+0x64>)
 80005da:	f04f 6200 	mov.w	r2, #134217728	; 0x8000000
 80005de:	609a      	str	r2, [r3, #8]
#endif 
}
 80005e0:	bf00      	nop
 80005e2:	46bd      	mov	sp, r7
 80005e4:	bc80      	pop	{r7}
 80005e6:	4770      	bx	lr
 80005e8:	40021000 	.word	0x40021000
 80005ec:	f8ff0000 	.word	0xf8ff0000
 80005f0:	e000ed00 	.word	0xe000ed00

080005f4 <test>:
		.d = 7,
		.e = 7
};

void test(void)
{
 80005f4:	b480      	push	{r7}
 80005f6:	af00      	add	r7, sp, #0
//	a++;
//	b--,c++;
//	c++;
//	c = (a++,b++,b=45);
//	a = c = b = c = a = c=230;
}
 80005f8:	bf00      	nop
 80005fa:	46bd      	mov	sp, r7
 80005fc:	bc80      	pop	{r7}
 80005fe:	4770      	bx	lr

08000600 <Reset_Handler>:
  .weak Reset_Handler
  .type Reset_Handler, %function
Reset_Handler:

/* Copy the data segment initializers from flash to SRAM */
  movs r1, #0
 8000600:	2100      	movs	r1, #0
  b LoopCopyDataInit
 8000602:	e003      	b.n	800060c <LoopCopyDataInit>

08000604 <CopyDataInit>:

CopyDataInit:
  ldr r3, =_sidata
 8000604:	4b0b      	ldr	r3, [pc, #44]	; (8000634 <LoopFillZerobss+0x14>)
  ldr r3, [r3, r1]
 8000606:	585b      	ldr	r3, [r3, r1]
  str r3, [r0, r1]
 8000608:	5043      	str	r3, [r0, r1]
  adds r1, r1, #4
 800060a:	3104      	adds	r1, #4

0800060c <LoopCopyDataInit>:

LoopCopyDataInit:
  ldr r0, =_sdata
 800060c:	480a      	ldr	r0, [pc, #40]	; (8000638 <LoopFillZerobss+0x18>)
  ldr r3, =_edata
 800060e:	4b0b      	ldr	r3, [pc, #44]	; (800063c <LoopFillZerobss+0x1c>)
  adds r2, r0, r1
 8000610:	1842      	adds	r2, r0, r1
  cmp r2, r3
 8000612:	429a      	cmp	r2, r3
  bcc CopyDataInit
 8000614:	d3f6      	bcc.n	8000604 <CopyDataInit>
  ldr r2, =_sbss
 8000616:	4a0a      	ldr	r2, [pc, #40]	; (8000640 <LoopFillZerobss+0x20>)
  b LoopFillZerobss
 8000618:	e002      	b.n	8000620 <LoopFillZerobss>

0800061a <FillZerobss>:
/* Zero fill the bss segment. */
FillZerobss:
  movs r3, #0
 800061a:	2300      	movs	r3, #0
  str r3, [r2], #4
 800061c:	f842 3b04 	str.w	r3, [r2], #4

08000620 <LoopFillZerobss>:

LoopFillZerobss:
  ldr r3, = _ebss
 8000620:	4b08      	ldr	r3, [pc, #32]	; (8000644 <LoopFillZerobss+0x24>)
  cmp r2, r3
 8000622:	429a      	cmp	r2, r3
  bcc FillZerobss
 8000624:	d3f9      	bcc.n	800061a <FillZerobss>

/* Call the clock system intitialization function.*/
    bl  SystemInit
 8000626:	f7ff ffb1 	bl	800058c <SystemInit>
/* Call static constructors */
    bl __libc_init_array
 800062a:	f001 fe8d 	bl	8002348 <__libc_init_array>
/* Call the application's entry point.*/
  bl main
 800062e:	f7ff fd8d 	bl	800014c <main>
  bx lr
 8000632:	4770      	bx	lr
  ldr r3, =_sidata
 8000634:	080023f4 	.word	0x080023f4
  ldr r0, =_sdata
 8000638:	20000000 	.word	0x20000000
  ldr r3, =_edata
 800063c:	2000000c 	.word	0x2000000c
  ldr r2, =_sbss
 8000640:	2000000c 	.word	0x2000000c
  ldr r3, = _ebss
 8000644:	2000015c 	.word	0x2000015c

08000648 <ADC1_2_IRQHandler>:
 * @retval : None
*/
    .section .text.Default_Handler,"ax",%progbits
Default_Handler:
Infinite_Loop:
  b Infinite_Loop
 8000648:	e7fe      	b.n	8000648 <ADC1_2_IRQHandler>
	...

0800064c <HAL_Init>:
  *         need to ensure that the SysTick time base is always set to 1 millisecond
  *         to have correct HAL operation.
  * @retval HAL status
  */
HAL_StatusTypeDef HAL_Init(void)
{
 800064c:	b580      	push	{r7, lr}
 800064e:	af00      	add	r7, sp, #0
    defined(STM32F102x6) || defined(STM32F102xB) || \
    defined(STM32F103x6) || defined(STM32F103xB) || defined(STM32F103xE) || defined(STM32F103xG) || \
    defined(STM32F105xC) || defined(STM32F107xC)

  /* Prefetch buffer is not available on value line devices */
  __HAL_FLASH_PREFETCH_BUFFER_ENABLE();
 8000650:	4b08      	ldr	r3, [pc, #32]	; (8000674 <HAL_Init+0x28>)
 8000652:	681b      	ldr	r3, [r3, #0]
 8000654:	4a07      	ldr	r2, [pc, #28]	; (8000674 <HAL_Init+0x28>)
 8000656:	f043 0310 	orr.w	r3, r3, #16
 800065a:	6013      	str	r3, [r2, #0]
#endif
#endif /* PREFETCH_ENABLE */

  /* Set Interrupt Group Priority */
  HAL_NVIC_SetPriorityGrouping(NVIC_PRIORITYGROUP_4);
 800065c:	2003      	movs	r0, #3
 800065e:	f000 f923 	bl	80008a8 <HAL_NVIC_SetPriorityGrouping>

  /* Use systick as time base source and configure 1ms tick (default clock after Reset is HSI) */
  HAL_InitTick(TICK_INT_PRIORITY);
 8000662:	2000      	movs	r0, #0
 8000664:	f000 f808 	bl	8000678 <HAL_InitTick>

  /* Init the low level hardware */
  HAL_MspInit();
 8000668:	f7ff fe64 	bl	8000334 <HAL_MspInit>

  /* Return function status */
  return HAL_OK;
 800066c:	2300      	movs	r3, #0
}
 800066e:	4618      	mov	r0, r3
 8000670:	bd80      	pop	{r7, pc}
 8000672:	bf00      	nop
 8000674:	40022000 	.word	0x40022000

08000678 <HAL_InitTick>:
  *       implementation  in user file.
  * @param TickPriority Tick interrupt priority.
  * @retval HAL status
  */
__weak HAL_StatusTypeDef HAL_InitTick(uint32_t TickPriority)
{
 8000678:	b580      	push	{r7, lr}
 800067a:	b082      	sub	sp, #8
 800067c:	af00      	add	r7, sp, #0
 800067e:	6078      	str	r0, [r7, #4]
  /* Configure the SysTick to have interrupt in 1ms time basis*/
  if (HAL_SYSTICK_Config(SystemCoreClock / (1000U / uwTickFreq)) > 0U)
 8000680:	4b12      	ldr	r3, [pc, #72]	; (80006cc <HAL_InitTick+0x54>)
 8000682:	681a      	ldr	r2, [r3, #0]
 8000684:	4b12      	ldr	r3, [pc, #72]	; (80006d0 <HAL_InitTick+0x58>)
 8000686:	781b      	ldrb	r3, [r3, #0]
 8000688:	4619      	mov	r1, r3
 800068a:	f44f 737a 	mov.w	r3, #1000	; 0x3e8
 800068e:	fbb3 f3f1 	udiv	r3, r3, r1
 8000692:	fbb2 f3f3 	udiv	r3, r2, r3
 8000696:	4618      	mov	r0, r3
 8000698:	f000 f93b 	bl	8000912 <HAL_SYSTICK_Config>
 800069c:	4603      	mov	r3, r0
 800069e:	2b00      	cmp	r3, #0
 80006a0:	d001      	beq.n	80006a6 <HAL_InitTick+0x2e>
  {
    return HAL_ERROR;
 80006a2:	2301      	movs	r3, #1
 80006a4:	e00e      	b.n	80006c4 <HAL_InitTick+0x4c>
  }

  /* Configure the SysTick IRQ priority */
  if (TickPriority < (1UL << __NVIC_PRIO_BITS))
 80006a6:	687b      	ldr	r3, [r7, #4]
 80006a8:	2b0f      	cmp	r3, #15
 80006aa:	d80a      	bhi.n	80006c2 <HAL_InitTick+0x4a>
  {
    HAL_NVIC_SetPriority(SysTick_IRQn, TickPriority, 0U);
 80006ac:	2200      	movs	r2, #0
 80006ae:	6879      	ldr	r1, [r7, #4]
 80006b0:	f04f 30ff 	mov.w	r0, #4294967295
 80006b4:	f000 f903 	bl	80008be <HAL_NVIC_SetPriority>
    uwTickPrio = TickPriority;
 80006b8:	4a06      	ldr	r2, [pc, #24]	; (80006d4 <HAL_InitTick+0x5c>)
 80006ba:	687b      	ldr	r3, [r7, #4]
 80006bc:	6013      	str	r3, [r2, #0]
  {
    return HAL_ERROR;
  }

  /* Return function status */
  return HAL_OK;
 80006be:	2300      	movs	r3, #0
 80006c0:	e000      	b.n	80006c4 <HAL_InitTick+0x4c>
    return HAL_ERROR;
 80006c2:	2301      	movs	r3, #1
}
 80006c4:	4618      	mov	r0, r3
 80006c6:	3708      	adds	r7, #8
 80006c8:	46bd      	mov	sp, r7
 80006ca:	bd80      	pop	{r7, pc}
 80006cc:	20000000 	.word	0x20000000
 80006d0:	20000008 	.word	0x20000008
 80006d4:	20000004 	.word	0x20000004

080006d8 <HAL_IncTick>:
  * @note This function is declared as __weak to be overwritten in case of other
  *      implementations in user file.
  * @retval None
  */
__weak void HAL_IncTick(void)
{
 80006d8:	b480      	push	{r7}
 80006da:	af00      	add	r7, sp, #0
  uwTick += uwTickFreq;
 80006dc:	4b05      	ldr	r3, [pc, #20]	; (80006f4 <HAL_IncTick+0x1c>)
 80006de:	781b      	ldrb	r3, [r3, #0]
 80006e0:	461a      	mov	r2, r3
 80006e2:	4b05      	ldr	r3, [pc, #20]	; (80006f8 <HAL_IncTick+0x20>)
 80006e4:	681b      	ldr	r3, [r3, #0]
 80006e6:	4413      	add	r3, r2
 80006e8:	4a03      	ldr	r2, [pc, #12]	; (80006f8 <HAL_IncTick+0x20>)
 80006ea:	6013      	str	r3, [r2, #0]
}
 80006ec:	bf00      	nop
 80006ee:	46bd      	mov	sp, r7
 80006f0:	bc80      	pop	{r7}
 80006f2:	4770      	bx	lr
 80006f4:	20000008 	.word	0x20000008
 80006f8:	20000158 	.word	0x20000158

080006fc <HAL_GetTick>:
  * @note  This function is declared as __weak to be overwritten in case of other
  *       implementations in user file.
  * @retval tick value
  */
__weak uint32_t HAL_GetTick(void)
{
 80006fc:	b480      	push	{r7}
 80006fe:	af00      	add	r7, sp, #0
  return uwTick;
 8000700:	4b02      	ldr	r3, [pc, #8]	; (800070c <HAL_GetTick+0x10>)
 8000702:	681b      	ldr	r3, [r3, #0]
}
 8000704:	4618      	mov	r0, r3
 8000706:	46bd      	mov	sp, r7
 8000708:	bc80      	pop	{r7}
 800070a:	4770      	bx	lr
 800070c:	20000158 	.word	0x20000158

08000710 <__NVIC_SetPriorityGrouping>:
           In case of a conflict between priority grouping and available
           priority bits (__NVIC_PRIO_BITS), the smallest possible priority group is set.
  \param [in]      PriorityGroup  Priority grouping field.
 */
__STATIC_INLINE void __NVIC_SetPriorityGrouping(uint32_t PriorityGroup)
{
 8000710:	b480      	push	{r7}
 8000712:	b085      	sub	sp, #20
 8000714:	af00      	add	r7, sp, #0
 8000716:	6078      	str	r0, [r7, #4]
  uint32_t reg_value;
  uint32_t PriorityGroupTmp = (PriorityGroup & (uint32_t)0x07UL);             /* only values 0..7 are used          */
 8000718:	687b      	ldr	r3, [r7, #4]
 800071a:	f003 0307 	and.w	r3, r3, #7
 800071e:	60fb      	str	r3, [r7, #12]

  reg_value  =  SCB->AIRCR;                                                   /* read old register configuration    */
 8000720:	4b0c      	ldr	r3, [pc, #48]	; (8000754 <__NVIC_SetPriorityGrouping+0x44>)
 8000722:	68db      	ldr	r3, [r3, #12]
 8000724:	60bb      	str	r3, [r7, #8]
  reg_value &= ~((uint32_t)(SCB_AIRCR_VECTKEY_Msk | SCB_AIRCR_PRIGROUP_Msk)); /* clear bits to change               */
 8000726:	68ba      	ldr	r2, [r7, #8]
 8000728:	f64f 03ff 	movw	r3, #63743	; 0xf8ff
 800072c:	4013      	ands	r3, r2
 800072e:	60bb      	str	r3, [r7, #8]
  reg_value  =  (reg_value                                   |
                ((uint32_t)0x5FAUL << SCB_AIRCR_VECTKEY_Pos) |
                (PriorityGroupTmp << SCB_AIRCR_PRIGROUP_Pos) );               /* Insert write key and priority group */
 8000730:	68fb      	ldr	r3, [r7, #12]
 8000732:	021a      	lsls	r2, r3, #8
                ((uint32_t)0x5FAUL << SCB_AIRCR_VECTKEY_Pos) |
 8000734:	68bb      	ldr	r3, [r7, #8]
 8000736:	4313      	orrs	r3, r2
  reg_value  =  (reg_value                                   |
 8000738:	f043 63bf 	orr.w	r3, r3, #100139008	; 0x5f80000
 800073c:	f443 3300 	orr.w	r3, r3, #131072	; 0x20000
 8000740:	60bb      	str	r3, [r7, #8]
  SCB->AIRCR =  reg_value;
 8000742:	4a04      	ldr	r2, [pc, #16]	; (8000754 <__NVIC_SetPriorityGrouping+0x44>)
 8000744:	68bb      	ldr	r3, [r7, #8]
 8000746:	60d3      	str	r3, [r2, #12]
}
 8000748:	bf00      	nop
 800074a:	3714      	adds	r7, #20
 800074c:	46bd      	mov	sp, r7
 800074e:	bc80      	pop	{r7}
 8000750:	4770      	bx	lr
 8000752:	bf00      	nop
 8000754:	e000ed00 	.word	0xe000ed00

08000758 <__NVIC_GetPriorityGrouping>:
  \brief   Get Priority Grouping
  \details Reads the priority grouping field from the NVIC Interrupt Controller.
  \return                Priority grouping field (SCB->AIRCR [10:8] PRIGROUP field).
 */
__STATIC_INLINE uint32_t __NVIC_GetPriorityGrouping(void)
{
 8000758:	b480      	push	{r7}
 800075a:	af00      	add	r7, sp, #0
  return ((uint32_t)((SCB->AIRCR & SCB_AIRCR_PRIGROUP_Msk) >> SCB_AIRCR_PRIGROUP_Pos));
 800075c:	4b04      	ldr	r3, [pc, #16]	; (8000770 <__NVIC_GetPriorityGrouping+0x18>)
 800075e:	68db      	ldr	r3, [r3, #12]
 8000760:	0a1b      	lsrs	r3, r3, #8
 8000762:	f003 0307 	and.w	r3, r3, #7
}
 8000766:	4618      	mov	r0, r3
 8000768:	46bd      	mov	sp, r7
 800076a:	bc80      	pop	{r7}
 800076c:	4770      	bx	lr
 800076e:	bf00      	nop
 8000770:	e000ed00 	.word	0xe000ed00

08000774 <__NVIC_EnableIRQ>:
  \details Enables a device specific interrupt in the NVIC interrupt controller.
  \param [in]      IRQn  Device specific interrupt number.
  \note    IRQn must not be negative.
 */
__STATIC_INLINE void __NVIC_EnableIRQ(IRQn_Type IRQn)
{
 8000774:	b480      	push	{r7}
 8000776:	b083      	sub	sp, #12
 8000778:	af00      	add	r7, sp, #0
 800077a:	4603      	mov	r3, r0
 800077c:	71fb      	strb	r3, [r7, #7]
  if ((int32_t)(IRQn) >= 0)
 800077e:	f997 3007 	ldrsb.w	r3, [r7, #7]
 8000782:	2b00      	cmp	r3, #0
 8000784:	db0b      	blt.n	800079e <__NVIC_EnableIRQ+0x2a>
  {
    NVIC->ISER[(((uint32_t)IRQn) >> 5UL)] = (uint32_t)(1UL << (((uint32_t)IRQn) & 0x1FUL));
 8000786:	79fb      	ldrb	r3, [r7, #7]
 8000788:	f003 021f 	and.w	r2, r3, #31
 800078c:	4906      	ldr	r1, [pc, #24]	; (80007a8 <__NVIC_EnableIRQ+0x34>)
 800078e:	f997 3007 	ldrsb.w	r3, [r7, #7]
 8000792:	095b      	lsrs	r3, r3, #5
 8000794:	2001      	movs	r0, #1
 8000796:	fa00 f202 	lsl.w	r2, r0, r2
 800079a:	f841 2023 	str.w	r2, [r1, r3, lsl #2]
  }
}
 800079e:	bf00      	nop
 80007a0:	370c      	adds	r7, #12
 80007a2:	46bd      	mov	sp, r7
 80007a4:	bc80      	pop	{r7}
 80007a6:	4770      	bx	lr
 80007a8:	e000e100 	.word	0xe000e100

080007ac <__NVIC_SetPriority>:
  \param [in]      IRQn  Interrupt number.
  \param [in]  priority  Priority to set.
  \note    The priority cannot be set for every processor exception.
 */
__STATIC_INLINE void __NVIC_SetPriority(IRQn_Type IRQn, uint32_t priority)
{
 80007ac:	b480      	push	{r7}
 80007ae:	b083      	sub	sp, #12
 80007b0:	af00      	add	r7, sp, #0
 80007b2:	4603      	mov	r3, r0
 80007b4:	6039      	str	r1, [r7, #0]
 80007b6:	71fb      	strb	r3, [r7, #7]
  if ((int32_t)(IRQn) >= 0)
 80007b8:	f997 3007 	ldrsb.w	r3, [r7, #7]
 80007bc:	2b00      	cmp	r3, #0
 80007be:	db0a      	blt.n	80007d6 <__NVIC_SetPriority+0x2a>
  {
    NVIC->IP[((uint32_t)IRQn)]               = (uint8_t)((priority << (8U - __NVIC_PRIO_BITS)) & (uint32_t)0xFFUL);
 80007c0:	683b      	ldr	r3, [r7, #0]
 80007c2:	b2da      	uxtb	r2, r3
 80007c4:	490c      	ldr	r1, [pc, #48]	; (80007f8 <__NVIC_SetPriority+0x4c>)
 80007c6:	f997 3007 	ldrsb.w	r3, [r7, #7]
 80007ca:	0112      	lsls	r2, r2, #4
 80007cc:	b2d2      	uxtb	r2, r2
 80007ce:	440b      	add	r3, r1
 80007d0:	f883 2300 	strb.w	r2, [r3, #768]	; 0x300
  }
  else
  {
    SCB->SHP[(((uint32_t)IRQn) & 0xFUL)-4UL] = (uint8_t)((priority << (8U - __NVIC_PRIO_BITS)) & (uint32_t)0xFFUL);
  }
}
 80007d4:	e00a      	b.n	80007ec <__NVIC_SetPriority+0x40>
    SCB->SHP[(((uint32_t)IRQn) & 0xFUL)-4UL] = (uint8_t)((priority << (8U - __NVIC_PRIO_BITS)) & (uint32_t)0xFFUL);
 80007d6:	683b      	ldr	r3, [r7, #0]
 80007d8:	b2da      	uxtb	r2, r3
 80007da:	4908      	ldr	r1, [pc, #32]	; (80007fc <__NVIC_SetPriority+0x50>)
 80007dc:	79fb      	ldrb	r3, [r7, #7]
 80007de:	f003 030f 	and.w	r3, r3, #15
 80007e2:	3b04      	subs	r3, #4
 80007e4:	0112      	lsls	r2, r2, #4
 80007e6:	b2d2      	uxtb	r2, r2
 80007e8:	440b      	add	r3, r1
 80007ea:	761a      	strb	r2, [r3, #24]
}
 80007ec:	bf00      	nop
 80007ee:	370c      	adds	r7, #12
 80007f0:	46bd      	mov	sp, r7
 80007f2:	bc80      	pop	{r7}
 80007f4:	4770      	bx	lr
 80007f6:	bf00      	nop
 80007f8:	e000e100 	.word	0xe000e100
 80007fc:	e000ed00 	.word	0xe000ed00

08000800 <NVIC_EncodePriority>:
  \param [in]   PreemptPriority  Preemptive priority value (starting from 0).
  \param [in]       SubPriority  Subpriority value (starting from 0).
  \return                        Encoded priority. Value can be used in the function \ref NVIC_SetPriority().
 */
__STATIC_INLINE uint32_t NVIC_EncodePriority (uint32_t PriorityGroup, uint32_t PreemptPriority, uint32_t SubPriority)
{
 8000800:	b480      	push	{r7}
 8000802:	b089      	sub	sp, #36	; 0x24
 8000804:	af00      	add	r7, sp, #0
 8000806:	60f8      	str	r0, [r7, #12]
 8000808:	60b9      	str	r1, [r7, #8]
 800080a:	607a      	str	r2, [r7, #4]
  uint32_t PriorityGroupTmp = (PriorityGroup & (uint32_t)0x07UL);   /* only values 0..7 are used          */
 800080c:	68fb      	ldr	r3, [r7, #12]
 800080e:	f003 0307 	and.w	r3, r3, #7
 8000812:	61fb      	str	r3, [r7, #28]
  uint32_t PreemptPriorityBits;
  uint32_t SubPriorityBits;

  PreemptPriorityBits = ((7UL - PriorityGroupTmp) > (uint32_t)(__NVIC_PRIO_BITS)) ? (uint32_t)(__NVIC_PRIO_BITS) : (uint32_t)(7UL - PriorityGroupTmp);
 8000814:	69fb      	ldr	r3, [r7, #28]
 8000816:	f1c3 0307 	rsb	r3, r3, #7
 800081a:	2b04      	cmp	r3, #4
 800081c:	bf28      	it	cs
 800081e:	2304      	movcs	r3, #4
 8000820:	61bb      	str	r3, [r7, #24]
  SubPriorityBits     = ((PriorityGroupTmp + (uint32_t)(__NVIC_PRIO_BITS)) < (uint32_t)7UL) ? (uint32_t)0UL : (uint32_t)((PriorityGroupTmp - 7UL) + (uint32_t)(__NVIC_PRIO_BITS));
 8000822:	69fb      	ldr	r3, [r7, #28]
 8000824:	3304      	adds	r3, #4
 8000826:	2b06      	cmp	r3, #6
 8000828:	d902      	bls.n	8000830 <NVIC_EncodePriority+0x30>
 800082a:	69fb      	ldr	r3, [r7, #28]
 800082c:	3b03      	subs	r3, #3
 800082e:	e000      	b.n	8000832 <NVIC_EncodePriority+0x32>
 8000830:	2300      	movs	r3, #0
 8000832:	617b      	str	r3, [r7, #20]

  return (
           ((PreemptPriority & (uint32_t)((1UL << (PreemptPriorityBits)) - 1UL)) << SubPriorityBits) |
 8000834:	f04f 32ff 	mov.w	r2, #4294967295
 8000838:	69bb      	ldr	r3, [r7, #24]
 800083a:	fa02 f303 	lsl.w	r3, r2, r3
 800083e:	43da      	mvns	r2, r3
 8000840:	68bb      	ldr	r3, [r7, #8]
 8000842:	401a      	ands	r2, r3
 8000844:	697b      	ldr	r3, [r7, #20]
 8000846:	409a      	lsls	r2, r3
           ((SubPriority     & (uint32_t)((1UL << (SubPriorityBits    )) - 1UL)))
 8000848:	f04f 31ff 	mov.w	r1, #4294967295
 800084c:	697b      	ldr	r3, [r7, #20]
 800084e:	fa01 f303 	lsl.w	r3, r1, r3
 8000852:	43d9      	mvns	r1, r3
 8000854:	687b      	ldr	r3, [r7, #4]
 8000856:	400b      	ands	r3, r1
           ((PreemptPriority & (uint32_t)((1UL << (PreemptPriorityBits)) - 1UL)) << SubPriorityBits) |
 8000858:	4313      	orrs	r3, r2
         );
}
 800085a:	4618      	mov	r0, r3
 800085c:	3724      	adds	r7, #36	; 0x24
 800085e:	46bd      	mov	sp, r7
 8000860:	bc80      	pop	{r7}
 8000862:	4770      	bx	lr

08000864 <SysTick_Config>:
  \note    When the variable <b>__Vendor_SysTickConfig</b> is set to 1, then the
           function <b>SysTick_Config</b> is not included. In this case, the file <b><i>device</i>.h</b>
           must contain a vendor-specific implementation of this function.
 */
__STATIC_INLINE uint32_t SysTick_Config(uint32_t ticks)
{
 8000864:	b580      	push	{r7, lr}
 8000866:	b082      	sub	sp, #8
 8000868:	af00      	add	r7, sp, #0
 800086a:	6078      	str	r0, [r7, #4]
  if ((ticks - 1UL) > SysTick_LOAD_RELOAD_Msk)
 800086c:	687b      	ldr	r3, [r7, #4]
 800086e:	3b01      	subs	r3, #1
 8000870:	f1b3 7f80 	cmp.w	r3, #16777216	; 0x1000000
 8000874:	d301      	bcc.n	800087a <SysTick_Config+0x16>
  {
    return (1UL);                                                   /* Reload value impossible */
 8000876:	2301      	movs	r3, #1
 8000878:	e00f      	b.n	800089a <SysTick_Config+0x36>
  }

  SysTick->LOAD  = (uint32_t)(ticks - 1UL);                         /* set reload register */
 800087a:	4a0a      	ldr	r2, [pc, #40]	; (80008a4 <SysTick_Config+0x40>)
 800087c:	687b      	ldr	r3, [r7, #4]
 800087e:	3b01      	subs	r3, #1
 8000880:	6053      	str	r3, [r2, #4]
  NVIC_SetPriority (SysTick_IRQn, (1UL << __NVIC_PRIO_BITS) - 1UL); /* set Priority for Systick Interrupt */
 8000882:	210f      	movs	r1, #15
 8000884:	f04f 30ff 	mov.w	r0, #4294967295
 8000888:	f7ff ff90 	bl	80007ac <__NVIC_SetPriority>
  SysTick->VAL   = 0UL;                                             /* Load the SysTick Counter Value */
 800088c:	4b05      	ldr	r3, [pc, #20]	; (80008a4 <SysTick_Config+0x40>)
 800088e:	2200      	movs	r2, #0
 8000890:	609a      	str	r2, [r3, #8]
  SysTick->CTRL  = SysTick_CTRL_CLKSOURCE_Msk |
 8000892:	4b04      	ldr	r3, [pc, #16]	; (80008a4 <SysTick_Config+0x40>)
 8000894:	2207      	movs	r2, #7
 8000896:	601a      	str	r2, [r3, #0]
                   SysTick_CTRL_TICKINT_Msk   |
                   SysTick_CTRL_ENABLE_Msk;                         /* Enable SysTick IRQ and SysTick Timer */
  return (0UL);                                                     /* Function successful */
 8000898:	2300      	movs	r3, #0
}
 800089a:	4618      	mov	r0, r3
 800089c:	3708      	adds	r7, #8
 800089e:	46bd      	mov	sp, r7
 80008a0:	bd80      	pop	{r7, pc}
 80008a2:	bf00      	nop
 80008a4:	e000e010 	.word	0xe000e010

080008a8 <HAL_NVIC_SetPriorityGrouping>:
  * @note   When the NVIC_PriorityGroup_0 is selected, IRQ preemption is no more possible. 
  *         The pending IRQ priority will be managed only by the subpriority. 
  * @retval None
  */
void HAL_NVIC_SetPriorityGrouping(uint32_t PriorityGroup)
{
 80008a8:	b580      	push	{r7, lr}
 80008aa:	b082      	sub	sp, #8
 80008ac:	af00      	add	r7, sp, #0
 80008ae:	6078      	str	r0, [r7, #4]
  /* Check the parameters */
  assert_param(IS_NVIC_PRIORITY_GROUP(PriorityGroup));
  
  /* Set the PRIGROUP[10:8] bits according to the PriorityGroup parameter value */
  NVIC_SetPriorityGrouping(PriorityGroup);
 80008b0:	6878      	ldr	r0, [r7, #4]
 80008b2:	f7ff ff2d 	bl	8000710 <__NVIC_SetPriorityGrouping>
}
 80008b6:	bf00      	nop
 80008b8:	3708      	adds	r7, #8
 80008ba:	46bd      	mov	sp, r7
 80008bc:	bd80      	pop	{r7, pc}

080008be <HAL_NVIC_SetPriority>:
  *         This parameter can be a value between 0 and 15
  *         A lower priority value indicates a higher priority.          
  * @retval None
  */
void HAL_NVIC_SetPriority(IRQn_Type IRQn, uint32_t PreemptPriority, uint32_t SubPriority)
{ 
 80008be:	b580      	push	{r7, lr}
 80008c0:	b086      	sub	sp, #24
 80008c2:	af00      	add	r7, sp, #0
 80008c4:	4603      	mov	r3, r0
 80008c6:	60b9      	str	r1, [r7, #8]
 80008c8:	607a      	str	r2, [r7, #4]
 80008ca:	73fb      	strb	r3, [r7, #15]
  uint32_t prioritygroup = 0x00U;
 80008cc:	2300      	movs	r3, #0
 80008ce:	617b      	str	r3, [r7, #20]
  
  /* Check the parameters */
  assert_param(IS_NVIC_SUB_PRIORITY(SubPriority));
  assert_param(IS_NVIC_PREEMPTION_PRIORITY(PreemptPriority));
  
  prioritygroup = NVIC_GetPriorityGrouping();
 80008d0:	f7ff ff42 	bl	8000758 <__NVIC_GetPriorityGrouping>
 80008d4:	6178      	str	r0, [r7, #20]
  
  NVIC_SetPriority(IRQn, NVIC_EncodePriority(prioritygroup, PreemptPriority, SubPriority));
 80008d6:	687a      	ldr	r2, [r7, #4]
 80008d8:	68b9      	ldr	r1, [r7, #8]
 80008da:	6978      	ldr	r0, [r7, #20]
 80008dc:	f7ff ff90 	bl	8000800 <NVIC_EncodePriority>
 80008e0:	4602      	mov	r2, r0
 80008e2:	f997 300f 	ldrsb.w	r3, [r7, #15]
 80008e6:	4611      	mov	r1, r2
 80008e8:	4618      	mov	r0, r3
 80008ea:	f7ff ff5f 	bl	80007ac <__NVIC_SetPriority>
}
 80008ee:	bf00      	nop
 80008f0:	3718      	adds	r7, #24
 80008f2:	46bd      	mov	sp, r7
 80008f4:	bd80      	pop	{r7, pc}

080008f6 <HAL_NVIC_EnableIRQ>:
  *         This parameter can be an enumerator of IRQn_Type enumeration
  *         (For the complete STM32 Devices IRQ Channels list, please refer to the appropriate CMSIS device file (stm32f10xxx.h))
  * @retval None
  */
void HAL_NVIC_EnableIRQ(IRQn_Type IRQn)
{
 80008f6:	b580      	push	{r7, lr}
 80008f8:	b082      	sub	sp, #8
 80008fa:	af00      	add	r7, sp, #0
 80008fc:	4603      	mov	r3, r0
 80008fe:	71fb      	strb	r3, [r7, #7]
  /* Check the parameters */
  assert_param(IS_NVIC_DEVICE_IRQ(IRQn));

  /* Enable interrupt */
  NVIC_EnableIRQ(IRQn);
 8000900:	f997 3007 	ldrsb.w	r3, [r7, #7]
 8000904:	4618      	mov	r0, r3
 8000906:	f7ff ff35 	bl	8000774 <__NVIC_EnableIRQ>
}
 800090a:	bf00      	nop
 800090c:	3708      	adds	r7, #8
 800090e:	46bd      	mov	sp, r7
 8000910:	bd80      	pop	{r7, pc}

08000912 <HAL_SYSTICK_Config>:
  * @param  TicksNumb: Specifies the ticks Number of ticks between two interrupts.
  * @retval status:  - 0  Function succeeded.
  *                  - 1  Function failed.
  */
uint32_t HAL_SYSTICK_Config(uint32_t TicksNumb)
{
 8000912:	b580      	push	{r7, lr}
 8000914:	b082      	sub	sp, #8
 8000916:	af00      	add	r7, sp, #0
 8000918:	6078      	str	r0, [r7, #4]
   return SysTick_Config(TicksNumb);
 800091a:	6878      	ldr	r0, [r7, #4]
 800091c:	f7ff ffa2 	bl	8000864 <SysTick_Config>
 8000920:	4603      	mov	r3, r0
}
 8000922:	4618      	mov	r0, r3
 8000924:	3708      	adds	r7, #8
 8000926:	46bd      	mov	sp, r7
 8000928:	bd80      	pop	{r7, pc}
	...

0800092c <HAL_DMA_Init>:
  * @param  hdma: Pointer to a DMA_HandleTypeDef structure that contains
  *               the configuration information for the specified DMA Channel.
  * @retval HAL status
  */
HAL_StatusTypeDef HAL_DMA_Init(DMA_HandleTypeDef *hdma)
{
 800092c:	b480      	push	{r7}
 800092e:	b085      	sub	sp, #20
 8000930:	af00      	add	r7, sp, #0
 8000932:	6078      	str	r0, [r7, #4]
  uint32_t tmp = 0U;
 8000934:	2300      	movs	r3, #0
 8000936:	60fb      	str	r3, [r7, #12]

  /* Check the DMA handle allocation */
  if(hdma == NULL)
 8000938:	687b      	ldr	r3, [r7, #4]
 800093a:	2b00      	cmp	r3, #0
 800093c:	d101      	bne.n	8000942 <HAL_DMA_Init+0x16>
  {
    return HAL_ERROR;
 800093e:	2301      	movs	r3, #1
 8000940:	e043      	b.n	80009ca <HAL_DMA_Init+0x9e>
    hdma->ChannelIndex = (((uint32_t)hdma->Instance - (uint32_t)DMA2_Channel1) / ((uint32_t)DMA2_Channel2 - (uint32_t)DMA2_Channel1)) << 2;
    hdma->DmaBaseAddress = DMA2;
  }
#else
  /* DMA1 */
  hdma->ChannelIndex = (((uint32_t)hdma->Instance - (uint32_t)DMA1_Channel1) / ((uint32_t)DMA1_Channel2 - (uint32_t)DMA1_Channel1)) << 2;
 8000942:	687b      	ldr	r3, [r7, #4]
 8000944:	681b      	ldr	r3, [r3, #0]
 8000946:	461a      	mov	r2, r3
 8000948:	4b22      	ldr	r3, [pc, #136]	; (80009d4 <HAL_DMA_Init+0xa8>)
 800094a:	4413      	add	r3, r2
 800094c:	4a22      	ldr	r2, [pc, #136]	; (80009d8 <HAL_DMA_Init+0xac>)
 800094e:	fba2 2303 	umull	r2, r3, r2, r3
 8000952:	091b      	lsrs	r3, r3, #4
 8000954:	009a      	lsls	r2, r3, #2
 8000956:	687b      	ldr	r3, [r7, #4]
 8000958:	641a      	str	r2, [r3, #64]	; 0x40
  hdma->DmaBaseAddress = DMA1;
 800095a:	687b      	ldr	r3, [r7, #4]
 800095c:	4a1f      	ldr	r2, [pc, #124]	; (80009dc <HAL_DMA_Init+0xb0>)
 800095e:	63da      	str	r2, [r3, #60]	; 0x3c
#endif /* DMA2 */

  /* Change DMA peripheral state */
  hdma->State = HAL_DMA_STATE_BUSY;
 8000960:	687b      	ldr	r3, [r7, #4]
 8000962:	2202      	movs	r2, #2
 8000964:	f883 2021 	strb.w	r2, [r3, #33]	; 0x21

  /* Get the CR register value */
  tmp = hdma->Instance->CCR;
 8000968:	687b      	ldr	r3, [r7, #4]
 800096a:	681b      	ldr	r3, [r3, #0]
 800096c:	681b      	ldr	r3, [r3, #0]
 800096e:	60fb      	str	r3, [r7, #12]

  /* Clear PL, MSIZE, PSIZE, MINC, PINC, CIRC and DIR bits */
  tmp &= ((uint32_t)~(DMA_CCR_PL    | DMA_CCR_MSIZE  | DMA_CCR_PSIZE  | \
 8000970:	68fb      	ldr	r3, [r7, #12]
 8000972:	f423 537f 	bic.w	r3, r3, #16320	; 0x3fc0
 8000976:	f023 0330 	bic.w	r3, r3, #48	; 0x30
 800097a:	60fb      	str	r3, [r7, #12]
                      DMA_CCR_MINC  | DMA_CCR_PINC   | DMA_CCR_CIRC   | \
                      DMA_CCR_DIR));

  /* Prepare the DMA Channel configuration */
  tmp |=  hdma->Init.Direction        |
 800097c:	687b      	ldr	r3, [r7, #4]
 800097e:	685a      	ldr	r2, [r3, #4]
          hdma->Init.PeriphInc           | hdma->Init.MemInc           |
 8000980:	687b      	ldr	r3, [r7, #4]
 8000982:	689b      	ldr	r3, [r3, #8]
  tmp |=  hdma->Init.Direction        |
 8000984:	431a      	orrs	r2, r3
          hdma->Init.PeriphInc           | hdma->Init.MemInc           |
 8000986:	687b      	ldr	r3, [r7, #4]
 8000988:	68db      	ldr	r3, [r3, #12]
 800098a:	431a      	orrs	r2, r3
          hdma->Init.PeriphDataAlignment | hdma->Init.MemDataAlignment |
 800098c:	687b      	ldr	r3, [r7, #4]
 800098e:	691b      	ldr	r3, [r3, #16]
          hdma->Init.PeriphInc           | hdma->Init.MemInc           |
 8000990:	431a      	orrs	r2, r3
          hdma->Init.PeriphDataAlignment | hdma->Init.MemDataAlignment |
 8000992:	687b      	ldr	r3, [r7, #4]
 8000994:	695b      	ldr	r3, [r3, #20]
 8000996:	431a      	orrs	r2, r3
          hdma->Init.Mode                | hdma->Init.Priority;
 8000998:	687b      	ldr	r3, [r7, #4]
 800099a:	699b      	ldr	r3, [r3, #24]
          hdma->Init.PeriphDataAlignment | hdma->Init.MemDataAlignment |
 800099c:	431a      	orrs	r2, r3
          hdma->Init.Mode                | hdma->Init.Priority;
 800099e:	687b      	ldr	r3, [r7, #4]
 80009a0:	69db      	ldr	r3, [r3, #28]
 80009a2:	4313      	orrs	r3, r2
  tmp |=  hdma->Init.Direction        |
 80009a4:	68fa      	ldr	r2, [r7, #12]
 80009a6:	4313      	orrs	r3, r2
 80009a8:	60fb      	str	r3, [r7, #12]

  /* Write to DMA Channel CR register */
  hdma->Instance->CCR = tmp;
 80009aa:	687b      	ldr	r3, [r7, #4]
 80009ac:	681b      	ldr	r3, [r3, #0]
 80009ae:	68fa      	ldr	r2, [r7, #12]
 80009b0:	601a      	str	r2, [r3, #0]

  /* Initialise the error code */
  hdma->ErrorCode = HAL_DMA_ERROR_NONE;
 80009b2:	687b      	ldr	r3, [r7, #4]
 80009b4:	2200      	movs	r2, #0
 80009b6:	639a      	str	r2, [r3, #56]	; 0x38

  /* Initialize the DMA state*/
  hdma->State = HAL_DMA_STATE_READY;
 80009b8:	687b      	ldr	r3, [r7, #4]
 80009ba:	2201      	movs	r2, #1
 80009bc:	f883 2021 	strb.w	r2, [r3, #33]	; 0x21
  /* Allocate lock resource and initialize it */
  hdma->Lock = HAL_UNLOCKED;
 80009c0:	687b      	ldr	r3, [r7, #4]
 80009c2:	2200      	movs	r2, #0
 80009c4:	f883 2020 	strb.w	r2, [r3, #32]

  return HAL_OK;
 80009c8:	2300      	movs	r3, #0
}
 80009ca:	4618      	mov	r0, r3
 80009cc:	3714      	adds	r7, #20
 80009ce:	46bd      	mov	sp, r7
 80009d0:	bc80      	pop	{r7}
 80009d2:	4770      	bx	lr
 80009d4:	bffdfff8 	.word	0xbffdfff8
 80009d8:	cccccccd 	.word	0xcccccccd
 80009dc:	40020000 	.word	0x40020000

080009e0 <HAL_DMA_Start_IT>:
  * @param  DstAddress: The destination memory Buffer address
  * @param  DataLength: The length of data to be transferred from source to destination
  * @retval HAL status
  */
HAL_StatusTypeDef HAL_DMA_Start_IT(DMA_HandleTypeDef *hdma, uint32_t SrcAddress, uint32_t DstAddress, uint32_t DataLength)
{
 80009e0:	b580      	push	{r7, lr}
 80009e2:	b086      	sub	sp, #24
 80009e4:	af00      	add	r7, sp, #0
 80009e6:	60f8      	str	r0, [r7, #12]
 80009e8:	60b9      	str	r1, [r7, #8]
 80009ea:	607a      	str	r2, [r7, #4]
 80009ec:	603b      	str	r3, [r7, #0]
  HAL_StatusTypeDef status = HAL_OK;
 80009ee:	2300      	movs	r3, #0
 80009f0:	75fb      	strb	r3, [r7, #23]

  /* Check the parameters */
  assert_param(IS_DMA_BUFFER_SIZE(DataLength));

  /* Process locked */
  __HAL_LOCK(hdma);
 80009f2:	68fb      	ldr	r3, [r7, #12]
 80009f4:	f893 3020 	ldrb.w	r3, [r3, #32]
 80009f8:	2b01      	cmp	r3, #1
 80009fa:	d101      	bne.n	8000a00 <HAL_DMA_Start_IT+0x20>
 80009fc:	2302      	movs	r3, #2
 80009fe:	e04a      	b.n	8000a96 <HAL_DMA_Start_IT+0xb6>
 8000a00:	68fb      	ldr	r3, [r7, #12]
 8000a02:	2201      	movs	r2, #1
 8000a04:	f883 2020 	strb.w	r2, [r3, #32]
  
  if(HAL_DMA_STATE_READY == hdma->State)
 8000a08:	68fb      	ldr	r3, [r7, #12]
 8000a0a:	f893 3021 	ldrb.w	r3, [r3, #33]	; 0x21
 8000a0e:	2b01      	cmp	r3, #1
 8000a10:	d13a      	bne.n	8000a88 <HAL_DMA_Start_IT+0xa8>
  {
    /* Change DMA peripheral state */
    hdma->State = HAL_DMA_STATE_BUSY;
 8000a12:	68fb      	ldr	r3, [r7, #12]
 8000a14:	2202      	movs	r2, #2
 8000a16:	f883 2021 	strb.w	r2, [r3, #33]	; 0x21
    hdma->ErrorCode = HAL_DMA_ERROR_NONE;
 8000a1a:	68fb      	ldr	r3, [r7, #12]
 8000a1c:	2200      	movs	r2, #0
 8000a1e:	639a      	str	r2, [r3, #56]	; 0x38
    
    /* Disable the peripheral */
    __HAL_DMA_DISABLE(hdma);
 8000a20:	68fb      	ldr	r3, [r7, #12]
 8000a22:	681b      	ldr	r3, [r3, #0]
 8000a24:	681a      	ldr	r2, [r3, #0]
 8000a26:	68fb      	ldr	r3, [r7, #12]
 8000a28:	681b      	ldr	r3, [r3, #0]
 8000a2a:	f022 0201 	bic.w	r2, r2, #1
 8000a2e:	601a      	str	r2, [r3, #0]
    
    /* Configure the source, destination address and the data length & clear flags*/
    DMA_SetConfig(hdma, SrcAddress, DstAddress, DataLength);
 8000a30:	683b      	ldr	r3, [r7, #0]
 8000a32:	687a      	ldr	r2, [r7, #4]
 8000a34:	68b9      	ldr	r1, [r7, #8]
 8000a36:	68f8      	ldr	r0, [r7, #12]
 8000a38:	f000 f9ae 	bl	8000d98 <DMA_SetConfig>
    
    /* Enable the transfer complete interrupt */
    /* Enable the transfer Error interrupt */
    if(NULL != hdma->XferHalfCpltCallback)
 8000a3c:	68fb      	ldr	r3, [r7, #12]
 8000a3e:	6adb      	ldr	r3, [r3, #44]	; 0x2c
 8000a40:	2b00      	cmp	r3, #0
 8000a42:	d008      	beq.n	8000a56 <HAL_DMA_Start_IT+0x76>
    {
      /* Enable the Half transfer complete interrupt as well */
      __HAL_DMA_ENABLE_IT(hdma, (DMA_IT_TC | DMA_IT_HT | DMA_IT_TE));
 8000a44:	68fb      	ldr	r3, [r7, #12]
 8000a46:	681b      	ldr	r3, [r3, #0]
 8000a48:	681a      	ldr	r2, [r3, #0]
 8000a4a:	68fb      	ldr	r3, [r7, #12]
 8000a4c:	681b      	ldr	r3, [r3, #0]
 8000a4e:	f042 020e 	orr.w	r2, r2, #14
 8000a52:	601a      	str	r2, [r3, #0]
 8000a54:	e00f      	b.n	8000a76 <HAL_DMA_Start_IT+0x96>
    }
    else
    {
      __HAL_DMA_DISABLE_IT(hdma, DMA_IT_HT);
 8000a56:	68fb      	ldr	r3, [r7, #12]
 8000a58:	681b      	ldr	r3, [r3, #0]
 8000a5a:	681a      	ldr	r2, [r3, #0]
 8000a5c:	68fb      	ldr	r3, [r7, #12]
 8000a5e:	681b      	ldr	r3, [r3, #0]
 8000a60:	f022 0204 	bic.w	r2, r2, #4
 8000a64:	601a      	str	r2, [r3, #0]
      __HAL_DMA_ENABLE_IT(hdma, (DMA_IT_TC | DMA_IT_TE));
 8000a66:	68fb      	ldr	r3, [r7, #12]
 8000a68:	681b      	ldr	r3, [r3, #0]
 8000a6a:	681a      	ldr	r2, [r3, #0]
 8000a6c:	68fb      	ldr	r3, [r7, #12]
 8000a6e:	681b      	ldr	r3, [r3, #0]
 8000a70:	f042 020a 	orr.w	r2, r2, #10
 8000a74:	601a      	str	r2, [r3, #0]
    }
    /* Enable the Peripheral */
    __HAL_DMA_ENABLE(hdma);
 8000a76:	68fb      	ldr	r3, [r7, #12]
 8000a78:	681b      	ldr	r3, [r3, #0]
 8000a7a:	681a      	ldr	r2, [r3, #0]
 8000a7c:	68fb      	ldr	r3, [r7, #12]
 8000a7e:	681b      	ldr	r3, [r3, #0]
 8000a80:	f042 0201 	orr.w	r2, r2, #1
 8000a84:	601a      	str	r2, [r3, #0]
 8000a86:	e005      	b.n	8000a94 <HAL_DMA_Start_IT+0xb4>
  }
  else
  {      
    /* Process Unlocked */
    __HAL_UNLOCK(hdma); 
 8000a88:	68fb      	ldr	r3, [r7, #12]
 8000a8a:	2200      	movs	r2, #0
 8000a8c:	f883 2020 	strb.w	r2, [r3, #32]

    /* Remain BUSY */
    status = HAL_BUSY;
 8000a90:	2302      	movs	r3, #2
 8000a92:	75fb      	strb	r3, [r7, #23]
  }    
  return status;
 8000a94:	7dfb      	ldrb	r3, [r7, #23]
}
 8000a96:	4618      	mov	r0, r3
 8000a98:	3718      	adds	r7, #24
 8000a9a:	46bd      	mov	sp, r7
 8000a9c:	bd80      	pop	{r7, pc}
	...

08000aa0 <HAL_DMA_Abort_IT>:
  * @param  hdma  : pointer to a DMA_HandleTypeDef structure that contains
  *                 the configuration information for the specified DMA Channel.
  * @retval HAL status
  */
HAL_StatusTypeDef HAL_DMA_Abort_IT(DMA_HandleTypeDef *hdma)
{  
 8000aa0:	b580      	push	{r7, lr}
 8000aa2:	b084      	sub	sp, #16
 8000aa4:	af00      	add	r7, sp, #0
 8000aa6:	6078      	str	r0, [r7, #4]
  HAL_StatusTypeDef status = HAL_OK;
 8000aa8:	2300      	movs	r3, #0
 8000aaa:	73fb      	strb	r3, [r7, #15]
  
  if(HAL_DMA_STATE_BUSY != hdma->State)
 8000aac:	687b      	ldr	r3, [r7, #4]
 8000aae:	f893 3021 	ldrb.w	r3, [r3, #33]	; 0x21
 8000ab2:	2b02      	cmp	r3, #2
 8000ab4:	d005      	beq.n	8000ac2 <HAL_DMA_Abort_IT+0x22>
  {
    /* no transfer ongoing */
    hdma->ErrorCode = HAL_DMA_ERROR_NO_XFER;
 8000ab6:	687b      	ldr	r3, [r7, #4]
 8000ab8:	2204      	movs	r2, #4
 8000aba:	639a      	str	r2, [r3, #56]	; 0x38
        
    status = HAL_ERROR;
 8000abc:	2301      	movs	r3, #1
 8000abe:	73fb      	strb	r3, [r7, #15]
 8000ac0:	e051      	b.n	8000b66 <HAL_DMA_Abort_IT+0xc6>
  }
  else
  { 
    /* Disable DMA IT */
    __HAL_DMA_DISABLE_IT(hdma, (DMA_IT_TC | DMA_IT_HT | DMA_IT_TE));
 8000ac2:	687b      	ldr	r3, [r7, #4]
 8000ac4:	681b      	ldr	r3, [r3, #0]
 8000ac6:	681a      	ldr	r2, [r3, #0]
 8000ac8:	687b      	ldr	r3, [r7, #4]
 8000aca:	681b      	ldr	r3, [r3, #0]
 8000acc:	f022 020e 	bic.w	r2, r2, #14
 8000ad0:	601a      	str	r2, [r3, #0]

    /* Disable the channel */
    __HAL_DMA_DISABLE(hdma);
 8000ad2:	687b      	ldr	r3, [r7, #4]
 8000ad4:	681b      	ldr	r3, [r3, #0]
 8000ad6:	681a      	ldr	r2, [r3, #0]
 8000ad8:	687b      	ldr	r3, [r7, #4]
 8000ada:	681b      	ldr	r3, [r3, #0]
 8000adc:	f022 0201 	bic.w	r2, r2, #1
 8000ae0:	601a      	str	r2, [r3, #0]

    /* Clear all flags */
    __HAL_DMA_CLEAR_FLAG(hdma, __HAL_DMA_GET_GI_FLAG_INDEX(hdma));
 8000ae2:	687b      	ldr	r3, [r7, #4]
 8000ae4:	681b      	ldr	r3, [r3, #0]
 8000ae6:	4a22      	ldr	r2, [pc, #136]	; (8000b70 <HAL_DMA_Abort_IT+0xd0>)
 8000ae8:	4293      	cmp	r3, r2
 8000aea:	d029      	beq.n	8000b40 <HAL_DMA_Abort_IT+0xa0>
 8000aec:	687b      	ldr	r3, [r7, #4]
 8000aee:	681b      	ldr	r3, [r3, #0]
 8000af0:	4a20      	ldr	r2, [pc, #128]	; (8000b74 <HAL_DMA_Abort_IT+0xd4>)
 8000af2:	4293      	cmp	r3, r2
 8000af4:	d022      	beq.n	8000b3c <HAL_DMA_Abort_IT+0x9c>
 8000af6:	687b      	ldr	r3, [r7, #4]
 8000af8:	681b      	ldr	r3, [r3, #0]
 8000afa:	4a1f      	ldr	r2, [pc, #124]	; (8000b78 <HAL_DMA_Abort_IT+0xd8>)
 8000afc:	4293      	cmp	r3, r2
 8000afe:	d01a      	beq.n	8000b36 <HAL_DMA_Abort_IT+0x96>
 8000b00:	687b      	ldr	r3, [r7, #4]
 8000b02:	681b      	ldr	r3, [r3, #0]
 8000b04:	4a1d      	ldr	r2, [pc, #116]	; (8000b7c <HAL_DMA_Abort_IT+0xdc>)
 8000b06:	4293      	cmp	r3, r2
 8000b08:	d012      	beq.n	8000b30 <HAL_DMA_Abort_IT+0x90>
 8000b0a:	687b      	ldr	r3, [r7, #4]
 8000b0c:	681b      	ldr	r3, [r3, #0]
 8000b0e:	4a1c      	ldr	r2, [pc, #112]	; (8000b80 <HAL_DMA_Abort_IT+0xe0>)
 8000b10:	4293      	cmp	r3, r2
 8000b12:	d00a      	beq.n	8000b2a <HAL_DMA_Abort_IT+0x8a>
 8000b14:	687b      	ldr	r3, [r7, #4]
 8000b16:	681b      	ldr	r3, [r3, #0]
 8000b18:	4a1a      	ldr	r2, [pc, #104]	; (8000b84 <HAL_DMA_Abort_IT+0xe4>)
 8000b1a:	4293      	cmp	r3, r2
 8000b1c:	d102      	bne.n	8000b24 <HAL_DMA_Abort_IT+0x84>
 8000b1e:	f44f 1380 	mov.w	r3, #1048576	; 0x100000
 8000b22:	e00e      	b.n	8000b42 <HAL_DMA_Abort_IT+0xa2>
 8000b24:	f04f 7380 	mov.w	r3, #16777216	; 0x1000000
 8000b28:	e00b      	b.n	8000b42 <HAL_DMA_Abort_IT+0xa2>
 8000b2a:	f44f 3380 	mov.w	r3, #65536	; 0x10000
 8000b2e:	e008      	b.n	8000b42 <HAL_DMA_Abort_IT+0xa2>
 8000b30:	f44f 5380 	mov.w	r3, #4096	; 0x1000
 8000b34:	e005      	b.n	8000b42 <HAL_DMA_Abort_IT+0xa2>
 8000b36:	f44f 7380 	mov.w	r3, #256	; 0x100
 8000b3a:	e002      	b.n	8000b42 <HAL_DMA_Abort_IT+0xa2>
 8000b3c:	2310      	movs	r3, #16
 8000b3e:	e000      	b.n	8000b42 <HAL_DMA_Abort_IT+0xa2>
 8000b40:	2301      	movs	r3, #1
 8000b42:	4a11      	ldr	r2, [pc, #68]	; (8000b88 <HAL_DMA_Abort_IT+0xe8>)
 8000b44:	6053      	str	r3, [r2, #4]

    /* Change the DMA state */
    hdma->State = HAL_DMA_STATE_READY;
 8000b46:	687b      	ldr	r3, [r7, #4]
 8000b48:	2201      	movs	r2, #1
 8000b4a:	f883 2021 	strb.w	r2, [r3, #33]	; 0x21

    /* Process Unlocked */
    __HAL_UNLOCK(hdma);
 8000b4e:	687b      	ldr	r3, [r7, #4]
 8000b50:	2200      	movs	r2, #0
 8000b52:	f883 2020 	strb.w	r2, [r3, #32]

    /* Call User Abort callback */
    if(hdma->XferAbortCallback != NULL)
 8000b56:	687b      	ldr	r3, [r7, #4]
 8000b58:	6b5b      	ldr	r3, [r3, #52]	; 0x34
 8000b5a:	2b00      	cmp	r3, #0
 8000b5c:	d003      	beq.n	8000b66 <HAL_DMA_Abort_IT+0xc6>
    {
      hdma->XferAbortCallback(hdma);
 8000b5e:	687b      	ldr	r3, [r7, #4]
 8000b60:	6b5b      	ldr	r3, [r3, #52]	; 0x34
 8000b62:	6878      	ldr	r0, [r7, #4]
 8000b64:	4798      	blx	r3
    } 
  }
  return status;
 8000b66:	7bfb      	ldrb	r3, [r7, #15]
}
 8000b68:	4618      	mov	r0, r3
 8000b6a:	3710      	adds	r7, #16
 8000b6c:	46bd      	mov	sp, r7
 8000b6e:	bd80      	pop	{r7, pc}
 8000b70:	40020008 	.word	0x40020008
 8000b74:	4002001c 	.word	0x4002001c
 8000b78:	40020030 	.word	0x40020030
 8000b7c:	40020044 	.word	0x40020044
 8000b80:	40020058 	.word	0x40020058
 8000b84:	4002006c 	.word	0x4002006c
 8000b88:	40020000 	.word	0x40020000

08000b8c <HAL_DMA_IRQHandler>:
  * @param  hdma: pointer to a DMA_HandleTypeDef structure that contains
  *               the configuration information for the specified DMA Channel.  
  * @retval None
  */
void HAL_DMA_IRQHandler(DMA_HandleTypeDef *hdma)
{
 8000b8c:	b580      	push	{r7, lr}
 8000b8e:	b084      	sub	sp, #16
 8000b90:	af00      	add	r7, sp, #0
 8000b92:	6078      	str	r0, [r7, #4]
  uint32_t flag_it = hdma->DmaBaseAddress->ISR;
 8000b94:	687b      	ldr	r3, [r7, #4]
 8000b96:	6bdb      	ldr	r3, [r3, #60]	; 0x3c
 8000b98:	681b      	ldr	r3, [r3, #0]
 8000b9a:	60fb      	str	r3, [r7, #12]
  uint32_t source_it = hdma->Instance->CCR;
 8000b9c:	687b      	ldr	r3, [r7, #4]
 8000b9e:	681b      	ldr	r3, [r3, #0]
 8000ba0:	681b      	ldr	r3, [r3, #0]
 8000ba2:	60bb      	str	r3, [r7, #8]
  
  /* Half Transfer Complete Interrupt management ******************************/
  if (((flag_it & (DMA_FLAG_HT1 << hdma->ChannelIndex)) != RESET) && ((source_it & DMA_IT_HT) != RESET))
 8000ba4:	687b      	ldr	r3, [r7, #4]
 8000ba6:	6c1b      	ldr	r3, [r3, #64]	; 0x40
 8000ba8:	2204      	movs	r2, #4
 8000baa:	409a      	lsls	r2, r3
 8000bac:	68fb      	ldr	r3, [r7, #12]
 8000bae:	4013      	ands	r3, r2
 8000bb0:	2b00      	cmp	r3, #0
 8000bb2:	d04f      	beq.n	8000c54 <HAL_DMA_IRQHandler+0xc8>
 8000bb4:	68bb      	ldr	r3, [r7, #8]
 8000bb6:	f003 0304 	and.w	r3, r3, #4
 8000bba:	2b00      	cmp	r3, #0
 8000bbc:	d04a      	beq.n	8000c54 <HAL_DMA_IRQHandler+0xc8>
  {
    /* Disable the half transfer interrupt if the DMA mode is not CIRCULAR */
    if((hdma->Instance->CCR & DMA_CCR_CIRC) == 0U)
 8000bbe:	687b      	ldr	r3, [r7, #4]
 8000bc0:	681b      	ldr	r3, [r3, #0]
 8000bc2:	681b      	ldr	r3, [r3, #0]
 8000bc4:	f003 0320 	and.w	r3, r3, #32
 8000bc8:	2b00      	cmp	r3, #0
 8000bca:	d107      	bne.n	8000bdc <HAL_DMA_IRQHandler+0x50>
    {
      /* Disable the half transfer interrupt */
      __HAL_DMA_DISABLE_IT(hdma, DMA_IT_HT);
 8000bcc:	687b      	ldr	r3, [r7, #4]
 8000bce:	681b      	ldr	r3, [r3, #0]
 8000bd0:	681a      	ldr	r2, [r3, #0]
 8000bd2:	687b      	ldr	r3, [r7, #4]
 8000bd4:	681b      	ldr	r3, [r3, #0]
 8000bd6:	f022 0204 	bic.w	r2, r2, #4
 8000bda:	601a      	str	r2, [r3, #0]
    }
    /* Clear the half transfer complete flag */
    __HAL_DMA_CLEAR_FLAG(hdma, __HAL_DMA_GET_HT_FLAG_INDEX(hdma));
 8000bdc:	687b      	ldr	r3, [r7, #4]
 8000bde:	681b      	ldr	r3, [r3, #0]
 8000be0:	4a66      	ldr	r2, [pc, #408]	; (8000d7c <HAL_DMA_IRQHandler+0x1f0>)
 8000be2:	4293      	cmp	r3, r2
 8000be4:	d029      	beq.n	8000c3a <HAL_DMA_IRQHandler+0xae>
 8000be6:	687b      	ldr	r3, [r7, #4]
 8000be8:	681b      	ldr	r3, [r3, #0]
 8000bea:	4a65      	ldr	r2, [pc, #404]	; (8000d80 <HAL_DMA_IRQHandler+0x1f4>)
 8000bec:	4293      	cmp	r3, r2
 8000bee:	d022      	beq.n	8000c36 <HAL_DMA_IRQHandler+0xaa>
 8000bf0:	687b      	ldr	r3, [r7, #4]
 8000bf2:	681b      	ldr	r3, [r3, #0]
 8000bf4:	4a63      	ldr	r2, [pc, #396]	; (8000d84 <HAL_DMA_IRQHandler+0x1f8>)
 8000bf6:	4293      	cmp	r3, r2
 8000bf8:	d01a      	beq.n	8000c30 <HAL_DMA_IRQHandler+0xa4>
 8000bfa:	687b      	ldr	r3, [r7, #4]
 8000bfc:	681b      	ldr	r3, [r3, #0]
 8000bfe:	4a62      	ldr	r2, [pc, #392]	; (8000d88 <HAL_DMA_IRQHandler+0x1fc>)
 8000c00:	4293      	cmp	r3, r2
 8000c02:	d012      	beq.n	8000c2a <HAL_DMA_IRQHandler+0x9e>
 8000c04:	687b      	ldr	r3, [r7, #4]
 8000c06:	681b      	ldr	r3, [r3, #0]
 8000c08:	4a60      	ldr	r2, [pc, #384]	; (8000d8c <HAL_DMA_IRQHandler+0x200>)
 8000c0a:	4293      	cmp	r3, r2
 8000c0c:	d00a      	beq.n	8000c24 <HAL_DMA_IRQHandler+0x98>
 8000c0e:	687b      	ldr	r3, [r7, #4]
 8000c10:	681b      	ldr	r3, [r3, #0]
 8000c12:	4a5f      	ldr	r2, [pc, #380]	; (8000d90 <HAL_DMA_IRQHandler+0x204>)
 8000c14:	4293      	cmp	r3, r2
 8000c16:	d102      	bne.n	8000c1e <HAL_DMA_IRQHandler+0x92>
 8000c18:	f44f 0380 	mov.w	r3, #4194304	; 0x400000
 8000c1c:	e00e      	b.n	8000c3c <HAL_DMA_IRQHandler+0xb0>
 8000c1e:	f04f 6380 	mov.w	r3, #67108864	; 0x4000000
 8000c22:	e00b      	b.n	8000c3c <HAL_DMA_IRQHandler+0xb0>
 8000c24:	f44f 2380 	mov.w	r3, #262144	; 0x40000
 8000c28:	e008      	b.n	8000c3c <HAL_DMA_IRQHandler+0xb0>
 8000c2a:	f44f 4380 	mov.w	r3, #16384	; 0x4000
 8000c2e:	e005      	b.n	8000c3c <HAL_DMA_IRQHandler+0xb0>
 8000c30:	f44f 6380 	mov.w	r3, #1024	; 0x400
 8000c34:	e002      	b.n	8000c3c <HAL_DMA_IRQHandler+0xb0>
 8000c36:	2340      	movs	r3, #64	; 0x40
 8000c38:	e000      	b.n	8000c3c <HAL_DMA_IRQHandler+0xb0>
 8000c3a:	2304      	movs	r3, #4
 8000c3c:	4a55      	ldr	r2, [pc, #340]	; (8000d94 <HAL_DMA_IRQHandler+0x208>)
 8000c3e:	6053      	str	r3, [r2, #4]

    /* DMA peripheral state is not updated in Half Transfer */
    /* but in Transfer Complete case */

    if(hdma->XferHalfCpltCallback != NULL)
 8000c40:	687b      	ldr	r3, [r7, #4]
 8000c42:	6adb      	ldr	r3, [r3, #44]	; 0x2c
 8000c44:	2b00      	cmp	r3, #0
 8000c46:	f000 8094 	beq.w	8000d72 <HAL_DMA_IRQHandler+0x1e6>
    {
      /* Half transfer callback */
      hdma->XferHalfCpltCallback(hdma);
 8000c4a:	687b      	ldr	r3, [r7, #4]
 8000c4c:	6adb      	ldr	r3, [r3, #44]	; 0x2c
 8000c4e:	6878      	ldr	r0, [r7, #4]
 8000c50:	4798      	blx	r3
    if(hdma->XferHalfCpltCallback != NULL)
 8000c52:	e08e      	b.n	8000d72 <HAL_DMA_IRQHandler+0x1e6>
    }
  }

  /* Transfer Complete Interrupt management ***********************************/
  else if (((flag_it & (DMA_FLAG_TC1 << hdma->ChannelIndex)) != RESET) && ((source_it & DMA_IT_TC) != RESET))
 8000c54:	687b      	ldr	r3, [r7, #4]
 8000c56:	6c1b      	ldr	r3, [r3, #64]	; 0x40
 8000c58:	2202      	movs	r2, #2
 8000c5a:	409a      	lsls	r2, r3
 8000c5c:	68fb      	ldr	r3, [r7, #12]
 8000c5e:	4013      	ands	r3, r2
 8000c60:	2b00      	cmp	r3, #0
 8000c62:	d056      	beq.n	8000d12 <HAL_DMA_IRQHandler+0x186>
 8000c64:	68bb      	ldr	r3, [r7, #8]
 8000c66:	f003 0302 	and.w	r3, r3, #2
 8000c6a:	2b00      	cmp	r3, #0
 8000c6c:	d051      	beq.n	8000d12 <HAL_DMA_IRQHandler+0x186>
  {
    if((hdma->Instance->CCR & DMA_CCR_CIRC) == 0U)
 8000c6e:	687b      	ldr	r3, [r7, #4]
 8000c70:	681b      	ldr	r3, [r3, #0]
 8000c72:	681b      	ldr	r3, [r3, #0]
 8000c74:	f003 0320 	and.w	r3, r3, #32
 8000c78:	2b00      	cmp	r3, #0
 8000c7a:	d10b      	bne.n	8000c94 <HAL_DMA_IRQHandler+0x108>
    {
      /* Disable the transfer complete and error interrupt */
      __HAL_DMA_DISABLE_IT(hdma, DMA_IT_TE | DMA_IT_TC);  
 8000c7c:	687b      	ldr	r3, [r7, #4]
 8000c7e:	681b      	ldr	r3, [r3, #0]
 8000c80:	681a      	ldr	r2, [r3, #0]
 8000c82:	687b      	ldr	r3, [r7, #4]
 8000c84:	681b      	ldr	r3, [r3, #0]
 8000c86:	f022 020a 	bic.w	r2, r2, #10
 8000c8a:	601a      	str	r2, [r3, #0]

      /* Change the DMA state */
      hdma->State = HAL_DMA_STATE_READY;
 8000c8c:	687b      	ldr	r3, [r7, #4]
 8000c8e:	2201      	movs	r2, #1
 8000c90:	f883 2021 	strb.w	r2, [r3, #33]	; 0x21
    }
    /* Clear the transfer complete flag */
      __HAL_DMA_CLEAR_FLAG(hdma, __HAL_DMA_GET_TC_FLAG_INDEX(hdma));
 8000c94:	687b      	ldr	r3, [r7, #4]
 8000c96:	681b      	ldr	r3, [r3, #0]
 8000c98:	4a38      	ldr	r2, [pc, #224]	; (8000d7c <HAL_DMA_IRQHandler+0x1f0>)
 8000c9a:	4293      	cmp	r3, r2
 8000c9c:	d029      	beq.n	8000cf2 <HAL_DMA_IRQHandler+0x166>
 8000c9e:	687b      	ldr	r3, [r7, #4]
 8000ca0:	681b      	ldr	r3, [r3, #0]
 8000ca2:	4a37      	ldr	r2, [pc, #220]	; (8000d80 <HAL_DMA_IRQHandler+0x1f4>)
 8000ca4:	4293      	cmp	r3, r2
 8000ca6:	d022      	beq.n	8000cee <HAL_DMA_IRQHandler+0x162>
 8000ca8:	687b      	ldr	r3, [r7, #4]
 8000caa:	681b      	ldr	r3, [r3, #0]
 8000cac:	4a35      	ldr	r2, [pc, #212]	; (8000d84 <HAL_DMA_IRQHandler+0x1f8>)
 8000cae:	4293      	cmp	r3, r2
 8000cb0:	d01a      	beq.n	8000ce8 <HAL_DMA_IRQHandler+0x15c>
 8000cb2:	687b      	ldr	r3, [r7, #4]
 8000cb4:	681b      	ldr	r3, [r3, #0]
 8000cb6:	4a34      	ldr	r2, [pc, #208]	; (8000d88 <HAL_DMA_IRQHandler+0x1fc>)
 8000cb8:	4293      	cmp	r3, r2
 8000cba:	d012      	beq.n	8000ce2 <HAL_DMA_IRQHandler+0x156>
 8000cbc:	687b      	ldr	r3, [r7, #4]
 8000cbe:	681b      	ldr	r3, [r3, #0]
 8000cc0:	4a32      	ldr	r2, [pc, #200]	; (8000d8c <HAL_DMA_IRQHandler+0x200>)
 8000cc2:	4293      	cmp	r3, r2
 8000cc4:	d00a      	beq.n	8000cdc <HAL_DMA_IRQHandler+0x150>
 8000cc6:	687b      	ldr	r3, [r7, #4]
 8000cc8:	681b      	ldr	r3, [r3, #0]
 8000cca:	4a31      	ldr	r2, [pc, #196]	; (8000d90 <HAL_DMA_IRQHandler+0x204>)
 8000ccc:	4293      	cmp	r3, r2
 8000cce:	d102      	bne.n	8000cd6 <HAL_DMA_IRQHandler+0x14a>
 8000cd0:	f44f 1300 	mov.w	r3, #2097152	; 0x200000
 8000cd4:	e00e      	b.n	8000cf4 <HAL_DMA_IRQHandler+0x168>
 8000cd6:	f04f 7300 	mov.w	r3, #33554432	; 0x2000000
 8000cda:	e00b      	b.n	8000cf4 <HAL_DMA_IRQHandler+0x168>
 8000cdc:	f44f 3300 	mov.w	r3, #131072	; 0x20000
 8000ce0:	e008      	b.n	8000cf4 <HAL_DMA_IRQHandler+0x168>
 8000ce2:	f44f 5300 	mov.w	r3, #8192	; 0x2000
 8000ce6:	e005      	b.n	8000cf4 <HAL_DMA_IRQHandler+0x168>
 8000ce8:	f44f 7300 	mov.w	r3, #512	; 0x200
 8000cec:	e002      	b.n	8000cf4 <HAL_DMA_IRQHandler+0x168>
 8000cee:	2320      	movs	r3, #32
 8000cf0:	e000      	b.n	8000cf4 <HAL_DMA_IRQHandler+0x168>
 8000cf2:	2302      	movs	r3, #2
 8000cf4:	4a27      	ldr	r2, [pc, #156]	; (8000d94 <HAL_DMA_IRQHandler+0x208>)
 8000cf6:	6053      	str	r3, [r2, #4]

    /* Process Unlocked */
    __HAL_UNLOCK(hdma);
 8000cf8:	687b      	ldr	r3, [r7, #4]
 8000cfa:	2200      	movs	r2, #0
 8000cfc:	f883 2020 	strb.w	r2, [r3, #32]

    if(hdma->XferCpltCallback != NULL)
 8000d00:	687b      	ldr	r3, [r7, #4]
 8000d02:	6a9b      	ldr	r3, [r3, #40]	; 0x28
 8000d04:	2b00      	cmp	r3, #0
 8000d06:	d034      	beq.n	8000d72 <HAL_DMA_IRQHandler+0x1e6>
    {
      /* Transfer complete callback */
      hdma->XferCpltCallback(hdma);
 8000d08:	687b      	ldr	r3, [r7, #4]
 8000d0a:	6a9b      	ldr	r3, [r3, #40]	; 0x28
 8000d0c:	6878      	ldr	r0, [r7, #4]
 8000d0e:	4798      	blx	r3
    if(hdma->XferCpltCallback != NULL)
 8000d10:	e02f      	b.n	8000d72 <HAL_DMA_IRQHandler+0x1e6>
    }
  }

  /* Transfer Error Interrupt management **************************************/
  else if (( RESET != (flag_it & (DMA_FLAG_TE1 << hdma->ChannelIndex))) && (RESET != (source_it & DMA_IT_TE)))
 8000d12:	687b      	ldr	r3, [r7, #4]
 8000d14:	6c1b      	ldr	r3, [r3, #64]	; 0x40
 8000d16:	2208      	movs	r2, #8
 8000d18:	409a      	lsls	r2, r3
 8000d1a:	68fb      	ldr	r3, [r7, #12]
 8000d1c:	4013      	ands	r3, r2
 8000d1e:	2b00      	cmp	r3, #0
 8000d20:	d028      	beq.n	8000d74 <HAL_DMA_IRQHandler+0x1e8>
 8000d22:	68bb      	ldr	r3, [r7, #8]
 8000d24:	f003 0308 	and.w	r3, r3, #8
 8000d28:	2b00      	cmp	r3, #0
 8000d2a:	d023      	beq.n	8000d74 <HAL_DMA_IRQHandler+0x1e8>
  {
    /* When a DMA transfer error occurs */
    /* A hardware clear of its EN bits is performed */
    /* Disable ALL DMA IT */
    __HAL_DMA_DISABLE_IT(hdma, (DMA_IT_TC | DMA_IT_HT | DMA_IT_TE));
 8000d2c:	687b      	ldr	r3, [r7, #4]
 8000d2e:	681b      	ldr	r3, [r3, #0]
 8000d30:	681a      	ldr	r2, [r3, #0]
 8000d32:	687b      	ldr	r3, [r7, #4]
 8000d34:	681b      	ldr	r3, [r3, #0]
 8000d36:	f022 020e 	bic.w	r2, r2, #14
 8000d3a:	601a      	str	r2, [r3, #0]

    /* Clear all flags */
    hdma->DmaBaseAddress->IFCR = (DMA_ISR_GIF1 << hdma->ChannelIndex);
 8000d3c:	687b      	ldr	r3, [r7, #4]
 8000d3e:	6c1a      	ldr	r2, [r3, #64]	; 0x40
 8000d40:	687b      	ldr	r3, [r7, #4]
 8000d42:	6bdb      	ldr	r3, [r3, #60]	; 0x3c
 8000d44:	2101      	movs	r1, #1
 8000d46:	fa01 f202 	lsl.w	r2, r1, r2
 8000d4a:	605a      	str	r2, [r3, #4]

    /* Update error code */
    hdma->ErrorCode = HAL_DMA_ERROR_TE;
 8000d4c:	687b      	ldr	r3, [r7, #4]
 8000d4e:	2201      	movs	r2, #1
 8000d50:	639a      	str	r2, [r3, #56]	; 0x38

    /* Change the DMA state */
    hdma->State = HAL_DMA_STATE_READY;
 8000d52:	687b      	ldr	r3, [r7, #4]
 8000d54:	2201      	movs	r2, #1
 8000d56:	f883 2021 	strb.w	r2, [r3, #33]	; 0x21

    /* Process Unlocked */
    __HAL_UNLOCK(hdma);
 8000d5a:	687b      	ldr	r3, [r7, #4]
 8000d5c:	2200      	movs	r2, #0
 8000d5e:	f883 2020 	strb.w	r2, [r3, #32]

    if (hdma->XferErrorCallback != NULL)
 8000d62:	687b      	ldr	r3, [r7, #4]
 8000d64:	6b1b      	ldr	r3, [r3, #48]	; 0x30
 8000d66:	2b00      	cmp	r3, #0
 8000d68:	d004      	beq.n	8000d74 <HAL_DMA_IRQHandler+0x1e8>
    {
      /* Transfer error callback */
      hdma->XferErrorCallback(hdma);
 8000d6a:	687b      	ldr	r3, [r7, #4]
 8000d6c:	6b1b      	ldr	r3, [r3, #48]	; 0x30
 8000d6e:	6878      	ldr	r0, [r7, #4]
 8000d70:	4798      	blx	r3
    }
  }
  return;
 8000d72:	bf00      	nop
 8000d74:	bf00      	nop
}
 8000d76:	3710      	adds	r7, #16
 8000d78:	46bd      	mov	sp, r7
 8000d7a:	bd80      	pop	{r7, pc}
 8000d7c:	40020008 	.word	0x40020008
 8000d80:	4002001c 	.word	0x4002001c
 8000d84:	40020030 	.word	0x40020030
 8000d88:	40020044 	.word	0x40020044
 8000d8c:	40020058 	.word	0x40020058
 8000d90:	4002006c 	.word	0x4002006c
 8000d94:	40020000 	.word	0x40020000

08000d98 <DMA_SetConfig>:
  * @param  DstAddress: The destination memory Buffer address
  * @param  DataLength: The length of data to be transferred from source to destination
  * @retval HAL status
  */
static void DMA_SetConfig(DMA_HandleTypeDef *hdma, uint32_t SrcAddress, uint32_t DstAddress, uint32_t DataLength)
{
 8000d98:	b480      	push	{r7}
 8000d9a:	b085      	sub	sp, #20
 8000d9c:	af00      	add	r7, sp, #0
 8000d9e:	60f8      	str	r0, [r7, #12]
 8000da0:	60b9      	str	r1, [r7, #8]
 8000da2:	607a      	str	r2, [r7, #4]
 8000da4:	603b      	str	r3, [r7, #0]
  /* Clear all flags */
  hdma->DmaBaseAddress->IFCR = (DMA_ISR_GIF1 << hdma->ChannelIndex);
 8000da6:	68fb      	ldr	r3, [r7, #12]
 8000da8:	6c1a      	ldr	r2, [r3, #64]	; 0x40
 8000daa:	68fb      	ldr	r3, [r7, #12]
 8000dac:	6bdb      	ldr	r3, [r3, #60]	; 0x3c
 8000dae:	2101      	movs	r1, #1
 8000db0:	fa01 f202 	lsl.w	r2, r1, r2
 8000db4:	605a      	str	r2, [r3, #4]

  /* Configure DMA Channel data length */
  hdma->Instance->CNDTR = DataLength;
 8000db6:	68fb      	ldr	r3, [r7, #12]
 8000db8:	681b      	ldr	r3, [r3, #0]
 8000dba:	683a      	ldr	r2, [r7, #0]
 8000dbc:	605a      	str	r2, [r3, #4]

  /* Memory to Peripheral */
  if((hdma->Init.Direction) == DMA_MEMORY_TO_PERIPH)
 8000dbe:	68fb      	ldr	r3, [r7, #12]
 8000dc0:	685b      	ldr	r3, [r3, #4]
 8000dc2:	2b10      	cmp	r3, #16
 8000dc4:	d108      	bne.n	8000dd8 <DMA_SetConfig+0x40>
  {
    /* Configure DMA Channel destination address */
    hdma->Instance->CPAR = DstAddress;
 8000dc6:	68fb      	ldr	r3, [r7, #12]
 8000dc8:	681b      	ldr	r3, [r3, #0]
 8000dca:	687a      	ldr	r2, [r7, #4]
 8000dcc:	609a      	str	r2, [r3, #8]

    /* Configure DMA Channel source address */
    hdma->Instance->CMAR = SrcAddress;
 8000dce:	68fb      	ldr	r3, [r7, #12]
 8000dd0:	681b      	ldr	r3, [r3, #0]
 8000dd2:	68ba      	ldr	r2, [r7, #8]
 8000dd4:	60da      	str	r2, [r3, #12]
    hdma->Instance->CPAR = SrcAddress;

    /* Configure DMA Channel destination address */
    hdma->Instance->CMAR = DstAddress;
  }
}
 8000dd6:	e007      	b.n	8000de8 <DMA_SetConfig+0x50>
    hdma->Instance->CPAR = SrcAddress;
 8000dd8:	68fb      	ldr	r3, [r7, #12]
 8000dda:	681b      	ldr	r3, [r3, #0]
 8000ddc:	68ba      	ldr	r2, [r7, #8]
 8000dde:	609a      	str	r2, [r3, #8]
    hdma->Instance->CMAR = DstAddress;
 8000de0:	68fb      	ldr	r3, [r7, #12]
 8000de2:	681b      	ldr	r3, [r3, #0]
 8000de4:	687a      	ldr	r2, [r7, #4]
 8000de6:	60da      	str	r2, [r3, #12]
}
 8000de8:	bf00      	nop
 8000dea:	3714      	adds	r7, #20
 8000dec:	46bd      	mov	sp, r7
 8000dee:	bc80      	pop	{r7}
 8000df0:	4770      	bx	lr
	...

08000df4 <HAL_GPIO_Init>:
  * @param  GPIO_Init: pointer to a GPIO_InitTypeDef structure that contains
  *         the configuration information for the specified GPIO peripheral.
  * @retval None
  */
void HAL_GPIO_Init(GPIO_TypeDef  *GPIOx, GPIO_InitTypeDef *GPIO_Init)
{
 8000df4:	b480      	push	{r7}
 8000df6:	b08b      	sub	sp, #44	; 0x2c
 8000df8:	af00      	add	r7, sp, #0
 8000dfa:	6078      	str	r0, [r7, #4]
 8000dfc:	6039      	str	r1, [r7, #0]
  uint32_t position = 0x00u;
 8000dfe:	2300      	movs	r3, #0
 8000e00:	627b      	str	r3, [r7, #36]	; 0x24
  uint32_t ioposition;
  uint32_t iocurrent;
  uint32_t temp;
  uint32_t config = 0x00u;
 8000e02:	2300      	movs	r3, #0
 8000e04:	623b      	str	r3, [r7, #32]
  assert_param(IS_GPIO_ALL_INSTANCE(GPIOx));
  assert_param(IS_GPIO_PIN(GPIO_Init->Pin));
  assert_param(IS_GPIO_MODE(GPIO_Init->Mode));

  /* Configure the port pins */
  while (((GPIO_Init->Pin) >> position) != 0x00u)
 8000e06:	e127      	b.n	8001058 <HAL_GPIO_Init+0x264>
  {
    /* Get the IO position */
    ioposition = (0x01uL << position);
 8000e08:	2201      	movs	r2, #1
 8000e0a:	6a7b      	ldr	r3, [r7, #36]	; 0x24
 8000e0c:	fa02 f303 	lsl.w	r3, r2, r3
 8000e10:	61fb      	str	r3, [r7, #28]

    /* Get the current IO position */
    iocurrent = (uint32_t)(GPIO_Init->Pin) & ioposition;
 8000e12:	683b      	ldr	r3, [r7, #0]
 8000e14:	681b      	ldr	r3, [r3, #0]
 8000e16:	69fa      	ldr	r2, [r7, #28]
 8000e18:	4013      	ands	r3, r2
 8000e1a:	61bb      	str	r3, [r7, #24]

    if (iocurrent == ioposition)
 8000e1c:	69ba      	ldr	r2, [r7, #24]
 8000e1e:	69fb      	ldr	r3, [r7, #28]
 8000e20:	429a      	cmp	r2, r3
 8000e22:	f040 8116 	bne.w	8001052 <HAL_GPIO_Init+0x25e>
    {
      /* Check the Alternate function parameters */
      assert_param(IS_GPIO_AF_INSTANCE(GPIOx));

      /* Based on the required mode, filling config variable with MODEy[1:0] and CNFy[3:2] corresponding bits */
      switch (GPIO_Init->Mode)
 8000e26:	683b      	ldr	r3, [r7, #0]
 8000e28:	685b      	ldr	r3, [r3, #4]
 8000e2a:	2b12      	cmp	r3, #18
 8000e2c:	d034      	beq.n	8000e98 <HAL_GPIO_Init+0xa4>
 8000e2e:	2b12      	cmp	r3, #18
 8000e30:	d80d      	bhi.n	8000e4e <HAL_GPIO_Init+0x5a>
 8000e32:	2b02      	cmp	r3, #2
 8000e34:	d02b      	beq.n	8000e8e <HAL_GPIO_Init+0x9a>
 8000e36:	2b02      	cmp	r3, #2
 8000e38:	d804      	bhi.n	8000e44 <HAL_GPIO_Init+0x50>
 8000e3a:	2b00      	cmp	r3, #0
 8000e3c:	d031      	beq.n	8000ea2 <HAL_GPIO_Init+0xae>
 8000e3e:	2b01      	cmp	r3, #1
 8000e40:	d01c      	beq.n	8000e7c <HAL_GPIO_Init+0x88>
          config = GPIO_CR_MODE_INPUT + GPIO_CR_CNF_ANALOG;
          break;

        /* Parameters are checked with assert_param */
        default:
          break;
 8000e42:	e048      	b.n	8000ed6 <HAL_GPIO_Init+0xe2>
      switch (GPIO_Init->Mode)
 8000e44:	2b03      	cmp	r3, #3
 8000e46:	d043      	beq.n	8000ed0 <HAL_GPIO_Init+0xdc>
 8000e48:	2b11      	cmp	r3, #17
 8000e4a:	d01b      	beq.n	8000e84 <HAL_GPIO_Init+0x90>
          break;
 8000e4c:	e043      	b.n	8000ed6 <HAL_GPIO_Init+0xe2>
      switch (GPIO_Init->Mode)
 8000e4e:	4a89      	ldr	r2, [pc, #548]	; (8001074 <HAL_GPIO_Init+0x280>)
 8000e50:	4293      	cmp	r3, r2
 8000e52:	d026      	beq.n	8000ea2 <HAL_GPIO_Init+0xae>
 8000e54:	4a87      	ldr	r2, [pc, #540]	; (8001074 <HAL_GPIO_Init+0x280>)
 8000e56:	4293      	cmp	r3, r2
 8000e58:	d806      	bhi.n	8000e68 <HAL_GPIO_Init+0x74>
 8000e5a:	4a87      	ldr	r2, [pc, #540]	; (8001078 <HAL_GPIO_Init+0x284>)
 8000e5c:	4293      	cmp	r3, r2
 8000e5e:	d020      	beq.n	8000ea2 <HAL_GPIO_Init+0xae>
 8000e60:	4a86      	ldr	r2, [pc, #536]	; (800107c <HAL_GPIO_Init+0x288>)
 8000e62:	4293      	cmp	r3, r2
 8000e64:	d01d      	beq.n	8000ea2 <HAL_GPIO_Init+0xae>
          break;
 8000e66:	e036      	b.n	8000ed6 <HAL_GPIO_Init+0xe2>
      switch (GPIO_Init->Mode)
 8000e68:	4a85      	ldr	r2, [pc, #532]	; (8001080 <HAL_GPIO_Init+0x28c>)
 8000e6a:	4293      	cmp	r3, r2
 8000e6c:	d019      	beq.n	8000ea2 <HAL_GPIO_Init+0xae>
 8000e6e:	4a85      	ldr	r2, [pc, #532]	; (8001084 <HAL_GPIO_Init+0x290>)
 8000e70:	4293      	cmp	r3, r2
 8000e72:	d016      	beq.n	8000ea2 <HAL_GPIO_Init+0xae>
 8000e74:	4a84      	ldr	r2, [pc, #528]	; (8001088 <HAL_GPIO_Init+0x294>)
 8000e76:	4293      	cmp	r3, r2
 8000e78:	d013      	beq.n	8000ea2 <HAL_GPIO_Init+0xae>
          break;
 8000e7a:	e02c      	b.n	8000ed6 <HAL_GPIO_Init+0xe2>
          config = GPIO_Init->Speed + GPIO_CR_CNF_GP_OUTPUT_PP;
 8000e7c:	683b      	ldr	r3, [r7, #0]
 8000e7e:	68db      	ldr	r3, [r3, #12]
 8000e80:	623b      	str	r3, [r7, #32]
          break;
 8000e82:	e028      	b.n	8000ed6 <HAL_GPIO_Init+0xe2>
          config = GPIO_Init->Speed + GPIO_CR_CNF_GP_OUTPUT_OD;
 8000e84:	683b      	ldr	r3, [r7, #0]
 8000e86:	68db      	ldr	r3, [r3, #12]
 8000e88:	3304      	adds	r3, #4
 8000e8a:	623b      	str	r3, [r7, #32]
          break;
 8000e8c:	e023      	b.n	8000ed6 <HAL_GPIO_Init+0xe2>
          config = GPIO_Init->Speed + GPIO_CR_CNF_AF_OUTPUT_PP;
 8000e8e:	683b      	ldr	r3, [r7, #0]
 8000e90:	68db      	ldr	r3, [r3, #12]
 8000e92:	3308      	adds	r3, #8
 8000e94:	623b      	str	r3, [r7, #32]
          break;
 8000e96:	e01e      	b.n	8000ed6 <HAL_GPIO_Init+0xe2>
          config = GPIO_Init->Speed + GPIO_CR_CNF_AF_OUTPUT_OD;
 8000e98:	683b      	ldr	r3, [r7, #0]
 8000e9a:	68db      	ldr	r3, [r3, #12]
 8000e9c:	330c      	adds	r3, #12
 8000e9e:	623b      	str	r3, [r7, #32]
          break;
 8000ea0:	e019      	b.n	8000ed6 <HAL_GPIO_Init+0xe2>
          if (GPIO_Init->Pull == GPIO_NOPULL)
 8000ea2:	683b      	ldr	r3, [r7, #0]
 8000ea4:	689b      	ldr	r3, [r3, #8]
 8000ea6:	2b00      	cmp	r3, #0
 8000ea8:	d102      	bne.n	8000eb0 <HAL_GPIO_Init+0xbc>
            config = GPIO_CR_MODE_INPUT + GPIO_CR_CNF_INPUT_FLOATING;
 8000eaa:	2304      	movs	r3, #4
 8000eac:	623b      	str	r3, [r7, #32]
          break;
 8000eae:	e012      	b.n	8000ed6 <HAL_GPIO_Init+0xe2>
          else if (GPIO_Init->Pull == GPIO_PULLUP)
 8000eb0:	683b      	ldr	r3, [r7, #0]
 8000eb2:	689b      	ldr	r3, [r3, #8]
 8000eb4:	2b01      	cmp	r3, #1
 8000eb6:	d105      	bne.n	8000ec4 <HAL_GPIO_Init+0xd0>
            config = GPIO_CR_MODE_INPUT + GPIO_CR_CNF_INPUT_PU_PD;
 8000eb8:	2308      	movs	r3, #8
 8000eba:	623b      	str	r3, [r7, #32]
            GPIOx->BSRR = ioposition;
 8000ebc:	687b      	ldr	r3, [r7, #4]
 8000ebe:	69fa      	ldr	r2, [r7, #28]
 8000ec0:	611a      	str	r2, [r3, #16]
          break;
 8000ec2:	e008      	b.n	8000ed6 <HAL_GPIO_Init+0xe2>
            config = GPIO_CR_MODE_INPUT + GPIO_CR_CNF_INPUT_PU_PD;
 8000ec4:	2308      	movs	r3, #8
 8000ec6:	623b      	str	r3, [r7, #32]
            GPIOx->BRR = ioposition;
 8000ec8:	687b      	ldr	r3, [r7, #4]
 8000eca:	69fa      	ldr	r2, [r7, #28]
 8000ecc:	615a      	str	r2, [r3, #20]
          break;
 8000ece:	e002      	b.n	8000ed6 <HAL_GPIO_Init+0xe2>
          config = GPIO_CR_MODE_INPUT + GPIO_CR_CNF_ANALOG;
 8000ed0:	2300      	movs	r3, #0
 8000ed2:	623b      	str	r3, [r7, #32]
          break;
 8000ed4:	bf00      	nop
      }

      /* Check if the current bit belongs to first half or last half of the pin count number
       in order to address CRH or CRL register*/
      configregister = (iocurrent < GPIO_PIN_8) ? &GPIOx->CRL     : &GPIOx->CRH;
 8000ed6:	69bb      	ldr	r3, [r7, #24]
 8000ed8:	2bff      	cmp	r3, #255	; 0xff
 8000eda:	d801      	bhi.n	8000ee0 <HAL_GPIO_Init+0xec>
 8000edc:	687b      	ldr	r3, [r7, #4]
 8000ede:	e001      	b.n	8000ee4 <HAL_GPIO_Init+0xf0>
 8000ee0:	687b      	ldr	r3, [r7, #4]
 8000ee2:	3304      	adds	r3, #4
 8000ee4:	617b      	str	r3, [r7, #20]
      registeroffset = (iocurrent < GPIO_PIN_8) ? (position << 2u) : ((position - 8u) << 2u);
 8000ee6:	69bb      	ldr	r3, [r7, #24]
 8000ee8:	2bff      	cmp	r3, #255	; 0xff
 8000eea:	d802      	bhi.n	8000ef2 <HAL_GPIO_Init+0xfe>
 8000eec:	6a7b      	ldr	r3, [r7, #36]	; 0x24
 8000eee:	009b      	lsls	r3, r3, #2
 8000ef0:	e002      	b.n	8000ef8 <HAL_GPIO_Init+0x104>
 8000ef2:	6a7b      	ldr	r3, [r7, #36]	; 0x24
 8000ef4:	3b08      	subs	r3, #8
 8000ef6:	009b      	lsls	r3, r3, #2
 8000ef8:	613b      	str	r3, [r7, #16]

      /* Apply the new configuration of the pin to the register */
      MODIFY_REG((*configregister), ((GPIO_CRL_MODE0 | GPIO_CRL_CNF0) << registeroffset), (config << registeroffset));
 8000efa:	697b      	ldr	r3, [r7, #20]
 8000efc:	681a      	ldr	r2, [r3, #0]
 8000efe:	210f      	movs	r1, #15
 8000f00:	693b      	ldr	r3, [r7, #16]
 8000f02:	fa01 f303 	lsl.w	r3, r1, r3
 8000f06:	43db      	mvns	r3, r3
 8000f08:	401a      	ands	r2, r3
 8000f0a:	6a39      	ldr	r1, [r7, #32]
 8000f0c:	693b      	ldr	r3, [r7, #16]
 8000f0e:	fa01 f303 	lsl.w	r3, r1, r3
 8000f12:	431a      	orrs	r2, r3
 8000f14:	697b      	ldr	r3, [r7, #20]
 8000f16:	601a      	str	r2, [r3, #0]

      /*--------------------- EXTI Mode Configuration ------------------------*/
      /* Configure the External Interrupt or event for the current IO */
      if ((GPIO_Init->Mode & EXTI_MODE) == EXTI_MODE)
 8000f18:	683b      	ldr	r3, [r7, #0]
 8000f1a:	685b      	ldr	r3, [r3, #4]
 8000f1c:	f003 5380 	and.w	r3, r3, #268435456	; 0x10000000
 8000f20:	2b00      	cmp	r3, #0
 8000f22:	f000 8096 	beq.w	8001052 <HAL_GPIO_Init+0x25e>
      {
        /* Enable AFIO Clock */
        __HAL_RCC_AFIO_CLK_ENABLE();
 8000f26:	4b59      	ldr	r3, [pc, #356]	; (800108c <HAL_GPIO_Init+0x298>)
 8000f28:	699b      	ldr	r3, [r3, #24]
 8000f2a:	4a58      	ldr	r2, [pc, #352]	; (800108c <HAL_GPIO_Init+0x298>)
 8000f2c:	f043 0301 	orr.w	r3, r3, #1
 8000f30:	6193      	str	r3, [r2, #24]
 8000f32:	4b56      	ldr	r3, [pc, #344]	; (800108c <HAL_GPIO_Init+0x298>)
 8000f34:	699b      	ldr	r3, [r3, #24]
 8000f36:	f003 0301 	and.w	r3, r3, #1
 8000f3a:	60bb      	str	r3, [r7, #8]
 8000f3c:	68bb      	ldr	r3, [r7, #8]
        temp = AFIO->EXTICR[position >> 2u];
 8000f3e:	4a54      	ldr	r2, [pc, #336]	; (8001090 <HAL_GPIO_Init+0x29c>)
 8000f40:	6a7b      	ldr	r3, [r7, #36]	; 0x24
 8000f42:	089b      	lsrs	r3, r3, #2
 8000f44:	3302      	adds	r3, #2
 8000f46:	f852 3023 	ldr.w	r3, [r2, r3, lsl #2]
 8000f4a:	60fb      	str	r3, [r7, #12]
        CLEAR_BIT(temp, (0x0Fu) << (4u * (position & 0x03u)));
 8000f4c:	6a7b      	ldr	r3, [r7, #36]	; 0x24
 8000f4e:	f003 0303 	and.w	r3, r3, #3
 8000f52:	009b      	lsls	r3, r3, #2
 8000f54:	220f      	movs	r2, #15
 8000f56:	fa02 f303 	lsl.w	r3, r2, r3
 8000f5a:	43db      	mvns	r3, r3
 8000f5c:	68fa      	ldr	r2, [r7, #12]
 8000f5e:	4013      	ands	r3, r2
 8000f60:	60fb      	str	r3, [r7, #12]
        SET_BIT(temp, (GPIO_GET_INDEX(GPIOx)) << (4u * (position & 0x03u)));
 8000f62:	687b      	ldr	r3, [r7, #4]
 8000f64:	4a4b      	ldr	r2, [pc, #300]	; (8001094 <HAL_GPIO_Init+0x2a0>)
 8000f66:	4293      	cmp	r3, r2
 8000f68:	d013      	beq.n	8000f92 <HAL_GPIO_Init+0x19e>
 8000f6a:	687b      	ldr	r3, [r7, #4]
 8000f6c:	4a4a      	ldr	r2, [pc, #296]	; (8001098 <HAL_GPIO_Init+0x2a4>)
 8000f6e:	4293      	cmp	r3, r2
 8000f70:	d00d      	beq.n	8000f8e <HAL_GPIO_Init+0x19a>
 8000f72:	687b      	ldr	r3, [r7, #4]
 8000f74:	4a49      	ldr	r2, [pc, #292]	; (800109c <HAL_GPIO_Init+0x2a8>)
 8000f76:	4293      	cmp	r3, r2
 8000f78:	d007      	beq.n	8000f8a <HAL_GPIO_Init+0x196>
 8000f7a:	687b      	ldr	r3, [r7, #4]
 8000f7c:	4a48      	ldr	r2, [pc, #288]	; (80010a0 <HAL_GPIO_Init+0x2ac>)
 8000f7e:	4293      	cmp	r3, r2
 8000f80:	d101      	bne.n	8000f86 <HAL_GPIO_Init+0x192>
 8000f82:	2303      	movs	r3, #3
 8000f84:	e006      	b.n	8000f94 <HAL_GPIO_Init+0x1a0>
 8000f86:	2304      	movs	r3, #4
 8000f88:	e004      	b.n	8000f94 <HAL_GPIO_Init+0x1a0>
 8000f8a:	2302      	movs	r3, #2
 8000f8c:	e002      	b.n	8000f94 <HAL_GPIO_Init+0x1a0>
 8000f8e:	2301      	movs	r3, #1
 8000f90:	e000      	b.n	8000f94 <HAL_GPIO_Init+0x1a0>
 8000f92:	2300      	movs	r3, #0
 8000f94:	6a7a      	ldr	r2, [r7, #36]	; 0x24
 8000f96:	f002 0203 	and.w	r2, r2, #3
 8000f9a:	0092      	lsls	r2, r2, #2
 8000f9c:	4093      	lsls	r3, r2
 8000f9e:	68fa      	ldr	r2, [r7, #12]
 8000fa0:	4313      	orrs	r3, r2
 8000fa2:	60fb      	str	r3, [r7, #12]
        AFIO->EXTICR[position >> 2u] = temp;
 8000fa4:	493a      	ldr	r1, [pc, #232]	; (8001090 <HAL_GPIO_Init+0x29c>)
 8000fa6:	6a7b      	ldr	r3, [r7, #36]	; 0x24
 8000fa8:	089b      	lsrs	r3, r3, #2
 8000faa:	3302      	adds	r3, #2
 8000fac:	68fa      	ldr	r2, [r7, #12]
 8000fae:	f841 2023 	str.w	r2, [r1, r3, lsl #2]


        /* Configure the interrupt mask */
        if ((GPIO_Init->Mode & GPIO_MODE_IT) == GPIO_MODE_IT)
 8000fb2:	683b      	ldr	r3, [r7, #0]
 8000fb4:	685b      	ldr	r3, [r3, #4]
 8000fb6:	f403 3380 	and.w	r3, r3, #65536	; 0x10000
 8000fba:	2b00      	cmp	r3, #0
 8000fbc:	d006      	beq.n	8000fcc <HAL_GPIO_Init+0x1d8>
        {
          SET_BIT(EXTI->IMR, iocurrent);
 8000fbe:	4b39      	ldr	r3, [pc, #228]	; (80010a4 <HAL_GPIO_Init+0x2b0>)
 8000fc0:	681a      	ldr	r2, [r3, #0]
 8000fc2:	4938      	ldr	r1, [pc, #224]	; (80010a4 <HAL_GPIO_Init+0x2b0>)
 8000fc4:	69bb      	ldr	r3, [r7, #24]
 8000fc6:	4313      	orrs	r3, r2
 8000fc8:	600b      	str	r3, [r1, #0]
 8000fca:	e006      	b.n	8000fda <HAL_GPIO_Init+0x1e6>
        }
        else
        {
          CLEAR_BIT(EXTI->IMR, iocurrent);
 8000fcc:	4b35      	ldr	r3, [pc, #212]	; (80010a4 <HAL_GPIO_Init+0x2b0>)
 8000fce:	681a      	ldr	r2, [r3, #0]
 8000fd0:	69bb      	ldr	r3, [r7, #24]
 8000fd2:	43db      	mvns	r3, r3
 8000fd4:	4933      	ldr	r1, [pc, #204]	; (80010a4 <HAL_GPIO_Init+0x2b0>)
 8000fd6:	4013      	ands	r3, r2
 8000fd8:	600b      	str	r3, [r1, #0]
        }

        /* Configure the event mask */
        if ((GPIO_Init->Mode & GPIO_MODE_EVT) == GPIO_MODE_EVT)
 8000fda:	683b      	ldr	r3, [r7, #0]
 8000fdc:	685b      	ldr	r3, [r3, #4]
 8000fde:	f403 3300 	and.w	r3, r3, #131072	; 0x20000
 8000fe2:	2b00      	cmp	r3, #0
 8000fe4:	d006      	beq.n	8000ff4 <HAL_GPIO_Init+0x200>
        {
          SET_BIT(EXTI->EMR, iocurrent);
 8000fe6:	4b2f      	ldr	r3, [pc, #188]	; (80010a4 <HAL_GPIO_Init+0x2b0>)
 8000fe8:	685a      	ldr	r2, [r3, #4]
 8000fea:	492e      	ldr	r1, [pc, #184]	; (80010a4 <HAL_GPIO_Init+0x2b0>)
 8000fec:	69bb      	ldr	r3, [r7, #24]
 8000fee:	4313      	orrs	r3, r2
 8000ff0:	604b      	str	r3, [r1, #4]
 8000ff2:	e006      	b.n	8001002 <HAL_GPIO_Init+0x20e>
        }
        else
        {
          CLEAR_BIT(EXTI->EMR, iocurrent);
 8000ff4:	4b2b      	ldr	r3, [pc, #172]	; (80010a4 <HAL_GPIO_Init+0x2b0>)
 8000ff6:	685a      	ldr	r2, [r3, #4]
 8000ff8:	69bb      	ldr	r3, [r7, #24]
 8000ffa:	43db      	mvns	r3, r3
 8000ffc:	4929      	ldr	r1, [pc, #164]	; (80010a4 <HAL_GPIO_Init+0x2b0>)
 8000ffe:	4013      	ands	r3, r2
 8001000:	604b      	str	r3, [r1, #4]
        }

        /* Enable or disable the rising trigger */
        if ((GPIO_Init->Mode & RISING_EDGE) == RISING_EDGE)
 8001002:	683b      	ldr	r3, [r7, #0]
 8001004:	685b      	ldr	r3, [r3, #4]
 8001006:	f403 1380 	and.w	r3, r3, #1048576	; 0x100000
 800100a:	2b00      	cmp	r3, #0
 800100c:	d006      	beq.n	800101c <HAL_GPIO_Init+0x228>
        {
          SET_BIT(EXTI->RTSR, iocurrent);
 800100e:	4b25      	ldr	r3, [pc, #148]	; (80010a4 <HAL_GPIO_Init+0x2b0>)
 8001010:	689a      	ldr	r2, [r3, #8]
 8001012:	4924      	ldr	r1, [pc, #144]	; (80010a4 <HAL_GPIO_Init+0x2b0>)
 8001014:	69bb      	ldr	r3, [r7, #24]
 8001016:	4313      	orrs	r3, r2
 8001018:	608b      	str	r3, [r1, #8]
 800101a:	e006      	b.n	800102a <HAL_GPIO_Init+0x236>
        }
        else
        {
          CLEAR_BIT(EXTI->RTSR, iocurrent);
 800101c:	4b21      	ldr	r3, [pc, #132]	; (80010a4 <HAL_GPIO_Init+0x2b0>)
 800101e:	689a      	ldr	r2, [r3, #8]
 8001020:	69bb      	ldr	r3, [r7, #24]
 8001022:	43db      	mvns	r3, r3
 8001024:	491f      	ldr	r1, [pc, #124]	; (80010a4 <HAL_GPIO_Init+0x2b0>)
 8001026:	4013      	ands	r3, r2
 8001028:	608b      	str	r3, [r1, #8]
        }

        /* Enable or disable the falling trigger */
        if ((GPIO_Init->Mode & FALLING_EDGE) == FALLING_EDGE)
 800102a:	683b      	ldr	r3, [r7, #0]
 800102c:	685b      	ldr	r3, [r3, #4]
 800102e:	f403 1300 	and.w	r3, r3, #2097152	; 0x200000
 8001032:	2b00      	cmp	r3, #0
 8001034:	d006      	beq.n	8001044 <HAL_GPIO_Init+0x250>
        {
          SET_BIT(EXTI->FTSR, iocurrent);
 8001036:	4b1b      	ldr	r3, [pc, #108]	; (80010a4 <HAL_GPIO_Init+0x2b0>)
 8001038:	68da      	ldr	r2, [r3, #12]
 800103a:	491a      	ldr	r1, [pc, #104]	; (80010a4 <HAL_GPIO_Init+0x2b0>)
 800103c:	69bb      	ldr	r3, [r7, #24]
 800103e:	4313      	orrs	r3, r2
 8001040:	60cb      	str	r3, [r1, #12]
 8001042:	e006      	b.n	8001052 <HAL_GPIO_Init+0x25e>
        }
        else
        {
          CLEAR_BIT(EXTI->FTSR, iocurrent);
 8001044:	4b17      	ldr	r3, [pc, #92]	; (80010a4 <HAL_GPIO_Init+0x2b0>)
 8001046:	68da      	ldr	r2, [r3, #12]
 8001048:	69bb      	ldr	r3, [r7, #24]
 800104a:	43db      	mvns	r3, r3
 800104c:	4915      	ldr	r1, [pc, #84]	; (80010a4 <HAL_GPIO_Init+0x2b0>)
 800104e:	4013      	ands	r3, r2
 8001050:	60cb      	str	r3, [r1, #12]
        }
      }
    }

	position++;
 8001052:	6a7b      	ldr	r3, [r7, #36]	; 0x24
 8001054:	3301      	adds	r3, #1
 8001056:	627b      	str	r3, [r7, #36]	; 0x24
  while (((GPIO_Init->Pin) >> position) != 0x00u)
 8001058:	683b      	ldr	r3, [r7, #0]
 800105a:	681a      	ldr	r2, [r3, #0]
 800105c:	6a7b      	ldr	r3, [r7, #36]	; 0x24
 800105e:	fa22 f303 	lsr.w	r3, r2, r3
 8001062:	2b00      	cmp	r3, #0
 8001064:	f47f aed0 	bne.w	8000e08 <HAL_GPIO_Init+0x14>
  }
}
 8001068:	bf00      	nop
 800106a:	372c      	adds	r7, #44	; 0x2c
 800106c:	46bd      	mov	sp, r7
 800106e:	bc80      	pop	{r7}
 8001070:	4770      	bx	lr
 8001072:	bf00      	nop
 8001074:	10210000 	.word	0x10210000
 8001078:	10110000 	.word	0x10110000
 800107c:	10120000 	.word	0x10120000
 8001080:	10310000 	.word	0x10310000
 8001084:	10320000 	.word	0x10320000
 8001088:	10220000 	.word	0x10220000
 800108c:	40021000 	.word	0x40021000
 8001090:	40010000 	.word	0x40010000
 8001094:	40010800 	.word	0x40010800
 8001098:	40010c00 	.word	0x40010c00
 800109c:	40011000 	.word	0x40011000
 80010a0:	40011400 	.word	0x40011400
 80010a4:	40010400 	.word	0x40010400

080010a8 <HAL_RCC_OscConfig>:
  *         supported by this macro. User should request a transition to HSE Off
  *         first and then HSE On or HSE Bypass.
  * @retval HAL status
  */
HAL_StatusTypeDef HAL_RCC_OscConfig(RCC_OscInitTypeDef  *RCC_OscInitStruct)
{
 80010a8:	b580      	push	{r7, lr}
 80010aa:	b086      	sub	sp, #24
 80010ac:	af00      	add	r7, sp, #0
 80010ae:	6078      	str	r0, [r7, #4]
  uint32_t tickstart;
  uint32_t pll_config;

  /* Check Null pointer */
  if (RCC_OscInitStruct == NULL)
 80010b0:	687b      	ldr	r3, [r7, #4]
 80010b2:	2b00      	cmp	r3, #0
 80010b4:	d101      	bne.n	80010ba <HAL_RCC_OscConfig+0x12>
  {
    return HAL_ERROR;
 80010b6:	2301      	movs	r3, #1
 80010b8:	e26c      	b.n	8001594 <HAL_RCC_OscConfig+0x4ec>

  /* Check the parameters */
  assert_param(IS_RCC_OSCILLATORTYPE(RCC_OscInitStruct->OscillatorType));

  /*------------------------------- HSE Configuration ------------------------*/
  if (((RCC_OscInitStruct->OscillatorType) & RCC_OSCILLATORTYPE_HSE) == RCC_OSCILLATORTYPE_HSE)
 80010ba:	687b      	ldr	r3, [r7, #4]
 80010bc:	681b      	ldr	r3, [r3, #0]
 80010be:	f003 0301 	and.w	r3, r3, #1
 80010c2:	2b00      	cmp	r3, #0
 80010c4:	f000 8087 	beq.w	80011d6 <HAL_RCC_OscConfig+0x12e>
  {
    /* Check the parameters */
    assert_param(IS_RCC_HSE(RCC_OscInitStruct->HSEState));

    /* When the HSE is used as system clock or clock source for PLL in these cases it is not allowed to be disabled */
    if ((__HAL_RCC_GET_SYSCLK_SOURCE() == RCC_SYSCLKSOURCE_STATUS_HSE)
 80010c8:	4b92      	ldr	r3, [pc, #584]	; (8001314 <HAL_RCC_OscConfig+0x26c>)
 80010ca:	685b      	ldr	r3, [r3, #4]
 80010cc:	f003 030c 	and.w	r3, r3, #12
 80010d0:	2b04      	cmp	r3, #4
 80010d2:	d00c      	beq.n	80010ee <HAL_RCC_OscConfig+0x46>
        || ((__HAL_RCC_GET_SYSCLK_SOURCE() == RCC_SYSCLKSOURCE_STATUS_PLLCLK) && (__HAL_RCC_GET_PLL_OSCSOURCE() == RCC_PLLSOURCE_HSE)))
 80010d4:	4b8f      	ldr	r3, [pc, #572]	; (8001314 <HAL_RCC_OscConfig+0x26c>)
 80010d6:	685b      	ldr	r3, [r3, #4]
 80010d8:	f003 030c 	and.w	r3, r3, #12
 80010dc:	2b08      	cmp	r3, #8
 80010de:	d112      	bne.n	8001106 <HAL_RCC_OscConfig+0x5e>
 80010e0:	4b8c      	ldr	r3, [pc, #560]	; (8001314 <HAL_RCC_OscConfig+0x26c>)
 80010e2:	685b      	ldr	r3, [r3, #4]
 80010e4:	f403 3380 	and.w	r3, r3, #65536	; 0x10000
 80010e8:	f5b3 3f80 	cmp.w	r3, #65536	; 0x10000
 80010ec:	d10b      	bne.n	8001106 <HAL_RCC_OscConfig+0x5e>
    {
      if ((__HAL_RCC_GET_FLAG(RCC_FLAG_HSERDY) != RESET) && (RCC_OscInitStruct->HSEState == RCC_HSE_OFF))
 80010ee:	4b89      	ldr	r3, [pc, #548]	; (8001314 <HAL_RCC_OscConfig+0x26c>)
 80010f0:	681b      	ldr	r3, [r3, #0]
 80010f2:	f403 3300 	and.w	r3, r3, #131072	; 0x20000
 80010f6:	2b00      	cmp	r3, #0
 80010f8:	d06c      	beq.n	80011d4 <HAL_RCC_OscConfig+0x12c>
 80010fa:	687b      	ldr	r3, [r7, #4]
 80010fc:	685b      	ldr	r3, [r3, #4]
 80010fe:	2b00      	cmp	r3, #0
 8001100:	d168      	bne.n	80011d4 <HAL_RCC_OscConfig+0x12c>
      {
        return HAL_ERROR;
 8001102:	2301      	movs	r3, #1
 8001104:	e246      	b.n	8001594 <HAL_RCC_OscConfig+0x4ec>
      }
    }
    else
    {
      /* Set the new HSE configuration ---------------------------------------*/
      __HAL_RCC_HSE_CONFIG(RCC_OscInitStruct->HSEState);
 8001106:	687b      	ldr	r3, [r7, #4]
 8001108:	685b      	ldr	r3, [r3, #4]
 800110a:	f5b3 3f80 	cmp.w	r3, #65536	; 0x10000
 800110e:	d106      	bne.n	800111e <HAL_RCC_OscConfig+0x76>
 8001110:	4b80      	ldr	r3, [pc, #512]	; (8001314 <HAL_RCC_OscConfig+0x26c>)
 8001112:	681b      	ldr	r3, [r3, #0]
 8001114:	4a7f      	ldr	r2, [pc, #508]	; (8001314 <HAL_RCC_OscConfig+0x26c>)
 8001116:	f443 3380 	orr.w	r3, r3, #65536	; 0x10000
 800111a:	6013      	str	r3, [r2, #0]
 800111c:	e02e      	b.n	800117c <HAL_RCC_OscConfig+0xd4>
 800111e:	687b      	ldr	r3, [r7, #4]
 8001120:	685b      	ldr	r3, [r3, #4]
 8001122:	2b00      	cmp	r3, #0
 8001124:	d10c      	bne.n	8001140 <HAL_RCC_OscConfig+0x98>
 8001126:	4b7b      	ldr	r3, [pc, #492]	; (8001314 <HAL_RCC_OscConfig+0x26c>)
 8001128:	681b      	ldr	r3, [r3, #0]
 800112a:	4a7a      	ldr	r2, [pc, #488]	; (8001314 <HAL_RCC_OscConfig+0x26c>)
 800112c:	f423 3380 	bic.w	r3, r3, #65536	; 0x10000
 8001130:	6013      	str	r3, [r2, #0]
 8001132:	4b78      	ldr	r3, [pc, #480]	; (8001314 <HAL_RCC_OscConfig+0x26c>)
 8001134:	681b      	ldr	r3, [r3, #0]
 8001136:	4a77      	ldr	r2, [pc, #476]	; (8001314 <HAL_RCC_OscConfig+0x26c>)
 8001138:	f423 2380 	bic.w	r3, r3, #262144	; 0x40000
 800113c:	6013      	str	r3, [r2, #0]
 800113e:	e01d      	b.n	800117c <HAL_RCC_OscConfig+0xd4>
 8001140:	687b      	ldr	r3, [r7, #4]
 8001142:	685b      	ldr	r3, [r3, #4]
 8001144:	f5b3 2fa0 	cmp.w	r3, #327680	; 0x50000
 8001148:	d10c      	bne.n	8001164 <HAL_RCC_OscConfig+0xbc>
 800114a:	4b72      	ldr	r3, [pc, #456]	; (8001314 <HAL_RCC_OscConfig+0x26c>)
 800114c:	681b      	ldr	r3, [r3, #0]
 800114e:	4a71      	ldr	r2, [pc, #452]	; (8001314 <HAL_RCC_OscConfig+0x26c>)
 8001150:	f443 2380 	orr.w	r3, r3, #262144	; 0x40000
 8001154:	6013      	str	r3, [r2, #0]
 8001156:	4b6f      	ldr	r3, [pc, #444]	; (8001314 <HAL_RCC_OscConfig+0x26c>)
 8001158:	681b      	ldr	r3, [r3, #0]
 800115a:	4a6e      	ldr	r2, [pc, #440]	; (8001314 <HAL_RCC_OscConfig+0x26c>)
 800115c:	f443 3380 	orr.w	r3, r3, #65536	; 0x10000
 8001160:	6013      	str	r3, [r2, #0]
 8001162:	e00b      	b.n	800117c <HAL_RCC_OscConfig+0xd4>
 8001164:	4b6b      	ldr	r3, [pc, #428]	; (8001314 <HAL_RCC_OscConfig+0x26c>)
 8001166:	681b      	ldr	r3, [r3, #0]
 8001168:	4a6a      	ldr	r2, [pc, #424]	; (8001314 <HAL_RCC_OscConfig+0x26c>)
 800116a:	f423 3380 	bic.w	r3, r3, #65536	; 0x10000
 800116e:	6013      	str	r3, [r2, #0]
 8001170:	4b68      	ldr	r3, [pc, #416]	; (8001314 <HAL_RCC_OscConfig+0x26c>)
 8001172:	681b      	ldr	r3, [r3, #0]
 8001174:	4a67      	ldr	r2, [pc, #412]	; (8001314 <HAL_RCC_OscConfig+0x26c>)
 8001176:	f423 2380 	bic.w	r3, r3, #262144	; 0x40000
 800117a:	6013      	str	r3, [r2, #0]


      /* Check the HSE State */
      if (RCC_OscInitStruct->HSEState != RCC_HSE_OFF)
 800117c:	687b      	ldr	r3, [r7, #4]
 800117e:	685b      	ldr	r3, [r3, #4]
 8001180:	2b00      	cmp	r3, #0
 8001182:	d013      	beq.n	80011ac <HAL_RCC_OscConfig+0x104>
      {
        /* Get Start Tick */
        tickstart = HAL_GetTick();
 8001184:	f7ff faba 	bl	80006fc <HAL_GetTick>
 8001188:	6138      	str	r0, [r7, #16]

        /* Wait till HSE is ready */
        while (__HAL_RCC_GET_FLAG(RCC_FLAG_HSERDY) == RESET)
 800118a:	e008      	b.n	800119e <HAL_RCC_OscConfig+0xf6>
        {
          if ((HAL_GetTick() - tickstart) > HSE_TIMEOUT_VALUE)
 800118c:	f7ff fab6 	bl	80006fc <HAL_GetTick>
 8001190:	4602      	mov	r2, r0
 8001192:	693b      	ldr	r3, [r7, #16]
 8001194:	1ad3      	subs	r3, r2, r3
 8001196:	2b64      	cmp	r3, #100	; 0x64
 8001198:	d901      	bls.n	800119e <HAL_RCC_OscConfig+0xf6>
          {
            return HAL_TIMEOUT;
 800119a:	2303      	movs	r3, #3
 800119c:	e1fa      	b.n	8001594 <HAL_RCC_OscConfig+0x4ec>
        while (__HAL_RCC_GET_FLAG(RCC_FLAG_HSERDY) == RESET)
 800119e:	4b5d      	ldr	r3, [pc, #372]	; (8001314 <HAL_RCC_OscConfig+0x26c>)
 80011a0:	681b      	ldr	r3, [r3, #0]
 80011a2:	f403 3300 	and.w	r3, r3, #131072	; 0x20000
 80011a6:	2b00      	cmp	r3, #0
 80011a8:	d0f0      	beq.n	800118c <HAL_RCC_OscConfig+0xe4>
 80011aa:	e014      	b.n	80011d6 <HAL_RCC_OscConfig+0x12e>
        }
      }
      else
      {
        /* Get Start Tick */
        tickstart = HAL_GetTick();
 80011ac:	f7ff faa6 	bl	80006fc <HAL_GetTick>
 80011b0:	6138      	str	r0, [r7, #16]

        /* Wait till HSE is disabled */
        while (__HAL_RCC_GET_FLAG(RCC_FLAG_HSERDY) != RESET)
 80011b2:	e008      	b.n	80011c6 <HAL_RCC_OscConfig+0x11e>
        {
          if ((HAL_GetTick() - tickstart) > HSE_TIMEOUT_VALUE)
 80011b4:	f7ff faa2 	bl	80006fc <HAL_GetTick>
 80011b8:	4602      	mov	r2, r0
 80011ba:	693b      	ldr	r3, [r7, #16]
 80011bc:	1ad3      	subs	r3, r2, r3
 80011be:	2b64      	cmp	r3, #100	; 0x64
 80011c0:	d901      	bls.n	80011c6 <HAL_RCC_OscConfig+0x11e>
          {
            return HAL_TIMEOUT;
 80011c2:	2303      	movs	r3, #3
 80011c4:	e1e6      	b.n	8001594 <HAL_RCC_OscConfig+0x4ec>
        while (__HAL_RCC_GET_FLAG(RCC_FLAG_HSERDY) != RESET)
 80011c6:	4b53      	ldr	r3, [pc, #332]	; (8001314 <HAL_RCC_OscConfig+0x26c>)
 80011c8:	681b      	ldr	r3, [r3, #0]
 80011ca:	f403 3300 	and.w	r3, r3, #131072	; 0x20000
 80011ce:	2b00      	cmp	r3, #0
 80011d0:	d1f0      	bne.n	80011b4 <HAL_RCC_OscConfig+0x10c>
 80011d2:	e000      	b.n	80011d6 <HAL_RCC_OscConfig+0x12e>
      if ((__HAL_RCC_GET_FLAG(RCC_FLAG_HSERDY) != RESET) && (RCC_OscInitStruct->HSEState == RCC_HSE_OFF))
 80011d4:	bf00      	nop
        }
      }
    }
  }
  /*----------------------------- HSI Configuration --------------------------*/
  if (((RCC_OscInitStruct->OscillatorType) & RCC_OSCILLATORTYPE_HSI) == RCC_OSCILLATORTYPE_HSI)
 80011d6:	687b      	ldr	r3, [r7, #4]
 80011d8:	681b      	ldr	r3, [r3, #0]
 80011da:	f003 0302 	and.w	r3, r3, #2
 80011de:	2b00      	cmp	r3, #0
 80011e0:	d063      	beq.n	80012aa <HAL_RCC_OscConfig+0x202>
    /* Check the parameters */
    assert_param(IS_RCC_HSI(RCC_OscInitStruct->HSIState));
    assert_param(IS_RCC_CALIBRATION_VALUE(RCC_OscInitStruct->HSICalibrationValue));

    /* Check if HSI is used as system clock or as PLL source when PLL is selected as system clock */
    if ((__HAL_RCC_GET_SYSCLK_SOURCE() == RCC_SYSCLKSOURCE_STATUS_HSI)
 80011e2:	4b4c      	ldr	r3, [pc, #304]	; (8001314 <HAL_RCC_OscConfig+0x26c>)
 80011e4:	685b      	ldr	r3, [r3, #4]
 80011e6:	f003 030c 	and.w	r3, r3, #12
 80011ea:	2b00      	cmp	r3, #0
 80011ec:	d00b      	beq.n	8001206 <HAL_RCC_OscConfig+0x15e>
        || ((__HAL_RCC_GET_SYSCLK_SOURCE() == RCC_SYSCLKSOURCE_STATUS_PLLCLK) && (__HAL_RCC_GET_PLL_OSCSOURCE() == RCC_PLLSOURCE_HSI_DIV2)))
 80011ee:	4b49      	ldr	r3, [pc, #292]	; (8001314 <HAL_RCC_OscConfig+0x26c>)
 80011f0:	685b      	ldr	r3, [r3, #4]
 80011f2:	f003 030c 	and.w	r3, r3, #12
 80011f6:	2b08      	cmp	r3, #8
 80011f8:	d11c      	bne.n	8001234 <HAL_RCC_OscConfig+0x18c>
 80011fa:	4b46      	ldr	r3, [pc, #280]	; (8001314 <HAL_RCC_OscConfig+0x26c>)
 80011fc:	685b      	ldr	r3, [r3, #4]
 80011fe:	f403 3380 	and.w	r3, r3, #65536	; 0x10000
 8001202:	2b00      	cmp	r3, #0
 8001204:	d116      	bne.n	8001234 <HAL_RCC_OscConfig+0x18c>
    {
      /* When HSI is used as system clock it will not disabled */
      if ((__HAL_RCC_GET_FLAG(RCC_FLAG_HSIRDY) != RESET) && (RCC_OscInitStruct->HSIState != RCC_HSI_ON))
 8001206:	4b43      	ldr	r3, [pc, #268]	; (8001314 <HAL_RCC_OscConfig+0x26c>)
 8001208:	681b      	ldr	r3, [r3, #0]
 800120a:	f003 0302 	and.w	r3, r3, #2
 800120e:	2b00      	cmp	r3, #0
 8001210:	d005      	beq.n	800121e <HAL_RCC_OscConfig+0x176>
 8001212:	687b      	ldr	r3, [r7, #4]
 8001214:	691b      	ldr	r3, [r3, #16]
 8001216:	2b01      	cmp	r3, #1
 8001218:	d001      	beq.n	800121e <HAL_RCC_OscConfig+0x176>
      {
        return HAL_ERROR;
 800121a:	2301      	movs	r3, #1
 800121c:	e1ba      	b.n	8001594 <HAL_RCC_OscConfig+0x4ec>
      }
      /* Otherwise, just the calibration is allowed */
      else
      {
        /* Adjusts the Internal High Speed oscillator (HSI) calibration value.*/
        __HAL_RCC_HSI_CALIBRATIONVALUE_ADJUST(RCC_OscInitStruct->HSICalibrationValue);
 800121e:	4b3d      	ldr	r3, [pc, #244]	; (8001314 <HAL_RCC_OscConfig+0x26c>)
 8001220:	681b      	ldr	r3, [r3, #0]
 8001222:	f023 02f8 	bic.w	r2, r3, #248	; 0xf8
 8001226:	687b      	ldr	r3, [r7, #4]
 8001228:	695b      	ldr	r3, [r3, #20]
 800122a:	00db      	lsls	r3, r3, #3
 800122c:	4939      	ldr	r1, [pc, #228]	; (8001314 <HAL_RCC_OscConfig+0x26c>)
 800122e:	4313      	orrs	r3, r2
 8001230:	600b      	str	r3, [r1, #0]
      if ((__HAL_RCC_GET_FLAG(RCC_FLAG_HSIRDY) != RESET) && (RCC_OscInitStruct->HSIState != RCC_HSI_ON))
 8001232:	e03a      	b.n	80012aa <HAL_RCC_OscConfig+0x202>
      }
    }
    else
    {
      /* Check the HSI State */
      if (RCC_OscInitStruct->HSIState != RCC_HSI_OFF)
 8001234:	687b      	ldr	r3, [r7, #4]
 8001236:	691b      	ldr	r3, [r3, #16]
 8001238:	2b00      	cmp	r3, #0
 800123a:	d020      	beq.n	800127e <HAL_RCC_OscConfig+0x1d6>
      {
        /* Enable the Internal High Speed oscillator (HSI). */
        __HAL_RCC_HSI_ENABLE();
 800123c:	4b36      	ldr	r3, [pc, #216]	; (8001318 <HAL_RCC_OscConfig+0x270>)
 800123e:	2201      	movs	r2, #1
 8001240:	601a      	str	r2, [r3, #0]

        /* Get Start Tick */
        tickstart = HAL_GetTick();
 8001242:	f7ff fa5b 	bl	80006fc <HAL_GetTick>
 8001246:	6138      	str	r0, [r7, #16]

        /* Wait till HSI is ready */
        while (__HAL_RCC_GET_FLAG(RCC_FLAG_HSIRDY) == RESET)
 8001248:	e008      	b.n	800125c <HAL_RCC_OscConfig+0x1b4>
        {
          if ((HAL_GetTick() - tickstart) > HSI_TIMEOUT_VALUE)
 800124a:	f7ff fa57 	bl	80006fc <HAL_GetTick>
 800124e:	4602      	mov	r2, r0
 8001250:	693b      	ldr	r3, [r7, #16]
 8001252:	1ad3      	subs	r3, r2, r3
 8001254:	2b02      	cmp	r3, #2
 8001256:	d901      	bls.n	800125c <HAL_RCC_OscConfig+0x1b4>
          {
            return HAL_TIMEOUT;
 8001258:	2303      	movs	r3, #3
 800125a:	e19b      	b.n	8001594 <HAL_RCC_OscConfig+0x4ec>
        while (__HAL_RCC_GET_FLAG(RCC_FLAG_HSIRDY) == RESET)
 800125c:	4b2d      	ldr	r3, [pc, #180]	; (8001314 <HAL_RCC_OscConfig+0x26c>)
 800125e:	681b      	ldr	r3, [r3, #0]
 8001260:	f003 0302 	and.w	r3, r3, #2
 8001264:	2b00      	cmp	r3, #0
 8001266:	d0f0      	beq.n	800124a <HAL_RCC_OscConfig+0x1a2>
          }
        }

        /* Adjusts the Internal High Speed oscillator (HSI) calibration value.*/
        __HAL_RCC_HSI_CALIBRATIONVALUE_ADJUST(RCC_OscInitStruct->HSICalibrationValue);
 8001268:	4b2a      	ldr	r3, [pc, #168]	; (8001314 <HAL_RCC_OscConfig+0x26c>)
 800126a:	681b      	ldr	r3, [r3, #0]
 800126c:	f023 02f8 	bic.w	r2, r3, #248	; 0xf8
 8001270:	687b      	ldr	r3, [r7, #4]
 8001272:	695b      	ldr	r3, [r3, #20]
 8001274:	00db      	lsls	r3, r3, #3
 8001276:	4927      	ldr	r1, [pc, #156]	; (8001314 <HAL_RCC_OscConfig+0x26c>)
 8001278:	4313      	orrs	r3, r2
 800127a:	600b      	str	r3, [r1, #0]
 800127c:	e015      	b.n	80012aa <HAL_RCC_OscConfig+0x202>
      }
      else
      {
        /* Disable the Internal High Speed oscillator (HSI). */
        __HAL_RCC_HSI_DISABLE();
 800127e:	4b26      	ldr	r3, [pc, #152]	; (8001318 <HAL_RCC_OscConfig+0x270>)
 8001280:	2200      	movs	r2, #0
 8001282:	601a      	str	r2, [r3, #0]

        /* Get Start Tick */
        tickstart = HAL_GetTick();
 8001284:	f7ff fa3a 	bl	80006fc <HAL_GetTick>
 8001288:	6138      	str	r0, [r7, #16]

        /* Wait till HSI is disabled */
        while (__HAL_RCC_GET_FLAG(RCC_FLAG_HSIRDY) != RESET)
 800128a:	e008      	b.n	800129e <HAL_RCC_OscConfig+0x1f6>
        {
          if ((HAL_GetTick() - tickstart) > HSI_TIMEOUT_VALUE)
 800128c:	f7ff fa36 	bl	80006fc <HAL_GetTick>
 8001290:	4602      	mov	r2, r0
 8001292:	693b      	ldr	r3, [r7, #16]
 8001294:	1ad3      	subs	r3, r2, r3
 8001296:	2b02      	cmp	r3, #2
 8001298:	d901      	bls.n	800129e <HAL_RCC_OscConfig+0x1f6>
          {
            return HAL_TIMEOUT;
 800129a:	2303      	movs	r3, #3
 800129c:	e17a      	b.n	8001594 <HAL_RCC_OscConfig+0x4ec>
        while (__HAL_RCC_GET_FLAG(RCC_FLAG_HSIRDY) != RESET)
 800129e:	4b1d      	ldr	r3, [pc, #116]	; (8001314 <HAL_RCC_OscConfig+0x26c>)
 80012a0:	681b      	ldr	r3, [r3, #0]
 80012a2:	f003 0302 	and.w	r3, r3, #2
 80012a6:	2b00      	cmp	r3, #0
 80012a8:	d1f0      	bne.n	800128c <HAL_RCC_OscConfig+0x1e4>
        }
      }
    }
  }
  /*------------------------------ LSI Configuration -------------------------*/
  if (((RCC_OscInitStruct->OscillatorType) & RCC_OSCILLATORTYPE_LSI) == RCC_OSCILLATORTYPE_LSI)
 80012aa:	687b      	ldr	r3, [r7, #4]
 80012ac:	681b      	ldr	r3, [r3, #0]
 80012ae:	f003 0308 	and.w	r3, r3, #8
 80012b2:	2b00      	cmp	r3, #0
 80012b4:	d03a      	beq.n	800132c <HAL_RCC_OscConfig+0x284>
  {
    /* Check the parameters */
    assert_param(IS_RCC_LSI(RCC_OscInitStruct->LSIState));

    /* Check the LSI State */
    if (RCC_OscInitStruct->LSIState != RCC_LSI_OFF)
 80012b6:	687b      	ldr	r3, [r7, #4]
 80012b8:	699b      	ldr	r3, [r3, #24]
 80012ba:	2b00      	cmp	r3, #0
 80012bc:	d019      	beq.n	80012f2 <HAL_RCC_OscConfig+0x24a>
    {
      /* Enable the Internal Low Speed oscillator (LSI). */
      __HAL_RCC_LSI_ENABLE();
 80012be:	4b17      	ldr	r3, [pc, #92]	; (800131c <HAL_RCC_OscConfig+0x274>)
 80012c0:	2201      	movs	r2, #1
 80012c2:	601a      	str	r2, [r3, #0]

      /* Get Start Tick */
      tickstart = HAL_GetTick();
 80012c4:	f7ff fa1a 	bl	80006fc <HAL_GetTick>
 80012c8:	6138      	str	r0, [r7, #16]

      /* Wait till LSI is ready */
      while (__HAL_RCC_GET_FLAG(RCC_FLAG_LSIRDY) == RESET)
 80012ca:	e008      	b.n	80012de <HAL_RCC_OscConfig+0x236>
      {
        if ((HAL_GetTick() - tickstart) > LSI_TIMEOUT_VALUE)
 80012cc:	f7ff fa16 	bl	80006fc <HAL_GetTick>
 80012d0:	4602      	mov	r2, r0
 80012d2:	693b      	ldr	r3, [r7, #16]
 80012d4:	1ad3      	subs	r3, r2, r3
 80012d6:	2b02      	cmp	r3, #2
 80012d8:	d901      	bls.n	80012de <HAL_RCC_OscConfig+0x236>
        {
          return HAL_TIMEOUT;
 80012da:	2303      	movs	r3, #3
 80012dc:	e15a      	b.n	8001594 <HAL_RCC_OscConfig+0x4ec>
      while (__HAL_RCC_GET_FLAG(RCC_FLAG_LSIRDY) == RESET)
 80012de:	4b0d      	ldr	r3, [pc, #52]	; (8001314 <HAL_RCC_OscConfig+0x26c>)
 80012e0:	6a5b      	ldr	r3, [r3, #36]	; 0x24
 80012e2:	f003 0302 	and.w	r3, r3, #2
 80012e6:	2b00      	cmp	r3, #0
 80012e8:	d0f0      	beq.n	80012cc <HAL_RCC_OscConfig+0x224>
        }
      }
      /*  To have a fully stabilized clock in the specified range, a software delay of 1ms
          should be added.*/
      RCC_Delay(1);
 80012ea:	2001      	movs	r0, #1
 80012ec:	f000 fada 	bl	80018a4 <RCC_Delay>
 80012f0:	e01c      	b.n	800132c <HAL_RCC_OscConfig+0x284>
    }
    else
    {
      /* Disable the Internal Low Speed oscillator (LSI). */
      __HAL_RCC_LSI_DISABLE();
 80012f2:	4b0a      	ldr	r3, [pc, #40]	; (800131c <HAL_RCC_OscConfig+0x274>)
 80012f4:	2200      	movs	r2, #0
 80012f6:	601a      	str	r2, [r3, #0]

      /* Get Start Tick */
      tickstart = HAL_GetTick();
 80012f8:	f7ff fa00 	bl	80006fc <HAL_GetTick>
 80012fc:	6138      	str	r0, [r7, #16]

      /* Wait till LSI is disabled */
      while (__HAL_RCC_GET_FLAG(RCC_FLAG_LSIRDY) != RESET)
 80012fe:	e00f      	b.n	8001320 <HAL_RCC_OscConfig+0x278>
      {
        if ((HAL_GetTick() - tickstart) > LSI_TIMEOUT_VALUE)
 8001300:	f7ff f9fc 	bl	80006fc <HAL_GetTick>
 8001304:	4602      	mov	r2, r0
 8001306:	693b      	ldr	r3, [r7, #16]
 8001308:	1ad3      	subs	r3, r2, r3
 800130a:	2b02      	cmp	r3, #2
 800130c:	d908      	bls.n	8001320 <HAL_RCC_OscConfig+0x278>
        {
          return HAL_TIMEOUT;
 800130e:	2303      	movs	r3, #3
 8001310:	e140      	b.n	8001594 <HAL_RCC_OscConfig+0x4ec>
 8001312:	bf00      	nop
 8001314:	40021000 	.word	0x40021000
 8001318:	42420000 	.word	0x42420000
 800131c:	42420480 	.word	0x42420480
      while (__HAL_RCC_GET_FLAG(RCC_FLAG_LSIRDY) != RESET)
 8001320:	4b9e      	ldr	r3, [pc, #632]	; (800159c <HAL_RCC_OscConfig+0x4f4>)
 8001322:	6a5b      	ldr	r3, [r3, #36]	; 0x24
 8001324:	f003 0302 	and.w	r3, r3, #2
 8001328:	2b00      	cmp	r3, #0
 800132a:	d1e9      	bne.n	8001300 <HAL_RCC_OscConfig+0x258>
        }
      }
    }
  }
  /*------------------------------ LSE Configuration -------------------------*/
  if (((RCC_OscInitStruct->OscillatorType) & RCC_OSCILLATORTYPE_LSE) == RCC_OSCILLATORTYPE_LSE)
 800132c:	687b      	ldr	r3, [r7, #4]
 800132e:	681b      	ldr	r3, [r3, #0]
 8001330:	f003 0304 	and.w	r3, r3, #4
 8001334:	2b00      	cmp	r3, #0
 8001336:	f000 80a6 	beq.w	8001486 <HAL_RCC_OscConfig+0x3de>
  {
    FlagStatus       pwrclkchanged = RESET;
 800133a:	2300      	movs	r3, #0
 800133c:	75fb      	strb	r3, [r7, #23]
    /* Check the parameters */
    assert_param(IS_RCC_LSE(RCC_OscInitStruct->LSEState));

    /* Update LSE configuration in Backup Domain control register    */
    /* Requires to enable write access to Backup Domain of necessary */
    if (__HAL_RCC_PWR_IS_CLK_DISABLED())
 800133e:	4b97      	ldr	r3, [pc, #604]	; (800159c <HAL_RCC_OscConfig+0x4f4>)
 8001340:	69db      	ldr	r3, [r3, #28]
 8001342:	f003 5380 	and.w	r3, r3, #268435456	; 0x10000000
 8001346:	2b00      	cmp	r3, #0
 8001348:	d10d      	bne.n	8001366 <HAL_RCC_OscConfig+0x2be>
    {
      __HAL_RCC_PWR_CLK_ENABLE();
 800134a:	4b94      	ldr	r3, [pc, #592]	; (800159c <HAL_RCC_OscConfig+0x4f4>)
 800134c:	69db      	ldr	r3, [r3, #28]
 800134e:	4a93      	ldr	r2, [pc, #588]	; (800159c <HAL_RCC_OscConfig+0x4f4>)
 8001350:	f043 5380 	orr.w	r3, r3, #268435456	; 0x10000000
 8001354:	61d3      	str	r3, [r2, #28]
 8001356:	4b91      	ldr	r3, [pc, #580]	; (800159c <HAL_RCC_OscConfig+0x4f4>)
 8001358:	69db      	ldr	r3, [r3, #28]
 800135a:	f003 5380 	and.w	r3, r3, #268435456	; 0x10000000
 800135e:	60bb      	str	r3, [r7, #8]
 8001360:	68bb      	ldr	r3, [r7, #8]
      pwrclkchanged = SET;
 8001362:	2301      	movs	r3, #1
 8001364:	75fb      	strb	r3, [r7, #23]
    }

    if (HAL_IS_BIT_CLR(PWR->CR, PWR_CR_DBP))
 8001366:	4b8e      	ldr	r3, [pc, #568]	; (80015a0 <HAL_RCC_OscConfig+0x4f8>)
 8001368:	681b      	ldr	r3, [r3, #0]
 800136a:	f403 7380 	and.w	r3, r3, #256	; 0x100
 800136e:	2b00      	cmp	r3, #0
 8001370:	d118      	bne.n	80013a4 <HAL_RCC_OscConfig+0x2fc>
    {
      /* Enable write access to Backup domain */
      SET_BIT(PWR->CR, PWR_CR_DBP);
 8001372:	4b8b      	ldr	r3, [pc, #556]	; (80015a0 <HAL_RCC_OscConfig+0x4f8>)
 8001374:	681b      	ldr	r3, [r3, #0]
 8001376:	4a8a      	ldr	r2, [pc, #552]	; (80015a0 <HAL_RCC_OscConfig+0x4f8>)
 8001378:	f443 7380 	orr.w	r3, r3, #256	; 0x100
 800137c:	6013      	str	r3, [r2, #0]

      /* Wait for Backup domain Write protection disable */
      tickstart = HAL_GetTick();
 800137e:	f7ff f9bd 	bl	80006fc <HAL_GetTick>
 8001382:	6138      	str	r0, [r7, #16]

      while (HAL_IS_BIT_CLR(PWR->CR, PWR_CR_DBP))
 8001384:	e008      	b.n	8001398 <HAL_RCC_OscConfig+0x2f0>
      {
        if ((HAL_GetTick() - tickstart) > RCC_DBP_TIMEOUT_VALUE)
 8001386:	f7ff f9b9 	bl	80006fc <HAL_GetTick>
 800138a:	4602      	mov	r2, r0
 800138c:	693b      	ldr	r3, [r7, #16]
 800138e:	1ad3      	subs	r3, r2, r3
 8001390:	2b64      	cmp	r3, #100	; 0x64
 8001392:	d901      	bls.n	8001398 <HAL_RCC_OscConfig+0x2f0>
        {
          return HAL_TIMEOUT;
 8001394:	2303      	movs	r3, #3
 8001396:	e0fd      	b.n	8001594 <HAL_RCC_OscConfig+0x4ec>
      while (HAL_IS_BIT_CLR(PWR->CR, PWR_CR_DBP))
 8001398:	4b81      	ldr	r3, [pc, #516]	; (80015a0 <HAL_RCC_OscConfig+0x4f8>)
 800139a:	681b      	ldr	r3, [r3, #0]
 800139c:	f403 7380 	and.w	r3, r3, #256	; 0x100
 80013a0:	2b00      	cmp	r3, #0
 80013a2:	d0f0      	beq.n	8001386 <HAL_RCC_OscConfig+0x2de>
        }
      }
    }

    /* Set the new LSE configuration -----------------------------------------*/
    __HAL_RCC_LSE_CONFIG(RCC_OscInitStruct->LSEState);
 80013a4:	687b      	ldr	r3, [r7, #4]
 80013a6:	68db      	ldr	r3, [r3, #12]
 80013a8:	2b01      	cmp	r3, #1
 80013aa:	d106      	bne.n	80013ba <HAL_RCC_OscConfig+0x312>
 80013ac:	4b7b      	ldr	r3, [pc, #492]	; (800159c <HAL_RCC_OscConfig+0x4f4>)
 80013ae:	6a1b      	ldr	r3, [r3, #32]
 80013b0:	4a7a      	ldr	r2, [pc, #488]	; (800159c <HAL_RCC_OscConfig+0x4f4>)
 80013b2:	f043 0301 	orr.w	r3, r3, #1
 80013b6:	6213      	str	r3, [r2, #32]
 80013b8:	e02d      	b.n	8001416 <HAL_RCC_OscConfig+0x36e>
 80013ba:	687b      	ldr	r3, [r7, #4]
 80013bc:	68db      	ldr	r3, [r3, #12]
 80013be:	2b00      	cmp	r3, #0
 80013c0:	d10c      	bne.n	80013dc <HAL_RCC_OscConfig+0x334>
 80013c2:	4b76      	ldr	r3, [pc, #472]	; (800159c <HAL_RCC_OscConfig+0x4f4>)
 80013c4:	6a1b      	ldr	r3, [r3, #32]
 80013c6:	4a75      	ldr	r2, [pc, #468]	; (800159c <HAL_RCC_OscConfig+0x4f4>)
 80013c8:	f023 0301 	bic.w	r3, r3, #1
 80013cc:	6213      	str	r3, [r2, #32]
 80013ce:	4b73      	ldr	r3, [pc, #460]	; (800159c <HAL_RCC_OscConfig+0x4f4>)
 80013d0:	6a1b      	ldr	r3, [r3, #32]
 80013d2:	4a72      	ldr	r2, [pc, #456]	; (800159c <HAL_RCC_OscConfig+0x4f4>)
 80013d4:	f023 0304 	bic.w	r3, r3, #4
 80013d8:	6213      	str	r3, [r2, #32]
 80013da:	e01c      	b.n	8001416 <HAL_RCC_OscConfig+0x36e>
 80013dc:	687b      	ldr	r3, [r7, #4]
 80013de:	68db      	ldr	r3, [r3, #12]
 80013e0:	2b05      	cmp	r3, #5
 80013e2:	d10c      	bne.n	80013fe <HAL_RCC_OscConfig+0x356>
 80013e4:	4b6d      	ldr	r3, [pc, #436]	; (800159c <HAL_RCC_OscConfig+0x4f4>)
 80013e6:	6a1b      	ldr	r3, [r3, #32]
 80013e8:	4a6c      	ldr	r2, [pc, #432]	; (800159c <HAL_RCC_OscConfig+0x4f4>)
 80013ea:	f043 0304 	orr.w	r3, r3, #4
 80013ee:	6213      	str	r3, [r2, #32]
 80013f0:	4b6a      	ldr	r3, [pc, #424]	; (800159c <HAL_RCC_OscConfig+0x4f4>)
 80013f2:	6a1b      	ldr	r3, [r3, #32]
 80013f4:	4a69      	ldr	r2, [pc, #420]	; (800159c <HAL_RCC_OscConfig+0x4f4>)
 80013f6:	f043 0301 	orr.w	r3, r3, #1
 80013fa:	6213      	str	r3, [r2, #32]
 80013fc:	e00b      	b.n	8001416 <HAL_RCC_OscConfig+0x36e>
 80013fe:	4b67      	ldr	r3, [pc, #412]	; (800159c <HAL_RCC_OscConfig+0x4f4>)
 8001400:	6a1b      	ldr	r3, [r3, #32]
 8001402:	4a66      	ldr	r2, [pc, #408]	; (800159c <HAL_RCC_OscConfig+0x4f4>)
 8001404:	f023 0301 	bic.w	r3, r3, #1
 8001408:	6213      	str	r3, [r2, #32]
 800140a:	4b64      	ldr	r3, [pc, #400]	; (800159c <HAL_RCC_OscConfig+0x4f4>)
 800140c:	6a1b      	ldr	r3, [r3, #32]
 800140e:	4a63      	ldr	r2, [pc, #396]	; (800159c <HAL_RCC_OscConfig+0x4f4>)
 8001410:	f023 0304 	bic.w	r3, r3, #4
 8001414:	6213      	str	r3, [r2, #32]
    /* Check the LSE State */
    if (RCC_OscInitStruct->LSEState != RCC_LSE_OFF)
 8001416:	687b      	ldr	r3, [r7, #4]
 8001418:	68db      	ldr	r3, [r3, #12]
 800141a:	2b00      	cmp	r3, #0
 800141c:	d015      	beq.n	800144a <HAL_RCC_OscConfig+0x3a2>
    {
      /* Get Start Tick */
      tickstart = HAL_GetTick();
 800141e:	f7ff f96d 	bl	80006fc <HAL_GetTick>
 8001422:	6138      	str	r0, [r7, #16]

      /* Wait till LSE is ready */
      while (__HAL_RCC_GET_FLAG(RCC_FLAG_LSERDY) == RESET)
 8001424:	e00a      	b.n	800143c <HAL_RCC_OscConfig+0x394>
      {
        if ((HAL_GetTick() - tickstart) > RCC_LSE_TIMEOUT_VALUE)
 8001426:	f7ff f969 	bl	80006fc <HAL_GetTick>
 800142a:	4602      	mov	r2, r0
 800142c:	693b      	ldr	r3, [r7, #16]
 800142e:	1ad3      	subs	r3, r2, r3
 8001430:	f241 3288 	movw	r2, #5000	; 0x1388
 8001434:	4293      	cmp	r3, r2
 8001436:	d901      	bls.n	800143c <HAL_RCC_OscConfig+0x394>
        {
          return HAL_TIMEOUT;
 8001438:	2303      	movs	r3, #3
 800143a:	e0ab      	b.n	8001594 <HAL_RCC_OscConfig+0x4ec>
      while (__HAL_RCC_GET_FLAG(RCC_FLAG_LSERDY) == RESET)
 800143c:	4b57      	ldr	r3, [pc, #348]	; (800159c <HAL_RCC_OscConfig+0x4f4>)
 800143e:	6a1b      	ldr	r3, [r3, #32]
 8001440:	f003 0302 	and.w	r3, r3, #2
 8001444:	2b00      	cmp	r3, #0
 8001446:	d0ee      	beq.n	8001426 <HAL_RCC_OscConfig+0x37e>
 8001448:	e014      	b.n	8001474 <HAL_RCC_OscConfig+0x3cc>
      }
    }
    else
    {
      /* Get Start Tick */
      tickstart = HAL_GetTick();
 800144a:	f7ff f957 	bl	80006fc <HAL_GetTick>
 800144e:	6138      	str	r0, [r7, #16]

      /* Wait till LSE is disabled */
      while (__HAL_RCC_GET_FLAG(RCC_FLAG_LSERDY) != RESET)
 8001450:	e00a      	b.n	8001468 <HAL_RCC_OscConfig+0x3c0>
      {
        if ((HAL_GetTick() - tickstart) > RCC_LSE_TIMEOUT_VALUE)
 8001452:	f7ff f953 	bl	80006fc <HAL_GetTick>
 8001456:	4602      	mov	r2, r0
 8001458:	693b      	ldr	r3, [r7, #16]
 800145a:	1ad3      	subs	r3, r2, r3
 800145c:	f241 3288 	movw	r2, #5000	; 0x1388
 8001460:	4293      	cmp	r3, r2
 8001462:	d901      	bls.n	8001468 <HAL_RCC_OscConfig+0x3c0>
        {
          return HAL_TIMEOUT;
 8001464:	2303      	movs	r3, #3
 8001466:	e095      	b.n	8001594 <HAL_RCC_OscConfig+0x4ec>
      while (__HAL_RCC_GET_FLAG(RCC_FLAG_LSERDY) != RESET)
 8001468:	4b4c      	ldr	r3, [pc, #304]	; (800159c <HAL_RCC_OscConfig+0x4f4>)
 800146a:	6a1b      	ldr	r3, [r3, #32]
 800146c:	f003 0302 	and.w	r3, r3, #2
 8001470:	2b00      	cmp	r3, #0
 8001472:	d1ee      	bne.n	8001452 <HAL_RCC_OscConfig+0x3aa>
        }
      }
    }

    /* Require to disable power clock if necessary */
    if (pwrclkchanged == SET)
 8001474:	7dfb      	ldrb	r3, [r7, #23]
 8001476:	2b01      	cmp	r3, #1
 8001478:	d105      	bne.n	8001486 <HAL_RCC_OscConfig+0x3de>
    {
      __HAL_RCC_PWR_CLK_DISABLE();
 800147a:	4b48      	ldr	r3, [pc, #288]	; (800159c <HAL_RCC_OscConfig+0x4f4>)
 800147c:	69db      	ldr	r3, [r3, #28]
 800147e:	4a47      	ldr	r2, [pc, #284]	; (800159c <HAL_RCC_OscConfig+0x4f4>)
 8001480:	f023 5380 	bic.w	r3, r3, #268435456	; 0x10000000
 8001484:	61d3      	str	r3, [r2, #28]

#endif /* RCC_CR_PLL2ON */
  /*-------------------------------- PLL Configuration -----------------------*/
  /* Check the parameters */
  assert_param(IS_RCC_PLL(RCC_OscInitStruct->PLL.PLLState));
  if ((RCC_OscInitStruct->PLL.PLLState) != RCC_PLL_NONE)
 8001486:	687b      	ldr	r3, [r7, #4]
 8001488:	69db      	ldr	r3, [r3, #28]
 800148a:	2b00      	cmp	r3, #0
 800148c:	f000 8081 	beq.w	8001592 <HAL_RCC_OscConfig+0x4ea>
  {
    /* Check if the PLL is used as system clock or not */
    if (__HAL_RCC_GET_SYSCLK_SOURCE() != RCC_SYSCLKSOURCE_STATUS_PLLCLK)
 8001490:	4b42      	ldr	r3, [pc, #264]	; (800159c <HAL_RCC_OscConfig+0x4f4>)
 8001492:	685b      	ldr	r3, [r3, #4]
 8001494:	f003 030c 	and.w	r3, r3, #12
 8001498:	2b08      	cmp	r3, #8
 800149a:	d061      	beq.n	8001560 <HAL_RCC_OscConfig+0x4b8>
    {
      if ((RCC_OscInitStruct->PLL.PLLState) == RCC_PLL_ON)
 800149c:	687b      	ldr	r3, [r7, #4]
 800149e:	69db      	ldr	r3, [r3, #28]
 80014a0:	2b02      	cmp	r3, #2
 80014a2:	d146      	bne.n	8001532 <HAL_RCC_OscConfig+0x48a>
        /* Check the parameters */
        assert_param(IS_RCC_PLLSOURCE(RCC_OscInitStruct->PLL.PLLSource));
        assert_param(IS_RCC_PLL_MUL(RCC_OscInitStruct->PLL.PLLMUL));

        /* Disable the main PLL. */
        __HAL_RCC_PLL_DISABLE();
 80014a4:	4b3f      	ldr	r3, [pc, #252]	; (80015a4 <HAL_RCC_OscConfig+0x4fc>)
 80014a6:	2200      	movs	r2, #0
 80014a8:	601a      	str	r2, [r3, #0]

        /* Get Start Tick */
        tickstart = HAL_GetTick();
 80014aa:	f7ff f927 	bl	80006fc <HAL_GetTick>
 80014ae:	6138      	str	r0, [r7, #16]

        /* Wait till PLL is disabled */
        while (__HAL_RCC_GET_FLAG(RCC_FLAG_PLLRDY)  != RESET)
 80014b0:	e008      	b.n	80014c4 <HAL_RCC_OscConfig+0x41c>
        {
          if ((HAL_GetTick() - tickstart) > PLL_TIMEOUT_VALUE)
 80014b2:	f7ff f923 	bl	80006fc <HAL_GetTick>
 80014b6:	4602      	mov	r2, r0
 80014b8:	693b      	ldr	r3, [r7, #16]
 80014ba:	1ad3      	subs	r3, r2, r3
 80014bc:	2b02      	cmp	r3, #2
 80014be:	d901      	bls.n	80014c4 <HAL_RCC_OscConfig+0x41c>
          {
            return HAL_TIMEOUT;
 80014c0:	2303      	movs	r3, #3
 80014c2:	e067      	b.n	8001594 <HAL_RCC_OscConfig+0x4ec>
        while (__HAL_RCC_GET_FLAG(RCC_FLAG_PLLRDY)  != RESET)
 80014c4:	4b35      	ldr	r3, [pc, #212]	; (800159c <HAL_RCC_OscConfig+0x4f4>)
 80014c6:	681b      	ldr	r3, [r3, #0]
 80014c8:	f003 7300 	and.w	r3, r3, #33554432	; 0x2000000
 80014cc:	2b00      	cmp	r3, #0
 80014ce:	d1f0      	bne.n	80014b2 <HAL_RCC_OscConfig+0x40a>
          }
        }

        /* Configure the HSE prediv factor --------------------------------*/
        /* It can be written only when the PLL is disabled. Not used in PLL source is different than HSE */
        if (RCC_OscInitStruct->PLL.PLLSource == RCC_PLLSOURCE_HSE)
 80014d0:	687b      	ldr	r3, [r7, #4]
 80014d2:	6a1b      	ldr	r3, [r3, #32]
 80014d4:	f5b3 3f80 	cmp.w	r3, #65536	; 0x10000
 80014d8:	d108      	bne.n	80014ec <HAL_RCC_OscConfig+0x444>
          /* Set PREDIV1 source */
          SET_BIT(RCC->CFGR2, RCC_OscInitStruct->Prediv1Source);
#endif /* RCC_CFGR2_PREDIV1SRC */

          /* Set PREDIV1 Value */
          __HAL_RCC_HSE_PREDIV_CONFIG(RCC_OscInitStruct->HSEPredivValue);
 80014da:	4b30      	ldr	r3, [pc, #192]	; (800159c <HAL_RCC_OscConfig+0x4f4>)
 80014dc:	685b      	ldr	r3, [r3, #4]
 80014de:	f423 3200 	bic.w	r2, r3, #131072	; 0x20000
 80014e2:	687b      	ldr	r3, [r7, #4]
 80014e4:	689b      	ldr	r3, [r3, #8]
 80014e6:	492d      	ldr	r1, [pc, #180]	; (800159c <HAL_RCC_OscConfig+0x4f4>)
 80014e8:	4313      	orrs	r3, r2
 80014ea:	604b      	str	r3, [r1, #4]
        }

        /* Configure the main PLL clock source and multiplication factors. */
        __HAL_RCC_PLL_CONFIG(RCC_OscInitStruct->PLL.PLLSource,
 80014ec:	4b2b      	ldr	r3, [pc, #172]	; (800159c <HAL_RCC_OscConfig+0x4f4>)
 80014ee:	685b      	ldr	r3, [r3, #4]
 80014f0:	f423 1274 	bic.w	r2, r3, #3997696	; 0x3d0000
 80014f4:	687b      	ldr	r3, [r7, #4]
 80014f6:	6a19      	ldr	r1, [r3, #32]
 80014f8:	687b      	ldr	r3, [r7, #4]
 80014fa:	6a5b      	ldr	r3, [r3, #36]	; 0x24
 80014fc:	430b      	orrs	r3, r1
 80014fe:	4927      	ldr	r1, [pc, #156]	; (800159c <HAL_RCC_OscConfig+0x4f4>)
 8001500:	4313      	orrs	r3, r2
 8001502:	604b      	str	r3, [r1, #4]
                             RCC_OscInitStruct->PLL.PLLMUL);
        /* Enable the main PLL. */
        __HAL_RCC_PLL_ENABLE();
 8001504:	4b27      	ldr	r3, [pc, #156]	; (80015a4 <HAL_RCC_OscConfig+0x4fc>)
 8001506:	2201      	movs	r2, #1
 8001508:	601a      	str	r2, [r3, #0]

        /* Get Start Tick */
        tickstart = HAL_GetTick();
 800150a:	f7ff f8f7 	bl	80006fc <HAL_GetTick>
 800150e:	6138      	str	r0, [r7, #16]

        /* Wait till PLL is ready */
        while (__HAL_RCC_GET_FLAG(RCC_FLAG_PLLRDY)  == RESET)
 8001510:	e008      	b.n	8001524 <HAL_RCC_OscConfig+0x47c>
        {
          if ((HAL_GetTick() - tickstart) > PLL_TIMEOUT_VALUE)
 8001512:	f7ff f8f3 	bl	80006fc <HAL_GetTick>
 8001516:	4602      	mov	r2, r0
 8001518:	693b      	ldr	r3, [r7, #16]
 800151a:	1ad3      	subs	r3, r2, r3
 800151c:	2b02      	cmp	r3, #2
 800151e:	d901      	bls.n	8001524 <HAL_RCC_OscConfig+0x47c>
          {
            return HAL_TIMEOUT;
 8001520:	2303      	movs	r3, #3
 8001522:	e037      	b.n	8001594 <HAL_RCC_OscConfig+0x4ec>
        while (__HAL_RCC_GET_FLAG(RCC_FLAG_PLLRDY)  == RESET)
 8001524:	4b1d      	ldr	r3, [pc, #116]	; (800159c <HAL_RCC_OscConfig+0x4f4>)
 8001526:	681b      	ldr	r3, [r3, #0]
 8001528:	f003 7300 	and.w	r3, r3, #33554432	; 0x2000000
 800152c:	2b00      	cmp	r3, #0
 800152e:	d0f0      	beq.n	8001512 <HAL_RCC_OscConfig+0x46a>
 8001530:	e02f      	b.n	8001592 <HAL_RCC_OscConfig+0x4ea>
        }
      }
      else
      {
        /* Disable the main PLL. */
        __HAL_RCC_PLL_DISABLE();
 8001532:	4b1c      	ldr	r3, [pc, #112]	; (80015a4 <HAL_RCC_OscConfig+0x4fc>)
 8001534:	2200      	movs	r2, #0
 8001536:	601a      	str	r2, [r3, #0]

        /* Get Start Tick */
        tickstart = HAL_GetTick();
 8001538:	f7ff f8e0 	bl	80006fc <HAL_GetTick>
 800153c:	6138      	str	r0, [r7, #16]

        /* Wait till PLL is disabled */
        while (__HAL_RCC_GET_FLAG(RCC_FLAG_PLLRDY)  != RESET)
 800153e:	e008      	b.n	8001552 <HAL_RCC_OscConfig+0x4aa>
        {
          if ((HAL_GetTick() - tickstart) > PLL_TIMEOUT_VALUE)
 8001540:	f7ff f8dc 	bl	80006fc <HAL_GetTick>
 8001544:	4602      	mov	r2, r0
 8001546:	693b      	ldr	r3, [r7, #16]
 8001548:	1ad3      	subs	r3, r2, r3
 800154a:	2b02      	cmp	r3, #2
 800154c:	d901      	bls.n	8001552 <HAL_RCC_OscConfig+0x4aa>
          {
            return HAL_TIMEOUT;
 800154e:	2303      	movs	r3, #3
 8001550:	e020      	b.n	8001594 <HAL_RCC_OscConfig+0x4ec>
        while (__HAL_RCC_GET_FLAG(RCC_FLAG_PLLRDY)  != RESET)
 8001552:	4b12      	ldr	r3, [pc, #72]	; (800159c <HAL_RCC_OscConfig+0x4f4>)
 8001554:	681b      	ldr	r3, [r3, #0]
 8001556:	f003 7300 	and.w	r3, r3, #33554432	; 0x2000000
 800155a:	2b00      	cmp	r3, #0
 800155c:	d1f0      	bne.n	8001540 <HAL_RCC_OscConfig+0x498>
 800155e:	e018      	b.n	8001592 <HAL_RCC_OscConfig+0x4ea>
      }
    }
    else
    {
      /* Check if there is a request to disable the PLL used as System clock source */
      if ((RCC_OscInitStruct->PLL.PLLState) == RCC_PLL_OFF)
 8001560:	687b      	ldr	r3, [r7, #4]
 8001562:	69db      	ldr	r3, [r3, #28]
 8001564:	2b01      	cmp	r3, #1
 8001566:	d101      	bne.n	800156c <HAL_RCC_OscConfig+0x4c4>
      {
        return HAL_ERROR;
 8001568:	2301      	movs	r3, #1
 800156a:	e013      	b.n	8001594 <HAL_RCC_OscConfig+0x4ec>
      }
      else
      {
        /* Do not return HAL_ERROR if request repeats the current configuration */
        pll_config = RCC->CFGR;
 800156c:	4b0b      	ldr	r3, [pc, #44]	; (800159c <HAL_RCC_OscConfig+0x4f4>)
 800156e:	685b      	ldr	r3, [r3, #4]
 8001570:	60fb      	str	r3, [r7, #12]
        if ((READ_BIT(pll_config, RCC_CFGR_PLLSRC) != RCC_OscInitStruct->PLL.PLLSource) ||
 8001572:	68fb      	ldr	r3, [r7, #12]
 8001574:	f403 3280 	and.w	r2, r3, #65536	; 0x10000
 8001578:	687b      	ldr	r3, [r7, #4]
 800157a:	6a1b      	ldr	r3, [r3, #32]
 800157c:	429a      	cmp	r2, r3
 800157e:	d106      	bne.n	800158e <HAL_RCC_OscConfig+0x4e6>
            (READ_BIT(pll_config, RCC_CFGR_PLLMULL) != RCC_OscInitStruct->PLL.PLLMUL))
 8001580:	68fb      	ldr	r3, [r7, #12]
 8001582:	f403 1270 	and.w	r2, r3, #3932160	; 0x3c0000
 8001586:	687b      	ldr	r3, [r7, #4]
 8001588:	6a5b      	ldr	r3, [r3, #36]	; 0x24
        if ((READ_BIT(pll_config, RCC_CFGR_PLLSRC) != RCC_OscInitStruct->PLL.PLLSource) ||
 800158a:	429a      	cmp	r2, r3
 800158c:	d001      	beq.n	8001592 <HAL_RCC_OscConfig+0x4ea>
        {
          return HAL_ERROR;
 800158e:	2301      	movs	r3, #1
 8001590:	e000      	b.n	8001594 <HAL_RCC_OscConfig+0x4ec>
        }
      }
    }
  }

  return HAL_OK;
 8001592:	2300      	movs	r3, #0
}
 8001594:	4618      	mov	r0, r3
 8001596:	3718      	adds	r7, #24
 8001598:	46bd      	mov	sp, r7
 800159a:	bd80      	pop	{r7, pc}
 800159c:	40021000 	.word	0x40021000
 80015a0:	40007000 	.word	0x40007000
 80015a4:	42420060 	.word	0x42420060

080015a8 <HAL_RCC_ClockConfig>:
  *         You can use @ref HAL_RCC_GetClockConfig() function to know which clock is
  *         currently used as system clock source.
  * @retval HAL status
  */
HAL_StatusTypeDef HAL_RCC_ClockConfig(RCC_ClkInitTypeDef  *RCC_ClkInitStruct, uint32_t FLatency)
{
 80015a8:	b580      	push	{r7, lr}
 80015aa:	b084      	sub	sp, #16
 80015ac:	af00      	add	r7, sp, #0
 80015ae:	6078      	str	r0, [r7, #4]
 80015b0:	6039      	str	r1, [r7, #0]
  uint32_t tickstart;

  /* Check Null pointer */
  if (RCC_ClkInitStruct == NULL)
 80015b2:	687b      	ldr	r3, [r7, #4]
 80015b4:	2b00      	cmp	r3, #0
 80015b6:	d101      	bne.n	80015bc <HAL_RCC_ClockConfig+0x14>
  {
    return HAL_ERROR;
 80015b8:	2301      	movs	r3, #1
 80015ba:	e0d0      	b.n	800175e <HAL_RCC_ClockConfig+0x1b6>
  must be correctly programmed according to the frequency of the CPU clock
    (HCLK) of the device. */

#if defined(FLASH_ACR_LATENCY)
  /* Increasing the number of wait states because of higher CPU frequency */
  if (FLatency > __HAL_FLASH_GET_LATENCY())
 80015bc:	4b6a      	ldr	r3, [pc, #424]	; (8001768 <HAL_RCC_ClockConfig+0x1c0>)
 80015be:	681b      	ldr	r3, [r3, #0]
 80015c0:	f003 0307 	and.w	r3, r3, #7
 80015c4:	683a      	ldr	r2, [r7, #0]
 80015c6:	429a      	cmp	r2, r3
 80015c8:	d910      	bls.n	80015ec <HAL_RCC_ClockConfig+0x44>
  {
    /* Program the new number of wait states to the LATENCY bits in the FLASH_ACR register */
    __HAL_FLASH_SET_LATENCY(FLatency);
 80015ca:	4b67      	ldr	r3, [pc, #412]	; (8001768 <HAL_RCC_ClockConfig+0x1c0>)
 80015cc:	681b      	ldr	r3, [r3, #0]
 80015ce:	f023 0207 	bic.w	r2, r3, #7
 80015d2:	4965      	ldr	r1, [pc, #404]	; (8001768 <HAL_RCC_ClockConfig+0x1c0>)
 80015d4:	683b      	ldr	r3, [r7, #0]
 80015d6:	4313      	orrs	r3, r2
 80015d8:	600b      	str	r3, [r1, #0]

    /* Check that the new number of wait states is taken into account to access the Flash
    memory by reading the FLASH_ACR register */
    if (__HAL_FLASH_GET_LATENCY() != FLatency)
 80015da:	4b63      	ldr	r3, [pc, #396]	; (8001768 <HAL_RCC_ClockConfig+0x1c0>)
 80015dc:	681b      	ldr	r3, [r3, #0]
 80015de:	f003 0307 	and.w	r3, r3, #7
 80015e2:	683a      	ldr	r2, [r7, #0]
 80015e4:	429a      	cmp	r2, r3
 80015e6:	d001      	beq.n	80015ec <HAL_RCC_ClockConfig+0x44>
  {
    return HAL_ERROR;
 80015e8:	2301      	movs	r3, #1
 80015ea:	e0b8      	b.n	800175e <HAL_RCC_ClockConfig+0x1b6>
  }
}

#endif /* FLASH_ACR_LATENCY */
/*-------------------------- HCLK Configuration --------------------------*/
if (((RCC_ClkInitStruct->ClockType) & RCC_CLOCKTYPE_HCLK) == RCC_CLOCKTYPE_HCLK)
 80015ec:	687b      	ldr	r3, [r7, #4]
 80015ee:	681b      	ldr	r3, [r3, #0]
 80015f0:	f003 0302 	and.w	r3, r3, #2
 80015f4:	2b00      	cmp	r3, #0
 80015f6:	d020      	beq.n	800163a <HAL_RCC_ClockConfig+0x92>
  {
    /* Set the highest APBx dividers in order to ensure that we do not go through
    a non-spec phase whatever we decrease or increase HCLK. */
    if (((RCC_ClkInitStruct->ClockType) & RCC_CLOCKTYPE_PCLK1) == RCC_CLOCKTYPE_PCLK1)
 80015f8:	687b      	ldr	r3, [r7, #4]
 80015fa:	681b      	ldr	r3, [r3, #0]
 80015fc:	f003 0304 	and.w	r3, r3, #4
 8001600:	2b00      	cmp	r3, #0
 8001602:	d005      	beq.n	8001610 <HAL_RCC_ClockConfig+0x68>
    {
      MODIFY_REG(RCC->CFGR, RCC_CFGR_PPRE1, RCC_HCLK_DIV16);
 8001604:	4b59      	ldr	r3, [pc, #356]	; (800176c <HAL_RCC_ClockConfig+0x1c4>)
 8001606:	685b      	ldr	r3, [r3, #4]
 8001608:	4a58      	ldr	r2, [pc, #352]	; (800176c <HAL_RCC_ClockConfig+0x1c4>)
 800160a:	f443 63e0 	orr.w	r3, r3, #1792	; 0x700
 800160e:	6053      	str	r3, [r2, #4]
    }

    if (((RCC_ClkInitStruct->ClockType) & RCC_CLOCKTYPE_PCLK2) == RCC_CLOCKTYPE_PCLK2)
 8001610:	687b      	ldr	r3, [r7, #4]
 8001612:	681b      	ldr	r3, [r3, #0]
 8001614:	f003 0308 	and.w	r3, r3, #8
 8001618:	2b00      	cmp	r3, #0
 800161a:	d005      	beq.n	8001628 <HAL_RCC_ClockConfig+0x80>
    {
      MODIFY_REG(RCC->CFGR, RCC_CFGR_PPRE2, (RCC_HCLK_DIV16 << 3));
 800161c:	4b53      	ldr	r3, [pc, #332]	; (800176c <HAL_RCC_ClockConfig+0x1c4>)
 800161e:	685b      	ldr	r3, [r3, #4]
 8001620:	4a52      	ldr	r2, [pc, #328]	; (800176c <HAL_RCC_ClockConfig+0x1c4>)
 8001622:	f443 5360 	orr.w	r3, r3, #14336	; 0x3800
 8001626:	6053      	str	r3, [r2, #4]
    }

    /* Set the new HCLK clock divider */
    assert_param(IS_RCC_HCLK(RCC_ClkInitStruct->AHBCLKDivider));
    MODIFY_REG(RCC->CFGR, RCC_CFGR_HPRE, RCC_ClkInitStruct->AHBCLKDivider);
 8001628:	4b50      	ldr	r3, [pc, #320]	; (800176c <HAL_RCC_ClockConfig+0x1c4>)
 800162a:	685b      	ldr	r3, [r3, #4]
 800162c:	f023 02f0 	bic.w	r2, r3, #240	; 0xf0
 8001630:	687b      	ldr	r3, [r7, #4]
 8001632:	689b      	ldr	r3, [r3, #8]
 8001634:	494d      	ldr	r1, [pc, #308]	; (800176c <HAL_RCC_ClockConfig+0x1c4>)
 8001636:	4313      	orrs	r3, r2
 8001638:	604b      	str	r3, [r1, #4]
  }

  /*------------------------- SYSCLK Configuration ---------------------------*/
  if (((RCC_ClkInitStruct->ClockType) & RCC_CLOCKTYPE_SYSCLK) == RCC_CLOCKTYPE_SYSCLK)
 800163a:	687b      	ldr	r3, [r7, #4]
 800163c:	681b      	ldr	r3, [r3, #0]
 800163e:	f003 0301 	and.w	r3, r3, #1
 8001642:	2b00      	cmp	r3, #0
 8001644:	d040      	beq.n	80016c8 <HAL_RCC_ClockConfig+0x120>
  {
    assert_param(IS_RCC_SYSCLKSOURCE(RCC_ClkInitStruct->SYSCLKSource));

    /* HSE is selected as System Clock Source */
    if (RCC_ClkInitStruct->SYSCLKSource == RCC_SYSCLKSOURCE_HSE)
 8001646:	687b      	ldr	r3, [r7, #4]
 8001648:	685b      	ldr	r3, [r3, #4]
 800164a:	2b01      	cmp	r3, #1
 800164c:	d107      	bne.n	800165e <HAL_RCC_ClockConfig+0xb6>
    {
      /* Check the HSE ready flag */
      if (__HAL_RCC_GET_FLAG(RCC_FLAG_HSERDY) == RESET)
 800164e:	4b47      	ldr	r3, [pc, #284]	; (800176c <HAL_RCC_ClockConfig+0x1c4>)
 8001650:	681b      	ldr	r3, [r3, #0]
 8001652:	f403 3300 	and.w	r3, r3, #131072	; 0x20000
 8001656:	2b00      	cmp	r3, #0
 8001658:	d115      	bne.n	8001686 <HAL_RCC_ClockConfig+0xde>
      {
        return HAL_ERROR;
 800165a:	2301      	movs	r3, #1
 800165c:	e07f      	b.n	800175e <HAL_RCC_ClockConfig+0x1b6>
      }
    }
    /* PLL is selected as System Clock Source */
    else if (RCC_ClkInitStruct->SYSCLKSource == RCC_SYSCLKSOURCE_PLLCLK)
 800165e:	687b      	ldr	r3, [r7, #4]
 8001660:	685b      	ldr	r3, [r3, #4]
 8001662:	2b02      	cmp	r3, #2
 8001664:	d107      	bne.n	8001676 <HAL_RCC_ClockConfig+0xce>
    {
      /* Check the PLL ready flag */
      if (__HAL_RCC_GET_FLAG(RCC_FLAG_PLLRDY) == RESET)
 8001666:	4b41      	ldr	r3, [pc, #260]	; (800176c <HAL_RCC_ClockConfig+0x1c4>)
 8001668:	681b      	ldr	r3, [r3, #0]
 800166a:	f003 7300 	and.w	r3, r3, #33554432	; 0x2000000
 800166e:	2b00      	cmp	r3, #0
 8001670:	d109      	bne.n	8001686 <HAL_RCC_ClockConfig+0xde>
      {
        return HAL_ERROR;
 8001672:	2301      	movs	r3, #1
 8001674:	e073      	b.n	800175e <HAL_RCC_ClockConfig+0x1b6>
    }
    /* HSI is selected as System Clock Source */
    else
    {
      /* Check the HSI ready flag */
      if (__HAL_RCC_GET_FLAG(RCC_FLAG_HSIRDY) == RESET)
 8001676:	4b3d      	ldr	r3, [pc, #244]	; (800176c <HAL_RCC_ClockConfig+0x1c4>)
 8001678:	681b      	ldr	r3, [r3, #0]
 800167a:	f003 0302 	and.w	r3, r3, #2
 800167e:	2b00      	cmp	r3, #0
 8001680:	d101      	bne.n	8001686 <HAL_RCC_ClockConfig+0xde>
      {
        return HAL_ERROR;
 8001682:	2301      	movs	r3, #1
 8001684:	e06b      	b.n	800175e <HAL_RCC_ClockConfig+0x1b6>
      }
    }
    __HAL_RCC_SYSCLK_CONFIG(RCC_ClkInitStruct->SYSCLKSource);
 8001686:	4b39      	ldr	r3, [pc, #228]	; (800176c <HAL_RCC_ClockConfig+0x1c4>)
 8001688:	685b      	ldr	r3, [r3, #4]
 800168a:	f023 0203 	bic.w	r2, r3, #3
 800168e:	687b      	ldr	r3, [r7, #4]
 8001690:	685b      	ldr	r3, [r3, #4]
 8001692:	4936      	ldr	r1, [pc, #216]	; (800176c <HAL_RCC_ClockConfig+0x1c4>)
 8001694:	4313      	orrs	r3, r2
 8001696:	604b      	str	r3, [r1, #4]

    /* Get Start Tick */
    tickstart = HAL_GetTick();
 8001698:	f7ff f830 	bl	80006fc <HAL_GetTick>
 800169c:	60f8      	str	r0, [r7, #12]

    while (__HAL_RCC_GET_SYSCLK_SOURCE() != (RCC_ClkInitStruct->SYSCLKSource << RCC_CFGR_SWS_Pos))
 800169e:	e00a      	b.n	80016b6 <HAL_RCC_ClockConfig+0x10e>
    {
      if ((HAL_GetTick() - tickstart) > CLOCKSWITCH_TIMEOUT_VALUE)
 80016a0:	f7ff f82c 	bl	80006fc <HAL_GetTick>
 80016a4:	4602      	mov	r2, r0
 80016a6:	68fb      	ldr	r3, [r7, #12]
 80016a8:	1ad3      	subs	r3, r2, r3
 80016aa:	f241 3288 	movw	r2, #5000	; 0x1388
 80016ae:	4293      	cmp	r3, r2
 80016b0:	d901      	bls.n	80016b6 <HAL_RCC_ClockConfig+0x10e>
      {
        return HAL_TIMEOUT;
 80016b2:	2303      	movs	r3, #3
 80016b4:	e053      	b.n	800175e <HAL_RCC_ClockConfig+0x1b6>
    while (__HAL_RCC_GET_SYSCLK_SOURCE() != (RCC_ClkInitStruct->SYSCLKSource << RCC_CFGR_SWS_Pos))
 80016b6:	4b2d      	ldr	r3, [pc, #180]	; (800176c <HAL_RCC_ClockConfig+0x1c4>)
 80016b8:	685b      	ldr	r3, [r3, #4]
 80016ba:	f003 020c 	and.w	r2, r3, #12
 80016be:	687b      	ldr	r3, [r7, #4]
 80016c0:	685b      	ldr	r3, [r3, #4]
 80016c2:	009b      	lsls	r3, r3, #2
 80016c4:	429a      	cmp	r2, r3
 80016c6:	d1eb      	bne.n	80016a0 <HAL_RCC_ClockConfig+0xf8>
    }
  }

#if defined(FLASH_ACR_LATENCY)
  /* Decreasing the number of wait states because of lower CPU frequency */
  if (FLatency < __HAL_FLASH_GET_LATENCY())
 80016c8:	4b27      	ldr	r3, [pc, #156]	; (8001768 <HAL_RCC_ClockConfig+0x1c0>)
 80016ca:	681b      	ldr	r3, [r3, #0]
 80016cc:	f003 0307 	and.w	r3, r3, #7
 80016d0:	683a      	ldr	r2, [r7, #0]
 80016d2:	429a      	cmp	r2, r3
 80016d4:	d210      	bcs.n	80016f8 <HAL_RCC_ClockConfig+0x150>
  {
    /* Program the new number of wait states to the LATENCY bits in the FLASH_ACR register */
    __HAL_FLASH_SET_LATENCY(FLatency);
 80016d6:	4b24      	ldr	r3, [pc, #144]	; (8001768 <HAL_RCC_ClockConfig+0x1c0>)
 80016d8:	681b      	ldr	r3, [r3, #0]
 80016da:	f023 0207 	bic.w	r2, r3, #7
 80016de:	4922      	ldr	r1, [pc, #136]	; (8001768 <HAL_RCC_ClockConfig+0x1c0>)
 80016e0:	683b      	ldr	r3, [r7, #0]
 80016e2:	4313      	orrs	r3, r2
 80016e4:	600b      	str	r3, [r1, #0]

    /* Check that the new number of wait states is taken into account to access the Flash
    memory by reading the FLASH_ACR register */
    if (__HAL_FLASH_GET_LATENCY() != FLatency)
 80016e6:	4b20      	ldr	r3, [pc, #128]	; (8001768 <HAL_RCC_ClockConfig+0x1c0>)
 80016e8:	681b      	ldr	r3, [r3, #0]
 80016ea:	f003 0307 	and.w	r3, r3, #7
 80016ee:	683a      	ldr	r2, [r7, #0]
 80016f0:	429a      	cmp	r2, r3
 80016f2:	d001      	beq.n	80016f8 <HAL_RCC_ClockConfig+0x150>
  {
    return HAL_ERROR;
 80016f4:	2301      	movs	r3, #1
 80016f6:	e032      	b.n	800175e <HAL_RCC_ClockConfig+0x1b6>
  }
}
#endif /* FLASH_ACR_LATENCY */

/*-------------------------- PCLK1 Configuration ---------------------------*/
if (((RCC_ClkInitStruct->ClockType) & RCC_CLOCKTYPE_PCLK1) == RCC_CLOCKTYPE_PCLK1)
 80016f8:	687b      	ldr	r3, [r7, #4]
 80016fa:	681b      	ldr	r3, [r3, #0]
 80016fc:	f003 0304 	and.w	r3, r3, #4
 8001700:	2b00      	cmp	r3, #0
 8001702:	d008      	beq.n	8001716 <HAL_RCC_ClockConfig+0x16e>
  {
    assert_param(IS_RCC_PCLK(RCC_ClkInitStruct->APB1CLKDivider));
    MODIFY_REG(RCC->CFGR, RCC_CFGR_PPRE1, RCC_ClkInitStruct->APB1CLKDivider);
 8001704:	4b19      	ldr	r3, [pc, #100]	; (800176c <HAL_RCC_ClockConfig+0x1c4>)
 8001706:	685b      	ldr	r3, [r3, #4]
 8001708:	f423 62e0 	bic.w	r2, r3, #1792	; 0x700
 800170c:	687b      	ldr	r3, [r7, #4]
 800170e:	68db      	ldr	r3, [r3, #12]
 8001710:	4916      	ldr	r1, [pc, #88]	; (800176c <HAL_RCC_ClockConfig+0x1c4>)
 8001712:	4313      	orrs	r3, r2
 8001714:	604b      	str	r3, [r1, #4]
  }

  /*-------------------------- PCLK2 Configuration ---------------------------*/
  if (((RCC_ClkInitStruct->ClockType) & RCC_CLOCKTYPE_PCLK2) == RCC_CLOCKTYPE_PCLK2)
 8001716:	687b      	ldr	r3, [r7, #4]
 8001718:	681b      	ldr	r3, [r3, #0]
 800171a:	f003 0308 	and.w	r3, r3, #8
 800171e:	2b00      	cmp	r3, #0
 8001720:	d009      	beq.n	8001736 <HAL_RCC_ClockConfig+0x18e>
  {
    assert_param(IS_RCC_PCLK(RCC_ClkInitStruct->APB2CLKDivider));
    MODIFY_REG(RCC->CFGR, RCC_CFGR_PPRE2, ((RCC_ClkInitStruct->APB2CLKDivider) << 3));
 8001722:	4b12      	ldr	r3, [pc, #72]	; (800176c <HAL_RCC_ClockConfig+0x1c4>)
 8001724:	685b      	ldr	r3, [r3, #4]
 8001726:	f423 5260 	bic.w	r2, r3, #14336	; 0x3800
 800172a:	687b      	ldr	r3, [r7, #4]
 800172c:	691b      	ldr	r3, [r3, #16]
 800172e:	00db      	lsls	r3, r3, #3
 8001730:	490e      	ldr	r1, [pc, #56]	; (800176c <HAL_RCC_ClockConfig+0x1c4>)
 8001732:	4313      	orrs	r3, r2
 8001734:	604b      	str	r3, [r1, #4]
  }

  /* Update the SystemCoreClock global variable */
  SystemCoreClock = HAL_RCC_GetSysClockFreq() >> AHBPrescTable[(RCC->CFGR & RCC_CFGR_HPRE) >> RCC_CFGR_HPRE_Pos];
 8001736:	f000 f821 	bl	800177c <HAL_RCC_GetSysClockFreq>
 800173a:	4601      	mov	r1, r0
 800173c:	4b0b      	ldr	r3, [pc, #44]	; (800176c <HAL_RCC_ClockConfig+0x1c4>)
 800173e:	685b      	ldr	r3, [r3, #4]
 8001740:	091b      	lsrs	r3, r3, #4
 8001742:	f003 030f 	and.w	r3, r3, #15
 8001746:	4a0a      	ldr	r2, [pc, #40]	; (8001770 <HAL_RCC_ClockConfig+0x1c8>)
 8001748:	5cd3      	ldrb	r3, [r2, r3]
 800174a:	fa21 f303 	lsr.w	r3, r1, r3
 800174e:	4a09      	ldr	r2, [pc, #36]	; (8001774 <HAL_RCC_ClockConfig+0x1cc>)
 8001750:	6013      	str	r3, [r2, #0]

  /* Configure the source of time base considering new system clocks settings*/
  HAL_InitTick(uwTickPrio);
 8001752:	4b09      	ldr	r3, [pc, #36]	; (8001778 <HAL_RCC_ClockConfig+0x1d0>)
 8001754:	681b      	ldr	r3, [r3, #0]
 8001756:	4618      	mov	r0, r3
 8001758:	f7fe ff8e 	bl	8000678 <HAL_InitTick>

  return HAL_OK;
 800175c:	2300      	movs	r3, #0
}
 800175e:	4618      	mov	r0, r3
 8001760:	3710      	adds	r7, #16
 8001762:	46bd      	mov	sp, r7
 8001764:	bd80      	pop	{r7, pc}
 8001766:	bf00      	nop
 8001768:	40022000 	.word	0x40022000
 800176c:	40021000 	.word	0x40021000
 8001770:	080023d4 	.word	0x080023d4
 8001774:	20000000 	.word	0x20000000
 8001778:	20000004 	.word	0x20000004

0800177c <HAL_RCC_GetSysClockFreq>:
  *         right SYSCLK value. Otherwise, any configuration based on this function will be incorrect.
  *
  * @retval SYSCLK frequency
  */
uint32_t HAL_RCC_GetSysClockFreq(void)
{
 800177c:	b490      	push	{r4, r7}
 800177e:	b08a      	sub	sp, #40	; 0x28
 8001780:	af00      	add	r7, sp, #0
#if defined(RCC_CFGR2_PREDIV1SRC)
  const uint8_t aPLLMULFactorTable[14] = {0, 0, 4, 5, 6, 7, 8, 9, 0, 0, 0, 0, 0, 13};
  const uint8_t aPredivFactorTable[16] = {1, 2, 3, 4, 5, 6, 7, 8, 9, 10, 11, 12, 13, 14, 15, 16};
#else
  const uint8_t aPLLMULFactorTable[16] = {2, 3, 4, 5, 6, 7, 8, 9, 10, 11, 12, 13, 14, 15, 16, 16};
 8001782:	4b2a      	ldr	r3, [pc, #168]	; (800182c <HAL_RCC_GetSysClockFreq+0xb0>)
 8001784:	1d3c      	adds	r4, r7, #4
 8001786:	cb0f      	ldmia	r3, {r0, r1, r2, r3}
 8001788:	e884 000f 	stmia.w	r4, {r0, r1, r2, r3}
#if defined(RCC_CFGR2_PREDIV1)
  const uint8_t aPredivFactorTable[16] = {1, 2, 3, 4, 5, 6, 7, 8, 9, 10, 11, 12, 13, 14, 15, 16};
#else
  const uint8_t aPredivFactorTable[2] = {1, 2};
 800178c:	4b28      	ldr	r3, [pc, #160]	; (8001830 <HAL_RCC_GetSysClockFreq+0xb4>)
 800178e:	881b      	ldrh	r3, [r3, #0]
 8001790:	803b      	strh	r3, [r7, #0]
#endif /*RCC_CFGR2_PREDIV1*/

#endif
  uint32_t tmpreg = 0U, prediv = 0U, pllclk = 0U, pllmul = 0U;
 8001792:	2300      	movs	r3, #0
 8001794:	61fb      	str	r3, [r7, #28]
 8001796:	2300      	movs	r3, #0
 8001798:	61bb      	str	r3, [r7, #24]
 800179a:	2300      	movs	r3, #0
 800179c:	627b      	str	r3, [r7, #36]	; 0x24
 800179e:	2300      	movs	r3, #0
 80017a0:	617b      	str	r3, [r7, #20]
  uint32_t sysclockfreq = 0U;
 80017a2:	2300      	movs	r3, #0
 80017a4:	623b      	str	r3, [r7, #32]
#if defined(RCC_CFGR2_PREDIV1SRC)
  uint32_t prediv2 = 0U, pll2mul = 0U;
#endif /*RCC_CFGR2_PREDIV1SRC*/

  tmpreg = RCC->CFGR;
 80017a6:	4b23      	ldr	r3, [pc, #140]	; (8001834 <HAL_RCC_GetSysClockFreq+0xb8>)
 80017a8:	685b      	ldr	r3, [r3, #4]
 80017aa:	61fb      	str	r3, [r7, #28]

  /* Get SYSCLK source -------------------------------------------------------*/
  switch (tmpreg & RCC_CFGR_SWS)
 80017ac:	69fb      	ldr	r3, [r7, #28]
 80017ae:	f003 030c 	and.w	r3, r3, #12
 80017b2:	2b04      	cmp	r3, #4
 80017b4:	d002      	beq.n	80017bc <HAL_RCC_GetSysClockFreq+0x40>
 80017b6:	2b08      	cmp	r3, #8
 80017b8:	d003      	beq.n	80017c2 <HAL_RCC_GetSysClockFreq+0x46>
 80017ba:	e02d      	b.n	8001818 <HAL_RCC_GetSysClockFreq+0x9c>
  {
    case RCC_SYSCLKSOURCE_STATUS_HSE:  /* HSE used as system clock */
    {
      sysclockfreq = HSE_VALUE;
 80017bc:	4b1e      	ldr	r3, [pc, #120]	; (8001838 <HAL_RCC_GetSysClockFreq+0xbc>)
 80017be:	623b      	str	r3, [r7, #32]
      break;
 80017c0:	e02d      	b.n	800181e <HAL_RCC_GetSysClockFreq+0xa2>
    }
    case RCC_SYSCLKSOURCE_STATUS_PLLCLK:  /* PLL used as system clock */
    {
      pllmul = aPLLMULFactorTable[(uint32_t)(tmpreg & RCC_CFGR_PLLMULL) >> RCC_CFGR_PLLMULL_Pos];
 80017c2:	69fb      	ldr	r3, [r7, #28]
 80017c4:	0c9b      	lsrs	r3, r3, #18
 80017c6:	f003 030f 	and.w	r3, r3, #15
 80017ca:	f107 0228 	add.w	r2, r7, #40	; 0x28
 80017ce:	4413      	add	r3, r2
 80017d0:	f813 3c24 	ldrb.w	r3, [r3, #-36]
 80017d4:	617b      	str	r3, [r7, #20]
      if ((tmpreg & RCC_CFGR_PLLSRC) != RCC_PLLSOURCE_HSI_DIV2)
 80017d6:	69fb      	ldr	r3, [r7, #28]
 80017d8:	f403 3380 	and.w	r3, r3, #65536	; 0x10000
 80017dc:	2b00      	cmp	r3, #0
 80017de:	d013      	beq.n	8001808 <HAL_RCC_GetSysClockFreq+0x8c>
      {
#if defined(RCC_CFGR2_PREDIV1)
        prediv = aPredivFactorTable[(uint32_t)(RCC->CFGR2 & RCC_CFGR2_PREDIV1) >> RCC_CFGR2_PREDIV1_Pos];
#else
        prediv = aPredivFactorTable[(uint32_t)(RCC->CFGR & RCC_CFGR_PLLXTPRE) >> RCC_CFGR_PLLXTPRE_Pos];
 80017e0:	4b14      	ldr	r3, [pc, #80]	; (8001834 <HAL_RCC_GetSysClockFreq+0xb8>)
 80017e2:	685b      	ldr	r3, [r3, #4]
 80017e4:	0c5b      	lsrs	r3, r3, #17
 80017e6:	f003 0301 	and.w	r3, r3, #1
 80017ea:	f107 0228 	add.w	r2, r7, #40	; 0x28
 80017ee:	4413      	add	r3, r2
 80017f0:	f813 3c28 	ldrb.w	r3, [r3, #-40]
 80017f4:	61bb      	str	r3, [r7, #24]
        {
          pllclk = pllclk / 2;
        }
#else
        /* HSE used as PLL clock source : PLLCLK = HSE/PREDIV1 * PLLMUL */
        pllclk = (uint32_t)((HSE_VALUE  * pllmul) / prediv);
 80017f6:	697b      	ldr	r3, [r7, #20]
 80017f8:	4a0f      	ldr	r2, [pc, #60]	; (8001838 <HAL_RCC_GetSysClockFreq+0xbc>)
 80017fa:	fb02 f203 	mul.w	r2, r2, r3
 80017fe:	69bb      	ldr	r3, [r7, #24]
 8001800:	fbb2 f3f3 	udiv	r3, r2, r3
 8001804:	627b      	str	r3, [r7, #36]	; 0x24
 8001806:	e004      	b.n	8001812 <HAL_RCC_GetSysClockFreq+0x96>
#endif /*RCC_CFGR2_PREDIV1SRC*/
      }
      else
      {
        /* HSI used as PLL clock source : PLLCLK = HSI/2 * PLLMUL */
        pllclk = (uint32_t)((HSI_VALUE >> 1) * pllmul);
 8001808:	697b      	ldr	r3, [r7, #20]
 800180a:	4a0c      	ldr	r2, [pc, #48]	; (800183c <HAL_RCC_GetSysClockFreq+0xc0>)
 800180c:	fb02 f303 	mul.w	r3, r2, r3
 8001810:	627b      	str	r3, [r7, #36]	; 0x24
      }
      sysclockfreq = pllclk;
 8001812:	6a7b      	ldr	r3, [r7, #36]	; 0x24
 8001814:	623b      	str	r3, [r7, #32]
      break;
 8001816:	e002      	b.n	800181e <HAL_RCC_GetSysClockFreq+0xa2>
    }
    case RCC_SYSCLKSOURCE_STATUS_HSI:  /* HSI used as system clock source */
    default: /* HSI used as system clock */
    {
      sysclockfreq = HSI_VALUE;
 8001818:	4b07      	ldr	r3, [pc, #28]	; (8001838 <HAL_RCC_GetSysClockFreq+0xbc>)
 800181a:	623b      	str	r3, [r7, #32]
      break;
 800181c:	bf00      	nop
    }
  }
  return sysclockfreq;
 800181e:	6a3b      	ldr	r3, [r7, #32]
}
 8001820:	4618      	mov	r0, r3
 8001822:	3728      	adds	r7, #40	; 0x28
 8001824:	46bd      	mov	sp, r7
 8001826:	bc90      	pop	{r4, r7}
 8001828:	4770      	bx	lr
 800182a:	bf00      	nop
 800182c:	080023c0 	.word	0x080023c0
 8001830:	080023d0 	.word	0x080023d0
 8001834:	40021000 	.word	0x40021000
 8001838:	007a1200 	.word	0x007a1200
 800183c:	003d0900 	.word	0x003d0900

08001840 <HAL_RCC_GetHCLKFreq>:
  * @note   The SystemCoreClock CMSIS variable is used to store System Clock Frequency
  *         and updated within this function
  * @retval HCLK frequency
  */
uint32_t HAL_RCC_GetHCLKFreq(void)
{
 8001840:	b480      	push	{r7}
 8001842:	af00      	add	r7, sp, #0
  return SystemCoreClock;
 8001844:	4b02      	ldr	r3, [pc, #8]	; (8001850 <HAL_RCC_GetHCLKFreq+0x10>)
 8001846:	681b      	ldr	r3, [r3, #0]
}
 8001848:	4618      	mov	r0, r3
 800184a:	46bd      	mov	sp, r7
 800184c:	bc80      	pop	{r7}
 800184e:	4770      	bx	lr
 8001850:	20000000 	.word	0x20000000

08001854 <HAL_RCC_GetPCLK1Freq>:
  * @note   Each time PCLK1 changes, this function must be called to update the
  *         right PCLK1 value. Otherwise, any configuration based on this function will be incorrect.
  * @retval PCLK1 frequency
  */
uint32_t HAL_RCC_GetPCLK1Freq(void)
{
 8001854:	b580      	push	{r7, lr}
 8001856:	af00      	add	r7, sp, #0
  /* Get HCLK source and Compute PCLK1 frequency ---------------------------*/
  return (HAL_RCC_GetHCLKFreq() >> APBPrescTable[(RCC->CFGR & RCC_CFGR_PPRE1) >> RCC_CFGR_PPRE1_Pos]);
 8001858:	f7ff fff2 	bl	8001840 <HAL_RCC_GetHCLKFreq>
 800185c:	4601      	mov	r1, r0
 800185e:	4b05      	ldr	r3, [pc, #20]	; (8001874 <HAL_RCC_GetPCLK1Freq+0x20>)
 8001860:	685b      	ldr	r3, [r3, #4]
 8001862:	0a1b      	lsrs	r3, r3, #8
 8001864:	f003 0307 	and.w	r3, r3, #7
 8001868:	4a03      	ldr	r2, [pc, #12]	; (8001878 <HAL_RCC_GetPCLK1Freq+0x24>)
 800186a:	5cd3      	ldrb	r3, [r2, r3]
 800186c:	fa21 f303 	lsr.w	r3, r1, r3
}
 8001870:	4618      	mov	r0, r3
 8001872:	bd80      	pop	{r7, pc}
 8001874:	40021000 	.word	0x40021000
 8001878:	080023e4 	.word	0x080023e4

0800187c <HAL_RCC_GetPCLK2Freq>:
  * @note   Each time PCLK2 changes, this function must be called to update the
  *         right PCLK2 value. Otherwise, any configuration based on this function will be incorrect.
  * @retval PCLK2 frequency
  */
uint32_t HAL_RCC_GetPCLK2Freq(void)
{
 800187c:	b580      	push	{r7, lr}
 800187e:	af00      	add	r7, sp, #0
  /* Get HCLK source and Compute PCLK2 frequency ---------------------------*/
  return (HAL_RCC_GetHCLKFreq() >> APBPrescTable[(RCC->CFGR & RCC_CFGR_PPRE2) >> RCC_CFGR_PPRE2_Pos]);
 8001880:	f7ff ffde 	bl	8001840 <HAL_RCC_GetHCLKFreq>
 8001884:	4601      	mov	r1, r0
 8001886:	4b05      	ldr	r3, [pc, #20]	; (800189c <HAL_RCC_GetPCLK2Freq+0x20>)
 8001888:	685b      	ldr	r3, [r3, #4]
 800188a:	0adb      	lsrs	r3, r3, #11
 800188c:	f003 0307 	and.w	r3, r3, #7
 8001890:	4a03      	ldr	r2, [pc, #12]	; (80018a0 <HAL_RCC_GetPCLK2Freq+0x24>)
 8001892:	5cd3      	ldrb	r3, [r2, r3]
 8001894:	fa21 f303 	lsr.w	r3, r1, r3
}
 8001898:	4618      	mov	r0, r3
 800189a:	bd80      	pop	{r7, pc}
 800189c:	40021000 	.word	0x40021000
 80018a0:	080023e4 	.word	0x080023e4

080018a4 <RCC_Delay>:
  * @brief  This function provides delay (in milliseconds) based on CPU cycles method.
  * @param  mdelay: specifies the delay time length, in milliseconds.
  * @retval None
  */
static void RCC_Delay(uint32_t mdelay)
{
 80018a4:	b480      	push	{r7}
 80018a6:	b085      	sub	sp, #20
 80018a8:	af00      	add	r7, sp, #0
 80018aa:	6078      	str	r0, [r7, #4]
  __IO uint32_t Delay = mdelay * (SystemCoreClock / 8U / 1000U);
 80018ac:	4b0a      	ldr	r3, [pc, #40]	; (80018d8 <RCC_Delay+0x34>)
 80018ae:	681b      	ldr	r3, [r3, #0]
 80018b0:	4a0a      	ldr	r2, [pc, #40]	; (80018dc <RCC_Delay+0x38>)
 80018b2:	fba2 2303 	umull	r2, r3, r2, r3
 80018b6:	0a5b      	lsrs	r3, r3, #9
 80018b8:	687a      	ldr	r2, [r7, #4]
 80018ba:	fb02 f303 	mul.w	r3, r2, r3
 80018be:	60fb      	str	r3, [r7, #12]
  do
  {
    __NOP();
 80018c0:	bf00      	nop
  }
  while (Delay --);
 80018c2:	68fb      	ldr	r3, [r7, #12]
 80018c4:	1e5a      	subs	r2, r3, #1
 80018c6:	60fa      	str	r2, [r7, #12]
 80018c8:	2b00      	cmp	r3, #0
 80018ca:	d1f9      	bne.n	80018c0 <RCC_Delay+0x1c>
}
 80018cc:	bf00      	nop
 80018ce:	3714      	adds	r7, #20
 80018d0:	46bd      	mov	sp, r7
 80018d2:	bc80      	pop	{r7}
 80018d4:	4770      	bx	lr
 80018d6:	bf00      	nop
 80018d8:	20000000 	.word	0x20000000
 80018dc:	10624dd3 	.word	0x10624dd3

080018e0 <HAL_UART_Init>:
  * @param  huart  Pointer to a UART_HandleTypeDef structure that contains
  *                the configuration information for the specified UART module.
  * @retval HAL status
  */
HAL_StatusTypeDef HAL_UART_Init(UART_HandleTypeDef *huart)
{
 80018e0:	b580      	push	{r7, lr}
 80018e2:	b082      	sub	sp, #8
 80018e4:	af00      	add	r7, sp, #0
 80018e6:	6078      	str	r0, [r7, #4]
  /* Check the UART handle allocation */
  if (huart == NULL)
 80018e8:	687b      	ldr	r3, [r7, #4]
 80018ea:	2b00      	cmp	r3, #0
 80018ec:	d101      	bne.n	80018f2 <HAL_UART_Init+0x12>
  {
    return HAL_ERROR;
 80018ee:	2301      	movs	r3, #1
 80018f0:	e03f      	b.n	8001972 <HAL_UART_Init+0x92>
  assert_param(IS_UART_WORD_LENGTH(huart->Init.WordLength));
#if defined(USART_CR1_OVER8)
  assert_param(IS_UART_OVERSAMPLING(huart->Init.OverSampling));
#endif /* USART_CR1_OVER8 */

  if (huart->gState == HAL_UART_STATE_RESET)
 80018f2:	687b      	ldr	r3, [r7, #4]
 80018f4:	f893 3039 	ldrb.w	r3, [r3, #57]	; 0x39
 80018f8:	b2db      	uxtb	r3, r3
 80018fa:	2b00      	cmp	r3, #0
 80018fc:	d106      	bne.n	800190c <HAL_UART_Init+0x2c>
  {
    /* Allocate lock resource and initialize it */
    huart->Lock = HAL_UNLOCKED;
 80018fe:	687b      	ldr	r3, [r7, #4]
 8001900:	2200      	movs	r2, #0
 8001902:	f883 2038 	strb.w	r2, [r3, #56]	; 0x38

    /* Init the low level hardware */
    huart->MspInitCallback(huart);
#else
    /* Init the low level hardware : GPIO, CLOCK */
    HAL_UART_MspInit(huart);
 8001906:	6878      	ldr	r0, [r7, #4]
 8001908:	f7fe fd46 	bl	8000398 <HAL_UART_MspInit>
#endif /* (USE_HAL_UART_REGISTER_CALLBACKS) */
  }

  huart->gState = HAL_UART_STATE_BUSY;
 800190c:	687b      	ldr	r3, [r7, #4]
 800190e:	2224      	movs	r2, #36	; 0x24
 8001910:	f883 2039 	strb.w	r2, [r3, #57]	; 0x39

  /* Disable the peripheral */
  __HAL_UART_DISABLE(huart);
 8001914:	687b      	ldr	r3, [r7, #4]
 8001916:	681b      	ldr	r3, [r3, #0]
 8001918:	68da      	ldr	r2, [r3, #12]
 800191a:	687b      	ldr	r3, [r7, #4]
 800191c:	681b      	ldr	r3, [r3, #0]
 800191e:	f422 5200 	bic.w	r2, r2, #8192	; 0x2000
 8001922:	60da      	str	r2, [r3, #12]

  /* Set the UART Communication parameters */
  UART_SetConfig(huart);
 8001924:	6878      	ldr	r0, [r7, #4]
 8001926:	f000 fc35 	bl	8002194 <UART_SetConfig>

  /* In asynchronous mode, the following bits must be kept cleared:
     - LINEN and CLKEN bits in the USART_CR2 register,
     - SCEN, HDSEL and IREN  bits in the USART_CR3 register.*/
  CLEAR_BIT(huart->Instance->CR2, (USART_CR2_LINEN | USART_CR2_CLKEN));
 800192a:	687b      	ldr	r3, [r7, #4]
 800192c:	681b      	ldr	r3, [r3, #0]
 800192e:	691a      	ldr	r2, [r3, #16]
 8001930:	687b      	ldr	r3, [r7, #4]
 8001932:	681b      	ldr	r3, [r3, #0]
 8001934:	f422 4290 	bic.w	r2, r2, #18432	; 0x4800
 8001938:	611a      	str	r2, [r3, #16]
  CLEAR_BIT(huart->Instance->CR3, (USART_CR3_SCEN | USART_CR3_HDSEL | USART_CR3_IREN));
 800193a:	687b      	ldr	r3, [r7, #4]
 800193c:	681b      	ldr	r3, [r3, #0]
 800193e:	695a      	ldr	r2, [r3, #20]
 8001940:	687b      	ldr	r3, [r7, #4]
 8001942:	681b      	ldr	r3, [r3, #0]
 8001944:	f022 022a 	bic.w	r2, r2, #42	; 0x2a
 8001948:	615a      	str	r2, [r3, #20]

  /* Enable the peripheral */
  __HAL_UART_ENABLE(huart);
 800194a:	687b      	ldr	r3, [r7, #4]
 800194c:	681b      	ldr	r3, [r3, #0]
 800194e:	68da      	ldr	r2, [r3, #12]
 8001950:	687b      	ldr	r3, [r7, #4]
 8001952:	681b      	ldr	r3, [r3, #0]
 8001954:	f442 5200 	orr.w	r2, r2, #8192	; 0x2000
 8001958:	60da      	str	r2, [r3, #12]

  /* Initialize the UART state */
  huart->ErrorCode = HAL_UART_ERROR_NONE;
 800195a:	687b      	ldr	r3, [r7, #4]
 800195c:	2200      	movs	r2, #0
 800195e:	63da      	str	r2, [r3, #60]	; 0x3c
  huart->gState = HAL_UART_STATE_READY;
 8001960:	687b      	ldr	r3, [r7, #4]
 8001962:	2220      	movs	r2, #32
 8001964:	f883 2039 	strb.w	r2, [r3, #57]	; 0x39
  huart->RxState = HAL_UART_STATE_READY;
 8001968:	687b      	ldr	r3, [r7, #4]
 800196a:	2220      	movs	r2, #32
 800196c:	f883 203a 	strb.w	r2, [r3, #58]	; 0x3a

  return HAL_OK;
 8001970:	2300      	movs	r3, #0
}
 8001972:	4618      	mov	r0, r3
 8001974:	3708      	adds	r7, #8
 8001976:	46bd      	mov	sp, r7
 8001978:	bd80      	pop	{r7, pc}
	...

0800197c <HAL_UART_Transmit_DMA>:
  * @param  pData Pointer to data buffer (u8 or u16 data elements).
  * @param  Size  Amount of data elements (u8 or u16) to be sent
  * @retval HAL status
  */
HAL_StatusTypeDef HAL_UART_Transmit_DMA(UART_HandleTypeDef *huart, uint8_t *pData, uint16_t Size)
{
 800197c:	b580      	push	{r7, lr}
 800197e:	b086      	sub	sp, #24
 8001980:	af00      	add	r7, sp, #0
 8001982:	60f8      	str	r0, [r7, #12]
 8001984:	60b9      	str	r1, [r7, #8]
 8001986:	4613      	mov	r3, r2
 8001988:	80fb      	strh	r3, [r7, #6]
  uint32_t *tmp;

  /* Check that a Tx process is not already ongoing */
  if (huart->gState == HAL_UART_STATE_READY)
 800198a:	68fb      	ldr	r3, [r7, #12]
 800198c:	f893 3039 	ldrb.w	r3, [r3, #57]	; 0x39
 8001990:	b2db      	uxtb	r3, r3
 8001992:	2b20      	cmp	r3, #32
 8001994:	d153      	bne.n	8001a3e <HAL_UART_Transmit_DMA+0xc2>
  {
    if ((pData == NULL) || (Size == 0U))
 8001996:	68bb      	ldr	r3, [r7, #8]
 8001998:	2b00      	cmp	r3, #0
 800199a:	d002      	beq.n	80019a2 <HAL_UART_Transmit_DMA+0x26>
 800199c:	88fb      	ldrh	r3, [r7, #6]
 800199e:	2b00      	cmp	r3, #0
 80019a0:	d101      	bne.n	80019a6 <HAL_UART_Transmit_DMA+0x2a>
    {
      return HAL_ERROR;
 80019a2:	2301      	movs	r3, #1
 80019a4:	e04c      	b.n	8001a40 <HAL_UART_Transmit_DMA+0xc4>
    }

    /* Process Locked */
    __HAL_LOCK(huart);
 80019a6:	68fb      	ldr	r3, [r7, #12]
 80019a8:	f893 3038 	ldrb.w	r3, [r3, #56]	; 0x38
 80019ac:	2b01      	cmp	r3, #1
 80019ae:	d101      	bne.n	80019b4 <HAL_UART_Transmit_DMA+0x38>
 80019b0:	2302      	movs	r3, #2
 80019b2:	e045      	b.n	8001a40 <HAL_UART_Transmit_DMA+0xc4>
 80019b4:	68fb      	ldr	r3, [r7, #12]
 80019b6:	2201      	movs	r2, #1
 80019b8:	f883 2038 	strb.w	r2, [r3, #56]	; 0x38

    huart->pTxBuffPtr = pData;
 80019bc:	68ba      	ldr	r2, [r7, #8]
 80019be:	68fb      	ldr	r3, [r7, #12]
 80019c0:	621a      	str	r2, [r3, #32]
    huart->TxXferSize = Size;
 80019c2:	68fb      	ldr	r3, [r7, #12]
 80019c4:	88fa      	ldrh	r2, [r7, #6]
 80019c6:	849a      	strh	r2, [r3, #36]	; 0x24
    huart->TxXferCount = Size;
 80019c8:	68fb      	ldr	r3, [r7, #12]
 80019ca:	88fa      	ldrh	r2, [r7, #6]
 80019cc:	84da      	strh	r2, [r3, #38]	; 0x26

    huart->ErrorCode = HAL_UART_ERROR_NONE;
 80019ce:	68fb      	ldr	r3, [r7, #12]
 80019d0:	2200      	movs	r2, #0
 80019d2:	63da      	str	r2, [r3, #60]	; 0x3c
    huart->gState = HAL_UART_STATE_BUSY_TX;
 80019d4:	68fb      	ldr	r3, [r7, #12]
 80019d6:	2221      	movs	r2, #33	; 0x21
 80019d8:	f883 2039 	strb.w	r2, [r3, #57]	; 0x39

    /* Set the UART DMA transfer complete callback */
    huart->hdmatx->XferCpltCallback = UART_DMATransmitCplt;
 80019dc:	68fb      	ldr	r3, [r7, #12]
 80019de:	6b1b      	ldr	r3, [r3, #48]	; 0x30
 80019e0:	4a19      	ldr	r2, [pc, #100]	; (8001a48 <HAL_UART_Transmit_DMA+0xcc>)
 80019e2:	629a      	str	r2, [r3, #40]	; 0x28

    /* Set the UART DMA Half transfer complete callback */
    huart->hdmatx->XferHalfCpltCallback = UART_DMATxHalfCplt;
 80019e4:	68fb      	ldr	r3, [r7, #12]
 80019e6:	6b1b      	ldr	r3, [r3, #48]	; 0x30
 80019e8:	4a18      	ldr	r2, [pc, #96]	; (8001a4c <HAL_UART_Transmit_DMA+0xd0>)
 80019ea:	62da      	str	r2, [r3, #44]	; 0x2c

    /* Set the DMA error callback */
    huart->hdmatx->XferErrorCallback = UART_DMAError;
 80019ec:	68fb      	ldr	r3, [r7, #12]
 80019ee:	6b1b      	ldr	r3, [r3, #48]	; 0x30
 80019f0:	4a17      	ldr	r2, [pc, #92]	; (8001a50 <HAL_UART_Transmit_DMA+0xd4>)
 80019f2:	631a      	str	r2, [r3, #48]	; 0x30

    /* Set the DMA abort callback */
    huart->hdmatx->XferAbortCallback = NULL;
 80019f4:	68fb      	ldr	r3, [r7, #12]
 80019f6:	6b1b      	ldr	r3, [r3, #48]	; 0x30
 80019f8:	2200      	movs	r2, #0
 80019fa:	635a      	str	r2, [r3, #52]	; 0x34

    /* Enable the UART transmit DMA channel */
    tmp = (uint32_t *)&pData;
 80019fc:	f107 0308 	add.w	r3, r7, #8
 8001a00:	617b      	str	r3, [r7, #20]
    HAL_DMA_Start_IT(huart->hdmatx, *(uint32_t *)tmp, (uint32_t)&huart->Instance->DR, Size);
 8001a02:	68fb      	ldr	r3, [r7, #12]
 8001a04:	6b18      	ldr	r0, [r3, #48]	; 0x30
 8001a06:	697b      	ldr	r3, [r7, #20]
 8001a08:	6819      	ldr	r1, [r3, #0]
 8001a0a:	68fb      	ldr	r3, [r7, #12]
 8001a0c:	681b      	ldr	r3, [r3, #0]
 8001a0e:	3304      	adds	r3, #4
 8001a10:	461a      	mov	r2, r3
 8001a12:	88fb      	ldrh	r3, [r7, #6]
 8001a14:	f7fe ffe4 	bl	80009e0 <HAL_DMA_Start_IT>

    /* Clear the TC flag in the SR register by writing 0 to it */
    __HAL_UART_CLEAR_FLAG(huart, UART_FLAG_TC);
 8001a18:	68fb      	ldr	r3, [r7, #12]
 8001a1a:	681b      	ldr	r3, [r3, #0]
 8001a1c:	f06f 0240 	mvn.w	r2, #64	; 0x40
 8001a20:	601a      	str	r2, [r3, #0]

    /* Process Unlocked */
    __HAL_UNLOCK(huart);
 8001a22:	68fb      	ldr	r3, [r7, #12]
 8001a24:	2200      	movs	r2, #0
 8001a26:	f883 2038 	strb.w	r2, [r3, #56]	; 0x38

    /* Enable the DMA transfer for transmit request by setting the DMAT bit
       in the UART CR3 register */
    SET_BIT(huart->Instance->CR3, USART_CR3_DMAT);
 8001a2a:	68fb      	ldr	r3, [r7, #12]
 8001a2c:	681b      	ldr	r3, [r3, #0]
 8001a2e:	695a      	ldr	r2, [r3, #20]
 8001a30:	68fb      	ldr	r3, [r7, #12]
 8001a32:	681b      	ldr	r3, [r3, #0]
 8001a34:	f042 0280 	orr.w	r2, r2, #128	; 0x80
 8001a38:	615a      	str	r2, [r3, #20]

    return HAL_OK;
 8001a3a:	2300      	movs	r3, #0
 8001a3c:	e000      	b.n	8001a40 <HAL_UART_Transmit_DMA+0xc4>
  }
  else
  {
    return HAL_BUSY;
 8001a3e:	2302      	movs	r3, #2
  }
}
 8001a40:	4618      	mov	r0, r3
 8001a42:	3718      	adds	r7, #24
 8001a44:	46bd      	mov	sp, r7
 8001a46:	bd80      	pop	{r7, pc}
 8001a48:	08001da7 	.word	0x08001da7
 8001a4c:	08001df9 	.word	0x08001df9
 8001a50:	08001e99 	.word	0x08001e99

08001a54 <HAL_UART_Receive_DMA>:
  * @param  Size  Amount of data elements (u8 or u16) to be received.
  * @note   When the UART parity is enabled (PCE = 1) the received data contains the parity bit.
  * @retval HAL status
  */
HAL_StatusTypeDef HAL_UART_Receive_DMA(UART_HandleTypeDef *huart, uint8_t *pData, uint16_t Size)
{
 8001a54:	b580      	push	{r7, lr}
 8001a56:	b086      	sub	sp, #24
 8001a58:	af00      	add	r7, sp, #0
 8001a5a:	60f8      	str	r0, [r7, #12]
 8001a5c:	60b9      	str	r1, [r7, #8]
 8001a5e:	4613      	mov	r3, r2
 8001a60:	80fb      	strh	r3, [r7, #6]
  uint32_t *tmp;

  /* Check that a Rx process is not already ongoing */
  if (huart->RxState == HAL_UART_STATE_READY)
 8001a62:	68fb      	ldr	r3, [r7, #12]
 8001a64:	f893 303a 	ldrb.w	r3, [r3, #58]	; 0x3a
 8001a68:	b2db      	uxtb	r3, r3
 8001a6a:	2b20      	cmp	r3, #32
 8001a6c:	d166      	bne.n	8001b3c <HAL_UART_Receive_DMA+0xe8>
  {
    if ((pData == NULL) || (Size == 0U))
 8001a6e:	68bb      	ldr	r3, [r7, #8]
 8001a70:	2b00      	cmp	r3, #0
 8001a72:	d002      	beq.n	8001a7a <HAL_UART_Receive_DMA+0x26>
 8001a74:	88fb      	ldrh	r3, [r7, #6]
 8001a76:	2b00      	cmp	r3, #0
 8001a78:	d101      	bne.n	8001a7e <HAL_UART_Receive_DMA+0x2a>
    {
      return HAL_ERROR;
 8001a7a:	2301      	movs	r3, #1
 8001a7c:	e05f      	b.n	8001b3e <HAL_UART_Receive_DMA+0xea>
    }

    /* Process Locked */
    __HAL_LOCK(huart);
 8001a7e:	68fb      	ldr	r3, [r7, #12]
 8001a80:	f893 3038 	ldrb.w	r3, [r3, #56]	; 0x38
 8001a84:	2b01      	cmp	r3, #1
 8001a86:	d101      	bne.n	8001a8c <HAL_UART_Receive_DMA+0x38>
 8001a88:	2302      	movs	r3, #2
 8001a8a:	e058      	b.n	8001b3e <HAL_UART_Receive_DMA+0xea>
 8001a8c:	68fb      	ldr	r3, [r7, #12]
 8001a8e:	2201      	movs	r2, #1
 8001a90:	f883 2038 	strb.w	r2, [r3, #56]	; 0x38

    huart->pRxBuffPtr = pData;
 8001a94:	68ba      	ldr	r2, [r7, #8]
 8001a96:	68fb      	ldr	r3, [r7, #12]
 8001a98:	629a      	str	r2, [r3, #40]	; 0x28
    huart->RxXferSize = Size;
 8001a9a:	68fb      	ldr	r3, [r7, #12]
 8001a9c:	88fa      	ldrh	r2, [r7, #6]
 8001a9e:	859a      	strh	r2, [r3, #44]	; 0x2c

    huart->ErrorCode = HAL_UART_ERROR_NONE;
 8001aa0:	68fb      	ldr	r3, [r7, #12]
 8001aa2:	2200      	movs	r2, #0
 8001aa4:	63da      	str	r2, [r3, #60]	; 0x3c
    huart->RxState = HAL_UART_STATE_BUSY_RX;
 8001aa6:	68fb      	ldr	r3, [r7, #12]
 8001aa8:	2222      	movs	r2, #34	; 0x22
 8001aaa:	f883 203a 	strb.w	r2, [r3, #58]	; 0x3a

    /* Set the UART DMA transfer complete callback */
    huart->hdmarx->XferCpltCallback = UART_DMAReceiveCplt;
 8001aae:	68fb      	ldr	r3, [r7, #12]
 8001ab0:	6b5b      	ldr	r3, [r3, #52]	; 0x34
 8001ab2:	4a25      	ldr	r2, [pc, #148]	; (8001b48 <HAL_UART_Receive_DMA+0xf4>)
 8001ab4:	629a      	str	r2, [r3, #40]	; 0x28

    /* Set the UART DMA Half transfer complete callback */
    huart->hdmarx->XferHalfCpltCallback = UART_DMARxHalfCplt;
 8001ab6:	68fb      	ldr	r3, [r7, #12]
 8001ab8:	6b5b      	ldr	r3, [r3, #52]	; 0x34
 8001aba:	4a24      	ldr	r2, [pc, #144]	; (8001b4c <HAL_UART_Receive_DMA+0xf8>)
 8001abc:	62da      	str	r2, [r3, #44]	; 0x2c

    /* Set the DMA error callback */
    huart->hdmarx->XferErrorCallback = UART_DMAError;
 8001abe:	68fb      	ldr	r3, [r7, #12]
 8001ac0:	6b5b      	ldr	r3, [r3, #52]	; 0x34
 8001ac2:	4a23      	ldr	r2, [pc, #140]	; (8001b50 <HAL_UART_Receive_DMA+0xfc>)
 8001ac4:	631a      	str	r2, [r3, #48]	; 0x30

    /* Set the DMA abort callback */
    huart->hdmarx->XferAbortCallback = NULL;
 8001ac6:	68fb      	ldr	r3, [r7, #12]
 8001ac8:	6b5b      	ldr	r3, [r3, #52]	; 0x34
 8001aca:	2200      	movs	r2, #0
 8001acc:	635a      	str	r2, [r3, #52]	; 0x34

    /* Enable the DMA channel */
    tmp = (uint32_t *)&pData;
 8001ace:	f107 0308 	add.w	r3, r7, #8
 8001ad2:	617b      	str	r3, [r7, #20]
    HAL_DMA_Start_IT(huart->hdmarx, (uint32_t)&huart->Instance->DR, *(uint32_t *)tmp, Size);
 8001ad4:	68fb      	ldr	r3, [r7, #12]
 8001ad6:	6b58      	ldr	r0, [r3, #52]	; 0x34
 8001ad8:	68fb      	ldr	r3, [r7, #12]
 8001ada:	681b      	ldr	r3, [r3, #0]
 8001adc:	3304      	adds	r3, #4
 8001ade:	4619      	mov	r1, r3
 8001ae0:	697b      	ldr	r3, [r7, #20]
 8001ae2:	681a      	ldr	r2, [r3, #0]
 8001ae4:	88fb      	ldrh	r3, [r7, #6]
 8001ae6:	f7fe ff7b 	bl	80009e0 <HAL_DMA_Start_IT>

    /* Clear the Overrun flag just before enabling the DMA Rx request: can be mandatory for the second transfer */
    __HAL_UART_CLEAR_OREFLAG(huart);
 8001aea:	2300      	movs	r3, #0
 8001aec:	613b      	str	r3, [r7, #16]
 8001aee:	68fb      	ldr	r3, [r7, #12]
 8001af0:	681b      	ldr	r3, [r3, #0]
 8001af2:	681b      	ldr	r3, [r3, #0]
 8001af4:	613b      	str	r3, [r7, #16]
 8001af6:	68fb      	ldr	r3, [r7, #12]
 8001af8:	681b      	ldr	r3, [r3, #0]
 8001afa:	685b      	ldr	r3, [r3, #4]
 8001afc:	613b      	str	r3, [r7, #16]
 8001afe:	693b      	ldr	r3, [r7, #16]

    /* Process Unlocked */
    __HAL_UNLOCK(huart);
 8001b00:	68fb      	ldr	r3, [r7, #12]
 8001b02:	2200      	movs	r2, #0
 8001b04:	f883 2038 	strb.w	r2, [r3, #56]	; 0x38

    /* Enable the UART Parity Error Interrupt */
    SET_BIT(huart->Instance->CR1, USART_CR1_PEIE);
 8001b08:	68fb      	ldr	r3, [r7, #12]
 8001b0a:	681b      	ldr	r3, [r3, #0]
 8001b0c:	68da      	ldr	r2, [r3, #12]
 8001b0e:	68fb      	ldr	r3, [r7, #12]
 8001b10:	681b      	ldr	r3, [r3, #0]
 8001b12:	f442 7280 	orr.w	r2, r2, #256	; 0x100
 8001b16:	60da      	str	r2, [r3, #12]

    /* Enable the UART Error Interrupt: (Frame error, noise error, overrun error) */
    SET_BIT(huart->Instance->CR3, USART_CR3_EIE);
 8001b18:	68fb      	ldr	r3, [r7, #12]
 8001b1a:	681b      	ldr	r3, [r3, #0]
 8001b1c:	695a      	ldr	r2, [r3, #20]
 8001b1e:	68fb      	ldr	r3, [r7, #12]
 8001b20:	681b      	ldr	r3, [r3, #0]
 8001b22:	f042 0201 	orr.w	r2, r2, #1
 8001b26:	615a      	str	r2, [r3, #20]

    /* Enable the DMA transfer for the receiver request by setting the DMAR bit
    in the UART CR3 register */
    SET_BIT(huart->Instance->CR3, USART_CR3_DMAR);
 8001b28:	68fb      	ldr	r3, [r7, #12]
 8001b2a:	681b      	ldr	r3, [r3, #0]
 8001b2c:	695a      	ldr	r2, [r3, #20]
 8001b2e:	68fb      	ldr	r3, [r7, #12]
 8001b30:	681b      	ldr	r3, [r3, #0]
 8001b32:	f042 0240 	orr.w	r2, r2, #64	; 0x40
 8001b36:	615a      	str	r2, [r3, #20]

    return HAL_OK;
 8001b38:	2300      	movs	r3, #0
 8001b3a:	e000      	b.n	8001b3e <HAL_UART_Receive_DMA+0xea>
  }
  else
  {
    return HAL_BUSY;
 8001b3c:	2302      	movs	r3, #2
  }
}
 8001b3e:	4618      	mov	r0, r3
 8001b40:	3718      	adds	r7, #24
 8001b42:	46bd      	mov	sp, r7
 8001b44:	bd80      	pop	{r7, pc}
 8001b46:	bf00      	nop
 8001b48:	08001e15 	.word	0x08001e15
 8001b4c:	08001e7d 	.word	0x08001e7d
 8001b50:	08001e99 	.word	0x08001e99

08001b54 <HAL_UART_IRQHandler>:
  * @param  huart  Pointer to a UART_HandleTypeDef structure that contains
  *                the configuration information for the specified UART module.
  * @retval None
  */
void HAL_UART_IRQHandler(UART_HandleTypeDef *huart)
{
 8001b54:	b580      	push	{r7, lr}
 8001b56:	b088      	sub	sp, #32
 8001b58:	af00      	add	r7, sp, #0
 8001b5a:	6078      	str	r0, [r7, #4]
  uint32_t isrflags   = READ_REG(huart->Instance->SR);
 8001b5c:	687b      	ldr	r3, [r7, #4]
 8001b5e:	681b      	ldr	r3, [r3, #0]
 8001b60:	681b      	ldr	r3, [r3, #0]
 8001b62:	61fb      	str	r3, [r7, #28]
  uint32_t cr1its     = READ_REG(huart->Instance->CR1);
 8001b64:	687b      	ldr	r3, [r7, #4]
 8001b66:	681b      	ldr	r3, [r3, #0]
 8001b68:	68db      	ldr	r3, [r3, #12]
 8001b6a:	61bb      	str	r3, [r7, #24]
  uint32_t cr3its     = READ_REG(huart->Instance->CR3);
 8001b6c:	687b      	ldr	r3, [r7, #4]
 8001b6e:	681b      	ldr	r3, [r3, #0]
 8001b70:	695b      	ldr	r3, [r3, #20]
 8001b72:	617b      	str	r3, [r7, #20]
  uint32_t errorflags = 0x00U;
 8001b74:	2300      	movs	r3, #0
 8001b76:	613b      	str	r3, [r7, #16]
  uint32_t dmarequest = 0x00U;
 8001b78:	2300      	movs	r3, #0
 8001b7a:	60fb      	str	r3, [r7, #12]

  /* If no error occurs */
  errorflags = (isrflags & (uint32_t)(USART_SR_PE | USART_SR_FE | USART_SR_ORE | USART_SR_NE));
 8001b7c:	69fb      	ldr	r3, [r7, #28]
 8001b7e:	f003 030f 	and.w	r3, r3, #15
 8001b82:	613b      	str	r3, [r7, #16]
  if (errorflags == RESET)
 8001b84:	693b      	ldr	r3, [r7, #16]
 8001b86:	2b00      	cmp	r3, #0
 8001b88:	d10d      	bne.n	8001ba6 <HAL_UART_IRQHandler+0x52>
  {
    /* UART in mode Receiver -------------------------------------------------*/
    if (((isrflags & USART_SR_RXNE) != RESET) && ((cr1its & USART_CR1_RXNEIE) != RESET))
 8001b8a:	69fb      	ldr	r3, [r7, #28]
 8001b8c:	f003 0320 	and.w	r3, r3, #32
 8001b90:	2b00      	cmp	r3, #0
 8001b92:	d008      	beq.n	8001ba6 <HAL_UART_IRQHandler+0x52>
 8001b94:	69bb      	ldr	r3, [r7, #24]
 8001b96:	f003 0320 	and.w	r3, r3, #32
 8001b9a:	2b00      	cmp	r3, #0
 8001b9c:	d003      	beq.n	8001ba6 <HAL_UART_IRQHandler+0x52>
    {
      UART_Receive_IT(huart);
 8001b9e:	6878      	ldr	r0, [r7, #4]
 8001ba0:	f000 fa77 	bl	8002092 <UART_Receive_IT>
      return;
 8001ba4:	e0cc      	b.n	8001d40 <HAL_UART_IRQHandler+0x1ec>
    }
  }

  /* If some errors occur */
  if ((errorflags != RESET) && (((cr3its & USART_CR3_EIE) != RESET) || ((cr1its & (USART_CR1_RXNEIE | USART_CR1_PEIE)) != RESET)))
 8001ba6:	693b      	ldr	r3, [r7, #16]
 8001ba8:	2b00      	cmp	r3, #0
 8001baa:	f000 80ab 	beq.w	8001d04 <HAL_UART_IRQHandler+0x1b0>
 8001bae:	697b      	ldr	r3, [r7, #20]
 8001bb0:	f003 0301 	and.w	r3, r3, #1
 8001bb4:	2b00      	cmp	r3, #0
 8001bb6:	d105      	bne.n	8001bc4 <HAL_UART_IRQHandler+0x70>
 8001bb8:	69bb      	ldr	r3, [r7, #24]
 8001bba:	f403 7390 	and.w	r3, r3, #288	; 0x120
 8001bbe:	2b00      	cmp	r3, #0
 8001bc0:	f000 80a0 	beq.w	8001d04 <HAL_UART_IRQHandler+0x1b0>
  {
    /* UART parity error interrupt occurred ----------------------------------*/
    if (((isrflags & USART_SR_PE) != RESET) && ((cr1its & USART_CR1_PEIE) != RESET))
 8001bc4:	69fb      	ldr	r3, [r7, #28]
 8001bc6:	f003 0301 	and.w	r3, r3, #1
 8001bca:	2b00      	cmp	r3, #0
 8001bcc:	d00a      	beq.n	8001be4 <HAL_UART_IRQHandler+0x90>
 8001bce:	69bb      	ldr	r3, [r7, #24]
 8001bd0:	f403 7380 	and.w	r3, r3, #256	; 0x100
 8001bd4:	2b00      	cmp	r3, #0
 8001bd6:	d005      	beq.n	8001be4 <HAL_UART_IRQHandler+0x90>
    {
      huart->ErrorCode |= HAL_UART_ERROR_PE;
 8001bd8:	687b      	ldr	r3, [r7, #4]
 8001bda:	6bdb      	ldr	r3, [r3, #60]	; 0x3c
 8001bdc:	f043 0201 	orr.w	r2, r3, #1
 8001be0:	687b      	ldr	r3, [r7, #4]
 8001be2:	63da      	str	r2, [r3, #60]	; 0x3c
    }

    /* UART noise error interrupt occurred -----------------------------------*/
    if (((isrflags & USART_SR_NE) != RESET) && ((cr3its & USART_CR3_EIE) != RESET))
 8001be4:	69fb      	ldr	r3, [r7, #28]
 8001be6:	f003 0304 	and.w	r3, r3, #4
 8001bea:	2b00      	cmp	r3, #0
 8001bec:	d00a      	beq.n	8001c04 <HAL_UART_IRQHandler+0xb0>
 8001bee:	697b      	ldr	r3, [r7, #20]
 8001bf0:	f003 0301 	and.w	r3, r3, #1
 8001bf4:	2b00      	cmp	r3, #0
 8001bf6:	d005      	beq.n	8001c04 <HAL_UART_IRQHandler+0xb0>
    {
      huart->ErrorCode |= HAL_UART_ERROR_NE;
 8001bf8:	687b      	ldr	r3, [r7, #4]
 8001bfa:	6bdb      	ldr	r3, [r3, #60]	; 0x3c
 8001bfc:	f043 0202 	orr.w	r2, r3, #2
 8001c00:	687b      	ldr	r3, [r7, #4]
 8001c02:	63da      	str	r2, [r3, #60]	; 0x3c
    }

    /* UART frame error interrupt occurred -----------------------------------*/
    if (((isrflags & USART_SR_FE) != RESET) && ((cr3its & USART_CR3_EIE) != RESET))
 8001c04:	69fb      	ldr	r3, [r7, #28]
 8001c06:	f003 0302 	and.w	r3, r3, #2
 8001c0a:	2b00      	cmp	r3, #0
 8001c0c:	d00a      	beq.n	8001c24 <HAL_UART_IRQHandler+0xd0>
 8001c0e:	697b      	ldr	r3, [r7, #20]
 8001c10:	f003 0301 	and.w	r3, r3, #1
 8001c14:	2b00      	cmp	r3, #0
 8001c16:	d005      	beq.n	8001c24 <HAL_UART_IRQHandler+0xd0>
    {
      huart->ErrorCode |= HAL_UART_ERROR_FE;
 8001c18:	687b      	ldr	r3, [r7, #4]
 8001c1a:	6bdb      	ldr	r3, [r3, #60]	; 0x3c
 8001c1c:	f043 0204 	orr.w	r2, r3, #4
 8001c20:	687b      	ldr	r3, [r7, #4]
 8001c22:	63da      	str	r2, [r3, #60]	; 0x3c
    }

    /* UART Over-Run interrupt occurred --------------------------------------*/
    if (((isrflags & USART_SR_ORE) != RESET) && ((cr3its & USART_CR3_EIE) != RESET))
 8001c24:	69fb      	ldr	r3, [r7, #28]
 8001c26:	f003 0308 	and.w	r3, r3, #8
 8001c2a:	2b00      	cmp	r3, #0
 8001c2c:	d00a      	beq.n	8001c44 <HAL_UART_IRQHandler+0xf0>
 8001c2e:	697b      	ldr	r3, [r7, #20]
 8001c30:	f003 0301 	and.w	r3, r3, #1
 8001c34:	2b00      	cmp	r3, #0
 8001c36:	d005      	beq.n	8001c44 <HAL_UART_IRQHandler+0xf0>
    {
      huart->ErrorCode |= HAL_UART_ERROR_ORE;
 8001c38:	687b      	ldr	r3, [r7, #4]
 8001c3a:	6bdb      	ldr	r3, [r3, #60]	; 0x3c
 8001c3c:	f043 0208 	orr.w	r2, r3, #8
 8001c40:	687b      	ldr	r3, [r7, #4]
 8001c42:	63da      	str	r2, [r3, #60]	; 0x3c
    }

    /* Call UART Error Call back function if need be --------------------------*/
